:020000040800F2
:1000000000500020F91400089D140008A3140008F3
:10001000A9140008AF140008B5140008000000007F
:10002000000000000000000000000000BB140008F9
:10003000C714000800000000D3140008DF140008F3
:100040004115000841150008411500084115000838
:100050004115000841150008411500084115000828
:100060004115000841150008411500084115000818
:100070004115000841150008411500084115000808
:1000800041150008411500084115000841150008F8
:1000900041150008411500084115000841150008E8
:1000A00041150008411500084115000841150008D8
:1000B00041150008411500084115000841150008C8
:1000C00041150008411500084115000841150008B8
:1000D00041150008411500084115000841150008A8
:1000E00041150008411500084115000800000000F6
:1000F0000000000000000000000000000000000000
:0C01000000000000000000005FF808F1A3
:1001100010B5054C237833B9044B13B10448AFF341
:1001200000800123237010BD20000020000000008B
:10013000383D000808B5034B1BB103490348AFF332
:10014000008008BD0000000024000020383D0008A9
:1001500053B94AB9002908BF00281CBF4FF0FF312E
:100160004FF0FF3000F072B9ADF1080C6DE904CE2C
:1001700000F006F8DDF804E0DDE9022304B0704782
:100180002DE9F047089E0D4604468E46002B4CD1C3
:100190008A42944667D9B2FA82F353B102FA03FC59
:1001A000C3F1200201FA03FE20FA02F242EA0E0E27
:1001B0009C404FEA1C47BEFBF7F11FFA8CF507FB8A
:1001C00011EE01FB05F0220C42EA0E4290420AD9E0
:1001D0001CEB020201F1FF3E80F01981904240F2D7
:1001E000168102396244121AB2FBF7F007FB1022A3
:1001F00000FB05F5A4B244EA0244A5420AD91CEB6F
:10020000040400F1FF3280F00481A54240F2018134
:100210006444023840EA01400021641B1EB1DC4006
:100220000023C6E90043BDE8F0878B4208D9002EC1
:1002300000F0EA800021C6E900050846BDE8F08725
:10024000B3FA83F1002948D1AB4202D3824200F2D3
:10025000F880841A65EB030201209646002EE2D056
:10026000C6E9004EDFE702B9FFDEB2FA82F3002BE7
:1002700040F08E80881A0121170C1FFA82FEB0FB15
:10028000F7F507FB1500220C42EA00420EFB05F0D1
:10029000904208D91CEB020205F1FF3802D29042CD
:1002A00000F2CC804546121AB2FBF7F007FB102291
:1002B0000EFB00FEA4B244EA0244A64508D91CEB9A
:1002C000040400F1FF3202D2A64500F2B4801046C9
:1002D000A4EB0E0440EA0540A0E7C1F120078B40E3
:1002E00022FA07FC4CEA030C25FA07FA4FEA1C49EC
:1002F000BAFBF9F88D4020FA07F309FB18AA1FFA98
:100300008CFE2B4300FA01F508FB0EF01C0C44EAAE
:100310000A44A04202FA01F20BD91CEB040408F1D2
:10032000FF3A80F08680A04240F28380A8F1020864
:100330006444241A98B2B4FBF9F309FB134403FB99
:100340000EFE40EA0444A64508D91CEB040403F160
:10035000FF306AD2A64568D9023B644443EA0840AC
:10036000A0FB0293A4EB0E049C42C8469E4654D3C5
:1003700051D0002E67D0B5EB080364EB0E04CB40E0
:1003800004FA07F71F43CC40C6E9007400214AE78E
:1003900002FA03FCC3F12000C1409D4024FA00F0A2
:1003A0004FEA1C472843B1FBF7F507FB15111FFA6D
:1003B0008CFE020C42EA014205FB0EF1914204FA66
:1003C00003F408D91CEB020205F1FF382FD2914249
:1003D0002DD9023D6244521AB2FBF7F107FB1122FC
:1003E00080B240EA024001FB0EF2824208D91CEBC7
:1003F000000001F1FF3816D2824214D9023960445C
:10040000801A41EA05413AE7314630460BE771462A
:10041000E9E61046FEE64D45ABD2B9EB020863EBC8
:100420000C0E0138A5E74146EAE7034696E7454644
:10043000D1E7D0467DE76444023849E7023D624493
:1004400031E708460AE73146EDE600BF704700BFD6
:1004500080B584B000AF78600B46FB707B681B688A
:10046000FA781146184600F0D0FB7B681B681846E6
:1004700000F0EBFB0346FB737B681B680121184609
:1004800000F088FBFB7B18461037BD4680BD80B569
:1004900082B000AF78600B46FB701346BB707B6880
:1004A0001B680021184600F075FB7B681A68FB7812
:1004B00063F07F03DBB21946104600F0A6FB7B68B1
:1004C0001B68BA781146184600F09FFB7B681B68D2
:1004D0000121184600F05EFB00BF0837BD4680BD15
:1004E00090B587B000AFF8607A601A460B46FB7291
:1004F0001346BB72BB7A012B27D9FB681B6800210E
:10050000184600F047FBFB681B68FA7A114618464C
:1005100000F07BFB0023FB750CE0FB681968FB7D9A
:100520007A68D418084600F090FB03462370FB7DE0
:100530000133FB75FA7DBB7A9A42EED3FB681B68E8
:100540000121184600F026FB00E000BF1C37BD4625
:1005500090BD80B586B000AFF8607A601A460B4651
:10056000FB721346BB72BB7A012B29D9FB681B684F
:100570000021184600F00EFBFB681A68FB7A63F056
:100580007F03DBB21946104600F03FFB0023FB75EA
:100590000BE0FB681868FB7D7A6813441B781946EA
:1005A00000F033FBFB7D0133FB75FA7DBB7A9A4289
:1005B000EFD3FB681B680121184600F0EBFA00E05E
:1005C00000BF1837BD4680BD80B586B000AF7860EB
:1005D000786800F00DF90F2000F05DFB786800F0FE
:1005E00017F97B68D3E902234FF000004FF00001B8
:1005F000D90441EA5231D0046F4A4FF00003FFF7AB
:10060000A7FD02460B46C7E90423D7E904014FF0D2
:1006100000024FF00003020C42EA01420B0CD3B27D
:100620003B73D7E904014FF000024FF00003020AC8
:1006300042EA01620B0AD3B27B733B7CBB7307F1C6
:100640000C02032306217868FFF783FF3422392147
:100650007868FFF71CFF7B681B7C1A46574B9B5C36
:100660001A4609217868FFF712FF0B220B217868E0
:10067000FFF70DFF23220C217868FFF708FF7B6846
:100680005B7C1A464E4B9B5C062B47D17B689B7C60
:100690001A464C4B9B5C1B01DAB27B68DB7C19462B
:1006A000494B5B5C5B00DBB21344DBB20133DBB272
:1006B0001A461D217868FFF7EAFE7B685B7C1A46C4
:1006C0003F4B9B5C1B01DAB27B681B7D19463F4B9D
:1006D0005B5C9B00DBB21344DBB20333DBB21A4634
:1006E0001E217868FFF7D3FE31217868FFF7B0FE4E
:1006F0000346FB73FB7B23F00703FB73FB7B43F099
:100700000503FB73FB7B1A4631217868FFF7BFFEB8
:100710000C2237217868FFF7BAFE29E07B689B7CC2
:100720001A46284B9B5C1B01DAB27B68DB7C1946BE
:10073000254B5B5C5B00DBB21344DBB21A461D2128
:100740007868FFF7A4FE7B685B7C1A461C4B9B5CB9
:100750001B01DAB27B681B7D19461C4B5B5C9B005E
:10076000DBB21344DBB21A461E217868FFF78FFE16
:10077000042226217868FFF78AFE08221F21786864
:10078000FFF785FE002220217868FFF780FE08220F
:1007900021217868FFF77BFE012241217868FFF76D
:1007A00076FE7B68002283F81721786800F010F845
:1007B00000BF1837BD4680BD0048E801503D000825
:1007C000543D00085C3D0008683D00086C3D000891
:1007D00080B582B000AF7860092201217868FFF708
:1007E00056FE7B6801229A7500BF0837BD4680BD62
:1007F00080B582B000AF7860082201217868FFF7E9
:1008000046FE7B6800229A7500BF0837BD4680BD52
:1008100080B582B000AF7860882201217868FFF748
:1008200036FE00BF0837BD4680BD80B582B000AF40
:100830007860FF2212217868FFF729FE00BF083791
:10084000BD4680BD80B586B000AFF8600B467A60CB
:10085000FB72FB68FA7A5A75F868FFF7B5FE8422D6
:100860004D21F868FFF713FEFF222421F868FFF7F7
:100870000EFE01224021F868FFF709FE3F221121F8
:10088000F868FFF704FEF868FFF7CFFFFB7A1A4617
:100890002221F868FFF7FBFD0F21F868FFF7D8FD6C
:1008A0000346FB75FB7D1A460D21F868FFF7EFFD47
:1008B0008D220121F868FFF7EAFDFB68002283F82A
:1008C00017211821F868FFF7C3FD034603F004035E
:1008D000042B04D1FB6803229A75012313E07B6883
:1008E000013B7B607B68002B09D1FB681B681846C5
:1008F00000F067F9F868FFF767FE002303E00120C6
:1009000000F0C9F9DDE718461837BD4680BD80B54F
:1009100084B000AF78607B681B68184600F0C6F9A9
:100920000346002B30D07B6817334FF480720021D0
:10093000184603F0C7F910217868FFF789FD0346D0
:10094000BB73BB7B1A460D217868FFF7A0FD7B685F
:100950005B7C002B03D17B685B7DFB7305E013217F
:100960007868FFF775FD0346FB737B6803F1170298
:10097000FB7B00217868FFF7B3FD7B68FA7B83F887
:1009800017217868FFF751FF7B6893F817311846F5
:100990001037BD4680BD80B586B000AFF8600B460D
:1009A0007A60FB72FB68FA7A5A75F868FFF70CFEFA
:1009B00087224D21F868FFF76AFD00222421F8689C
:1009C000FFF765FD41224021F868FFF760FDF868F8
:1009D000FFF72BFFF7221121F868FFF758FDFB7A8C
:1009E0001A462221F868FFF752FD0E21F868FFF73A
:1009F0002FFD0346FB75FB7D1A460D21F868FFF7B6
:100A000046FD2221F868FFF723FD0346BB75BA7D3A
:100A1000FB7A9A4204D1FB6802229A7501230EE008
:100A20007B68013B7B607B68002BEAD1FB681B681D
:100A3000184600F0C6F8F868FFF7C6FD0023184610
:100A40001837BD4680BD80B584B000AFF860B9608E
:100A50003B601346FB71FB79BA680021F868FFF729
:100A600078FD8B220121F868FFF711FDFB681B68F8
:100A7000184600F01BF90346002B0BD01221F86832
:100A8000FFF7E6FCF868FFF7D0FEF868FFF7A0FE76
:100A9000012313E03B68013B3B603B68002B09D11D
:100AA000FB681B68184600F08CF8F868FFF78CFDAF
:100AB000002303E0012000F0EEF8D7E718461037D6
:100AC000BD4680BD80B584B000AFF860C7E90023A3
:100AD000FB681B68184600F048F8F968D7E900235E
:100AE000C1E90223FB683A7E1A74FB683A7F5A74A4
:100AF000FB6897F820209A74FB6897F82420DA7432
:100B0000FB6897F828201A75FB6897F82C205A750F
:100B1000F868FFF759FD00BF1037BD4680BD80B5AE
:100B200084B000AFF860B9601346FB71FB6893F8BE
:100B30001731FA799A4203D0FB6893F81731FB71A9
:100B4000FB681733FA791946B86803F0E7F8FB79C0
:100B5000BA68134400221A70FB68002283F8172138
:100B6000FB7918461037BD4680BD80B582B000AF16
:100B700078600121786800F00DF87B6858687B6820
:100B80001B689BB20122194601F039FC00BF0837EF
:100B9000BD4680BD80B582B000AF786039607B68AB
:100BA00058697B681B6999B23B68012B0CBF012314
:100BB0000023DBB21A4601F022FC00BF0837BD4615
:100BC00080BD80B582B000AF786001217868FFF702
:100BD000E1FF7B6858687B681B689BB2002219465E
:100BE00001F00DFC012000F056F87B6858687B6826
:100BF0001B689BB20122194601F001FC642000F041
:100C00004AF800BF0837BD4680BD80B582B000AF4E
:100C100078600B46FB7000217868FFF7BBFF7B68AC
:100C20009869F91C4FF47A73012202F0EDF900BFC4
:100C30007B689B69184602F0DAFC0346012BF7D16A
:100C400000BF00BF0837BD4680BD80B586B002AF8B
:100C500078600023FB730023BB7300217868FFF7E3
:100C600099FF7B68986907F10E0207F10F014FF4B5
:100C70007A730093012302F00AFB00BF7B689B6933
:100C8000184602F0B4FC0346012BF7D1BB7B184693
:100C90001037BD4680BD80B582B000AF78607868FF
:100CA00000F0B2FC00BF0837BD4680BD80B582B001
:100CB00000AF78607B68DA687B689B689BB21946F6
:100CC000104601F085FB0346012B0CBF01230023D6
:100CD000DBB218460837BD4680BD000080B584B041
:100CE00000AF3B1D00221A605A609A6000237B60AF
:100CF0000123BB600023FB603B1D1946054800F043
:100D00006BFF0346002B01D000F0ECFA00BF103758
:100D1000BD4680BD3C00002080B584B000AF3B1DC7
:100D200000221A605A609A6001237B600123BB6035
:100D30000023FB603B1D1946054800F04DFF0346AC
:100D4000002B01D000F0CEFA00BF1037BD4680BDA9
:100D50003C0000200000000080B586B006AF00F027
:100D6000F1FB00F027F900F02FFA00F0DDF900F0B8
:100D7000A5F900F07BF9824802F03CFD814B824AE4
:100D8000DA60804B02229A607E4B804A5A617D4B2A
:100D900010221A617B4B7C4A5A607A4B01221A60FE
:100DA000784B7B4A9A617B4B764A1A600A230593FB
:100DB0000023049300230393072302930123019349
:100DC000012300936CA3D3E900237248FFF77AFE56
:100DD000714B1B68012B0FD14FF4FA6210216D4843
:100DE000FFF7D9FD03466D4A136000224FF400510E
:100DF0006B4801F004FB0EE04FF4FA6210216548E5
:100E0000FFF720FD0346654A136001224FF40051AD
:100E1000634801F0F4FAFFF761FF624800F0F0FC6C
:100E20004FF47A715F4800F0C5FD5E4800F0C8FEDF
:100E300003469AB25C4B1A805A4800F08FFDFFF7C8
:100E40006BFF584800F0DCFC4FF47A71554800F015
:100E5000B1FD544800F0B4FE03469AB2534B1A80D9
:100E6000504800F07BFD4FF47A7000F0CDFB4E4B04
:100E70001B88DAB24E4B1A704B4B1B881B0A9BB275
:100E8000DAB24B4B5A7008213F4801F0A1FA0346F1
:100E90001A46474B9A70454B1B88DAB2444BDA70BE
:100EA000424B1B881B0A9BB2DAB2414B1A713A4B78
:100EB0001B68012B2FD14FF47A7000F0A5FB4FF483
:100EC000FA6210213348FFF766FD0346334A136088
:100ED0004FF4FA63102236492E48FFF7B4FD03465B
:100EE0002E4A13602D4B1B68002B94D000224FF428
:100EF00000512B4801F083FA4FF4FA7000F084FBA4
:100F000001224FF40051264801F079FA4FF4FA70AB
:100F100000F07AFB7FE74FF47A7000F075FB1D4814
:100F2000FFF7F5FC03461A461C4B1A601B4B1B6867
:100F3000002B7FF770AF194B1B68DBB21A461C49B8
:100F40001448FFF7ECFD0346002B3FF464AF00228A
:100F50004FF40051124801F052FA4FF4FA7000F0C9
:100F600053FB01224FF400510D4801F048FA4FF4B1
:100F7000FA7000F049FB4EE78050DE1900000000D7
:100F8000C40000200C010020000C014000080140BA
:100F90006C000020280100200000002040020020FA
:100FA000001001403C0000204402002046020020C6
:100FB0000400002080B594B000AF07F12803282278
:100FC0000021184602F07EFE07F1140300221A6089
:100FD0005A609A60DA601A613B1D00221A605A60FA
:100FE0009A60DA600123BB624FF48033FB62002316
:100FF0003B630123BB6302237B644FF48033BB64F8
:101000004FF4E013FB6407F12803184601F010FACF
:101010000346002B01D000F065F90F237B6102230A
:10102000BB610023FB614FF480633B6200237B6262
:1010300007F114030221184601F07CFC0346002B43
:1010400001D000F04FF902237B604FF40043FB60B6
:101050003B1D184601F0E8FD0346002B01D000F0CF
:1010600041F900BF5037BD4680BD000080B500AFDC
:10107000104B114A1A600F4B4FF480729A600D4B5F
:1010800001221A730B4B00221A750A4B4FF460228F
:10109000DA61084B00225A60064B01221A610548AA
:1010A00000F0D6FA0346002B01D000F01BF900BF78
:1010B00080BD00BF3C0000200024014080B500AF8F
:1010C000174B184A1A60164B4FF482725A60144B31
:1010D00000229A60124B0022DA60114B00221A6142
:1010E0000F4B00225A610E4B4FF400729A610C4B69
:1010F0001022DA610A4B00221A62094B00225A625E
:10110000074B00229A62064B0A22DA62044801F079
:10111000F7FE0346002B01D000F0E4F800BF80BDCD
:101120006C0000200030014080B586B000AF07F1B0
:10113000080300221A605A609A60DA603B46002277
:101140001A605A601E4B1F4A1A601D4B47225A6094
:101150001B4B00229A601A4B4FF6FE72DA60184B56
:1011600000221A61164B00225A61154B00229A6127
:10117000134802F0EFFA0346002B01D000F0B2F85A
:101180004FF48053BB6007F1080319460C4802F086
:101190007BFB0346002B01D000F0A4F800233B604A
:1011A00000237B603B461946054802F02DFD0346AF
:1011B000002B01D000F096F800BF1837BD4680BD67
:1011C000C4000020002C014080B588B000AF07F1BA
:1011D000100300221A605A609A60DA603D4B9B69E6
:1011E0003C4A43F0100393613A4B9B6903F01003B0
:1011F000FB60FB68374B9B69364A43F020039361E1
:10120000344B9B6903F02003BB60BB68314B9B6987
:10121000304A43F0040393612E4B9B6903F00403AF
:101220007B607B682B4B9B692A4A43F008039361E0
:10123000284B9B6903F008033B603B6800224FF496
:101240000051254801F0DBF801221021234801F06C
:10125000D6F801220121224801F0D1F84FF40053C1
:101260003B6101237B610023BB610223FB6107F12A
:1012700010031946184800F027FF10233B61012393
:101280007B610023BB610223FB6107F11003194658
:10129000124800F019FF01233B6101237B61002309
:1012A000BB610223FB6107F1100319460C4800F0F3
:1012B0000BFF0A233B6100237B610023BB6107F125
:1012C00010031946064800F0FFFE00BF2037BD4658
:1012D00080BD00BF00100240001001400008014026
:1012E000000C014080B400AF72B600BFFEE7000002
:1012F00080B485B000AF154B9B69144A43F00103DD
:101300009361124B9B6903F00103BB60BB680F4BF9
:10131000DB690E4A43F08053D3610C4BDB6903F069
:1013200080537B607B680A4B5B68FB60FB6823F043
:10133000E063FB60FB6843F00073FB60044AFB68FA
:10134000536000BF1437BD4680BC70470010024098
:101350000000014080B588B000AF786007F110034D
:1013600000221A605A609A60DA607B681B68144A2F
:10137000934221D1134B9B69124A43F4007393614A
:10138000104B9B6903F40073FB60FB680D4B9B697A
:101390000C4A43F0040393610A4B9B6903F0040376
:1013A000BB60BB6803233B6103237B6107F1100330
:1013B0001946054800F088FE00BF2037BD4680BDB5
:1013C00000240140001002400008014080B588B0B0
:1013D00000AF786007F1100300221A605A609A602B
:1013E000DA607B681B681B4A93422FD11A4B9B69BA
:1013F000194A43F480539361174B9B6903F480535C
:10140000FB60FB68144B9B69134A43F00403936130
:10141000114B9B6903F00403BB60BB68A0233B61D5
:1014200002237B610323FB6107F1100319460B487C
:1014300000F04AFE40233B6100237B610023BB6137
:1014400007F110031946054800F03EFE00BF2037A3
:10145000BD4680BD00300140001002400008014040
:1014600080B485B000AF78607B681B68094A9342FE
:101470000BD1094B9B69084A43F400639361064B07
:101480009B6903F40063FB60FB6800BF1437BD4633
:1014900080BC7047002C01400010024080B400AFB7
:1014A000FEE780B400AFFEE780B400AFFEE780B493
:1014B00000AFFEE780B400AFFEE780B400AF00BF2E
:1014C000BD4680BC704780B400AF00BFBD4680BC45
:1014D000704780B400AF00BFBD4680BC704780B588
:1014E00000AF00F075F800BF80BD80B400AF00BF52
:1014F000BD4680BC70470000FFF7F7FF0B480C4962
:101500000C4A002302E0D458C4500433C4188C425F
:10151000F9D3094A094C002301E013600432A242C6
:10152000FBD302F0D7FBFFF717FC70470000002049
:1015300020000020C03D0008200000204C020020B8
:10154000FEE7000080B500AF084B1B68074A43F078
:1015500010031360032000F083FD0F2000F008F853
:10156000FFF7C6FE0023184680BD00BF00200240E2
:1015700080B582B000AF7860124B1A68124B1B78AE
:1015800019464FF47A73B3FBF1F3B2FBF3F3184649
:1015900000F08DFD0346002B01D001230EE07B6897
:1015A0000F2B0AD8002279684FF0FF3000F063FD5E
:1015B000064A7B681360002300E0012318460837C1
:1015C000BD4680BD140000201C0000201800002033
:1015D00080B400AF054B1B781A46054B1B681344BB
:1015E000034A136000BFBD4680BC70471C0000204A
:1015F0004802002080B400AF024B1B681846BD466D
:1016000080BC70474802002080B584B000AF78608D
:10161000FFF7F0FFB8607B68FB60FB68B3F1FF3F4A
:1016200005D00A4B1B781A46FB681344FB6000BFC9
:10163000FFF7E0FF0246BB68D31AFA689A42F7D870
:1016400000BF00BF1037BD4680BD00BF1C0000209A
:1016500080B586B000AF78600023FB7500233B6146
:101660000023BB600023FB607B68002B01D10123BA
:10167000BEE07B689B68002B7B689B6A002B09D1CE
:101680007B680022DA627B68002283F82420786875
:10169000FFF760FE786800F0F1FB0346FB757B689E
:1016A0009B6A03F01003002B40F09980FB7D002B18
:1016B00040F095807B689B6A23F4885323F00203F3
:1016C00043F002027B689A627B685A687B68DB6938
:1016D0001A437B681B7B5B001343BA681343BB60F0
:1016E0007B689B68B3F5807F03D07B689B68012B88
:1016F00002D14FF4807300E000233A6913433B6149
:101700007B681B7D012B19D17B681B7B002B09D1CA
:101710007B689B69013B5A033B69134343F40063B5
:101720003B610BE07B689B6A43F020027B689A6216
:101730007B68DB6A43F001027B68DA627B681B68C6
:101740005B6823F469417B681B683A690A435A6005
:101750007B681B689A68284B13407A681268B968DE
:101760000B4393607B689B68B3F5807F03D07B68F5
:101770009B68012B04D17B681B69013B1B05FB6047
:101780007B681B68DB6A23F470017B681B68FA685E
:101790000A43DA627B681B689A68184B1340BA6880
:1017A0009A420BD17B680022DA627B689B6A23F045
:1017B000030343F001027B689A6218E07B689B6A2E
:1017C00023F0120343F010027B689A627B68DB6AA5
:1017D00043F001027B68DA620123FB7507E07B6856
:1017E0009B6A43F010027B689A620123FB75FB7DC4
:1017F00018461837BD4680BDFDF7E1FFFE0E1FFFFE
:1018000080B584B000AF78600023FB737B6893F8E9
:101810002430012B01D1022398E07B68012283F858
:101820002420786800F0D0FA0346FB73FB7B002B82
:1018300040F087807B689B6A23F4407323F00103A8
:1018400043F480727B689A627B681B68414A9342CA
:1018500005D1414B5B6803F47023002B15D17B68E5
:101860009B6A23F480127B689A627B681B685B68C2
:1018700003F48063002B26D07B689B6A23F44053DB
:1018800043F480527B689A621DE07B689B6A43F454
:1018900080127B689A627B681B682F4A934204D04F
:1018A0007B681B682B4A93420DD12B4B5B6803F47A
:1018B0008063002B07D07B689B6A23F4405343F47A
:1018C00080527B689A627B689B6A03F48053002B8A
:1018D00006D07B68DB6A23F006027B68DA6202E0EE
:1018E0007B680022DA627B68002283F824207B6810
:1018F0001B686FF002021A607B681B689B6803F428
:101900006023B3F5602F13D17B681B68114A9342A3
:1019100005D1114B5B6803F47023002B08D17B6861
:101920001B689A687B681B6842F4A0029A600CE00E
:101930007B681B689A687B681B6842F480129A6017
:1019400003E07B68002283F82420FB7B18461037D5
:10195000BD4680BD002801400024014080B584B010
:1019600000AF78600023FB737B6893F82430012B71
:1019700001D102231AE07B68012283F824207868D1
:1019800000F07CFA0346FB73FB7B002B09D17B68DC
:101990009B6A23F4885323F0010343F001027B6820
:1019A0009A627B68002283F82420FB7B184610375C
:1019B000BD4680BD90B587B000AF78603960002328
:1019C0007B610023FB6000233B61FFF713FE78611E
:1019D0007B681B689B6803F48073002B0BD07B68CB
:1019E0009B6A43F020027B689A627B68002283F83E
:1019F00024200123D3E07B681B685B6803F48073B9
:101A0000002B31D17B681B68DB6A03F47003002B69
:101A10002AD121E03B68B3F1FF3F1DD03B68002B8A
:101A200007D0FFF7E7FD02467B69D31A3A689A426E
:101A300012D27B681B681B6803F00203002B0BD1DA
:101A40007B689B6A43F004027B689A627B68002291
:101A500083F824200323A2E07B681B681B6803F043
:101A60000203002BD6D070E04F4B1C68022001F01F
:101A700091F90346B4FBF3F27B681B6819694B4B81
:101A80000B40002B18D17B681B68D968484B0B4072
:101A9000002B11D17B681B681969464B0B40002B4A
:101AA00008D17B681B68D968434B0B40002B01D1E0
:101AB000142320E029231EE07B681B6819693D4B35
:101AC0000B40002B06D17B681B68D9683A4B0B4052
:101AD000002B0DD07B681B681969384B0B40002B1D
:101AE00008D17B681B68D968344B0B40002B01D1AF
:101AF000542300E0FC2302FB03F33B6121E03B683D
:101B0000B3F1FF3F1AD03B68002B07D0FFF772FDFF
:101B100002467B69D31A3A689A420FD2FB683A6947
:101B20009A420BD97B689B6A43F004027B689A62F5
:101B30007B68002283F82420032330E0FB68013314
:101B4000FB60FB683A699A42D9D87B681B686FF0E2
:101B500012021A607B689B6A43F400727B689A6287
:101B60007B681B689B6803F46023B3F5602F15D175
:101B70007B681B7B002B11D17B689B6A23F48072EE
:101B80007B689A627B689B6A03F48053002B05D1C3
:101B90007B689B6A43F001027B689A6200231846C7
:101BA0001C37BD4690BD00BF14000020244992247C
:101BB0002449920092244912922449004992240017
:101BC00080B483B000AF78607B681B68DB6C18461C
:101BD0000C37BD4680BC704780B485B000AF7860DC
:101BE00039600023FB730023BB607B6893F82430CB
:101BF000012B01D10223DCE07B68012283F8242041
:101C00003B685B68062B1CD87B681B68596B3B687C
:101C10005A6813469B001344053B1F2202FA03F344
:101C2000DB4319403B6818683B685A6813469B00C1
:101C30001344053B00FA03F27B681B680A435A63AE
:101C40003CE03B685B680C2B1CD87B681B68196BFD
:101C50003B685A6813469B001344233B1F2202FA39
:101C600003F3DB4319403B6818683B685A68134626
:101C70009B001344233B00FA03F27B681B680A4372
:101C80001A631BE07B681B68D96A3B685A68134675
:101C90009B001344413B1F2202FA03F3DB4319402C
:101CA0003B6818683B685A6813469B001344413BE5
:101CB00000FA03F27B681B680A43DA623B681B6820
:101CC000092B1CD97B681B68D9683B681A681346C6
:101CD0005B0013441E3B072202FA03F3DB43194067
:101CE0003B6898683B681A6813465B0013441E3BC8
:101CF00000FA03F27B681B680A43DA6019E07B682C
:101D00001B6819693B681A6813465B001344072275
:101D100002FA03F3DB4319403B6898683B681A6892
:101D200013465B00134400FA03F27B681B680A4306
:101D30001A613B681B68102B03D03B681B68112B92
:101D400032D17B681B681D4A934225D17B681B6892
:101D50009B6803F40003002B26D17B681B689A68FC
:101D60007B681B6842F400029A603B681B68102B7A
:101D70001AD1134B1B68134AA2FB03239A0C134678
:101D80009B0013445B00BB6002E0BB68013BBB608F
:101D9000BB68002BF9D107E07B689B6A43F0200207
:101DA0007B689A620123FB737B68002283F82420FE
:101DB000FB7B18461437BD4680BC704700240140A9
:101DC0001400002083DE1B4380B584B000AF786030
:101DD0000023FB600023BB607B681B689B6803F0EB
:101DE0000103012B40D07B681B689A687B681B68E5
:101DF00042F001029A601F4B1B681F4AA2FB03239B
:101E00009B0CBB6002E0BB68013BBB60BB68002B66
:101E1000F9D1FFF7EFFBF8601FE0FFF7EBFB02469D
:101E2000FB68D31A022B18D97B681B689B6803F0E8
:101E30000103012B11D07B689B6A43F010027B6881
:101E40009A627B68DB6A43F001027B68DA627B6836
:101E5000002283F82420012307E07B681B689B682D
:101E600003F00103012BD8D1002318461037BD46DB
:101E700080BD00BF1400002083DE1B4380B584B00A
:101E800000AF78600023FB607B681B689B6803F0F1
:101E90000103012B2ED17B681B689A687B681B6845
:101EA00022F001029A60FFF7A5FBF8601BE0FFF744
:101EB000A1FB0246FB68D31A022B14D97B681B686E
:101EC0009B6803F00103012B0DD17B689B6A43F0F3
:101ED00010027B689A627B68DB6A43F001027B68D0
:101EE000DA62012307E07B681B689B6803F001034B
:101EF000012BDCD0002318461037BD4680BD000002
:101F000080B485B000AF78607B6803F00703FB60A6
:101F10000C4BDB68BB60BA684FF6FF031340BB6035
:101F2000FB681A02BB68134343F0BF6343F40033FA
:101F3000BB60044ABB68D36000BF1437BD4680BC99
:101F4000704700BF00ED00E080B400AF044BDB68D9
:101F50001B0A03F007031846BD4680BC704700BF4C
:101F600000ED00E080B483B000AF03463960FB7140
:101F700097F90730002B0ADB3B68DAB20C4997F976
:101F800007301201D2B20B4483F800230AE03B6809
:101F9000DAB20849FB7903F00F03043B1201D2B215
:101FA0000B441A7600BF0C37BD4680BC704700BF9B
:101FB00000E100E000ED00E080B489B000AFF8601F
:101FC000B9607A60FB6803F00703FB61FB69C3F14A
:101FD0000703042B28BF0423BB61FB690433062BD2
:101FE00002D9FB69033B00E000237B614FF0FF3225
:101FF000BB6902FA03F3DA43BB681A407B699A4073
:102000004FF0FF317B6901FA03F3D9437B680B4042
:10201000134318462437BD4680BC704780B582B054
:1020200000AF78607B68013BB3F1807F01D301236F
:102030000FE00A4A7B68013B53600F214FF0FF30ED
:10204000FFF790FF054B00229A60044B07221A60AD
:10205000002318460837BD4680BD00BF10E000E0F1
:1020600080B582B000AF78607868FFF749FF00BFA5
:102070000837BD4680BD80B586B000AF0346B96065
:102080007A60FB7300237B61FFF75EFF78617A68FB
:10209000B9687869FFF790FF024697F90F3011464B
:1020A0001846FFF75FFF00BF1837BD4680BD80B5FB
:1020B00082B000AF78607868FFF7B0FF034618463B
:1020C0000837BD4680BD000080B48BB000AF78609B
:1020D000396000237B6200233B6269E101227B6A55
:1020E00002FA03F3FB613B681B68FA691340BB61AA
:1020F000BA69FB699A4240F058813B685B689A4A2A
:1021000093425ED0984A934275D8984A934258D0E9
:10211000964A93426FD8964A934252D0944A934239
:1021200069D8944A93424CD0924A934263D8924AD7
:10213000934246D0904A93425DD8122B2AD8122B54
:1021400059D801A252F823F0C32100089D210008AC
:10215000AF210008F1210008F7210008F72100084D
:10216000F7210008F7210008F7210008F7210008EF
:10217000F7210008F7210008F7210008F7210008DF
:10218000F7210008F7210008F7210008A521000821
:10219000B9210008794A934213D02CE03B68DB68F0
:1021A0003B6229E03B68DB6804333B6224E03B6828
:1021B000DB6808333B621FE03B68DB680C333B6243
:1021C0001AE03B689B68002B02D104233B6213E0BA
:1021D0003B689B68012B05D108233B627B68FA6949
:1021E0001A6109E008233B627B68FA695A6103E0DF
:1021F00000233B6200E000BFBB69FF2B01D87B6876
:1022000001E07B6804337B61BB69FF2B02D87B6AEA
:102210009B0002E07B6A083B9B003B617B691A687C
:102220000F213B6901FA03F3DB431A40396A3B692A
:1022300001FA03F31A437B691A603B685B6803F099
:102240008053002B00F0B1804D4B9B694C4A43F00A
:10225000010393614A4B9B6903F00103BB60BB68B8
:10226000484A7B6A9B08023352F82330FB607B6A42
:1022700003F003039B000F2202FA03F3DB43FA6827
:102280001340FB607B68404A934213D07B683F4A0F
:1022900093420DD07B683E4A934207D07B683D4A0B
:1022A000934201D1032306E0042304E0022302E069
:1022B000012300E000237A6A02F0030292009340B7
:1022C000FA681343FB602F497B6A9B080233FA6864
:1022D00041F823203B685B6803F48013002B06D091
:1022E0002D4B9A682C49BB6913438B6006E02A4B3F
:1022F0009A68BB69DB43284913408B603B685B6885
:1023000003F40013002B06D0234BDA682249BB6983
:102310001343CB6006E0204BDA68BB69DB431E4900
:102320001340CB603B685B6803F40033002B06D09E
:10233000194B5A681849BB6913434B6006E0164BAA
:102340005A68BB69DB43144913404B603B685B68C8
:1023500003F48033002B21D00F4B1A680E49BB6960
:1023600013430B6021E000BF000032100000311069
:1023700000002210000021100000121000001110B7
:10238000001002400000014000080140000C014024
:102390000010014000140140000401400B4B1A687A
:1023A000BB69DB43094913400B607B6A01337B62E5
:1023B0003B681A687B6A22FA03F3002B7FF48EAE27
:1023C00000BF00BF2C37BD4680BC704700040140F1
:1023D00080B485B000AF78600B467B807B689A68DC
:1023E0007B881340002B02D00123FB7301E0002304
:1023F000FB73FB7B18461437BD4680BC704780B426
:1024000083B000AF78600B467B8013467B707B788F
:10241000002B03D07A887B681A6103E07B881A045A
:102420007B681A6100BF0C37BD4680BC7047000056
:1024300080B586B000AF78607B68002B01D10123A6
:1024400072E27B681B6803F00103002B00F08780B9
:10245000924B5B6803F00C03042B0CD08F4B5B6832
:1024600003F00C03082B12D18C4B5B6803F4803310
:10247000B3F5803F0BD1894B1B6803F40033002B6D
:102480006CD07B685B68002B68D101234CE27B68D1
:102490005B68B3F5803F06D1804B1B687F4A43F4ED
:1024A000803313602EE07B685B68002B0CD17B4B84
:1024B0001B687A4A23F480331360784B1B68774A91
:1024C00023F4802313601DE07B685B68B3F5A02FC5
:1024D0000CD1724B1B68714A43F4802313606F4B1D
:1024E0001B686E4A43F4803313600BE06B4B1B6830
:1024F0006A4A23F480331360684B1B68674A23F4ED
:10250000802313607B685B68002B13D0FFF772F8A1
:10251000386108E0FFF76EF802463B69D31A642B76
:1025200001D9032300E25D4B1B6803F40033002B49
:10253000F0D014E0FFF75EF8386108E0FFF75AF8D2
:1025400002463B69D31A642B01D90323ECE1534BB8
:102550001B6803F40033002BF0D100E000BF7B6860
:102560001B6803F00203002B63D04C4B5B6803F045
:102570000C03002B0BD0494B5B6803F00C03082BBA
:102580001CD1464B5B6803F48033002B16D1434BC0
:102590001B6803F00203002B05D07B681B69012B2D
:1025A00001D00123C0E13D4B1B6823F0F8027B689A
:1025B0005B69DB00394913430B603AE07B681B69B8
:1025C000002B20D0364B01221A60FFF713F8386138
:1025D00008E0FFF70FF802463B69D31A022B01D936
:1025E0000323A1E12D4B1B6803F00203002BF0D065
:1025F0002A4B1B6823F0F8027B685B69DB002749E4
:1026000013430B6015E0264B00221A60FEF7F2FF21
:10261000386108E0FEF7EEFF02463B69D31A022B51
:1026200001D9032380E11D4B1B6803F00203002B3B
:10263000F0D17B681B6803F00803002B3AD07B685D
:102640009B69002B19D0174B01221A60FEF7D2FFAD
:10265000386108E0FEF7CEFF02463B69D31A022B31
:1026600001D9032360E10D4B5B6A03F00203002BE9
:10267000F0D0012000F0BAFA1CE00A4B00221A60E8
:10268000FEF7B8FF38610FE0FEF7B4FF02463B6982
:10269000D31A022B08D9032346E100BF00100240E1
:1026A0000000424280044242924B5B6A03F0020304
:1026B000002BE9D17B681B6803F00403002B00F0BA
:1026C000A6800023FB758B4BDB6903F08053002B46
:1026D0000DD1884BDB69874A43F08053D361854B2A
:1026E000DB6903F08053BB60BB680123FB75824B41
:1026F0001B6803F48073002B18D17F4B1B687E4A44
:1027000043F480731360FEF775FF386108E0FEF74D
:1027100071FF02463B69D31A642B01D9032303E1FD
:10272000754B1B6803F48073002BF0D07B68DB686B
:10273000012B06D16F4B1B6A6E4A43F001031362F3
:102740002DE07B68DB68002B0CD16A4B1B6A694A61
:1027500023F001031362674B1B6A664A23F00403EC
:1027600013621CE07B68DB68052B0CD1614B1B6A94
:10277000604A43F0040313625E4B1B6A5D4A43F0F8
:10278000010313620BE05B4B1B6A5A4A23F00103FF
:102790001362584B1B6A574A23F0040313627B6889
:1027A000DB68002B15D0FEF725FF38610AE0FEF745
:1027B00021FF02463B69D31A41F28832934201D984
:1027C0000323B1E04B4B1B6A03F00203002BEED056
:1027D00014E0FEF70FFF38610AE0FEF70BFF024638
:1027E0003B69D31A41F28832934201D903239BE01B
:1027F000404B1B6A03F00203002BEED1FB7D012B43
:1028000005D13C4BDB693B4A23F08053D3617B68A5
:10281000DB69002B00F08780364B5B6803F00C030C
:10282000082B61D07B68DB69022B46D1334B002239
:102830001A60FEF7DFFE386108E0FEF7DBFE0246B5
:102840003B69D31A022B01D903236DE0294B1B6886
:1028500003F00073002BF0D17B681B6AB3F5803F57
:1028600008D1244B5B6823F400327B689B682149C4
:1028700013434B601F4B5B6823F474127B68196A27
:102880007B685B6A0B431B4913434B601B4B012264
:102890001A60FEF7AFFE386108E0FEF7ABFE0246B5
:1028A0003B69D31A022B01D903233DE0114B1B686E
:1028B00003F00073002BF0D035E0104B00221A60BB
:1028C000FEF798FE386108E0FEF794FE02463B6989
:1028D000D31A022B01D9032326E0064B1B6803F011
:1028E0000073002BF0D11EE07B68DB69012B07D160
:1028F000012319E0001002400070004060004242D5
:102900000B4B5B68FB60FB6803F480327B681B6ADF
:102910009A4206D1FB6803F470127B685B6A9A42A4
:1029200001D0012300E0002318461837BD4680BDC2
:102930000010024080B584B000AF786039607B68D9
:10294000002B01D10123D0E06A4B1B6803F0070381
:102950003A689A4210D9674B1B6823F00702654911
:102960003B6813430B60634B1B6803F007033A6833
:102970009A4201D00123B8E07B681B6803F0020390
:10298000002B20D07B681B6803F00403002B05D0CC
:10299000594B5B68584A43F4E06353607B681B689B
:1029A00003F00803002B05D0534B5B68524A43F4F5
:1029B00060535360504B5B6823F0F0027B689B6868
:1029C0004D4913434B607B681B6803F00103002BE8
:1029D00040D07B685B68012B07D1474B1B6803F431
:1029E0000033002B15D101237FE07B685B68022B4D
:1029F00007D1414B1B6803F00073002B09D1012361
:102A000073E03D4B1B6803F00203002B01D101234F
:102A10006BE0394B5B6823F003027B685B683649E7
:102A200013434B60FEF7E6FDF8600AE0FEF7E2FDB7
:102A30000246FB68D31A41F28832934201D903233C
:102A400053E02D4B5B6803F00C027B685B689B00D6
:102A50009A42EBD1274B1B6803F007033A689A426E
:102A600010D2244B1B6823F0070222493B68134312
:102A70000B60204B1B6803F007033A689A4201D0B1
:102A8000012332E07B681B6803F00403002B08D0AD
:102A9000194B5B6823F4E0627B68DB6816491343DB
:102AA0004B607B681B6803F00803002B09D0124BB6
:102AB0005B6823F460527B681B69DB000E4913439B
:102AC0004B6000F021F802460B4B5B681B0903F0DA
:102AD0000F030A49CB5C22FA03F3094A1360094B3E
:102AE0001B681846FEF744FD002318461037BD4604
:102AF00080BD00BF0020024000100240703D000871
:102B0000140000201800002080B487B000AF00231C
:102B1000FB600023BB6000237B6100237B600023FC
:102B20003B611E4B5B68FB60FB6803F00C03042BEE
:102B300002D0082B03D027E0194B3B6127E0FB684C
:102B40009B0C03F00F03174AD35C7B60FB6803F414
:102B50008033002B10D0114B5B685B0C03F001033A
:102B6000114AD35CBB607B680D4A03FB02F2BB6871
:102B7000B2FBF3F37B6104E07B680C4A02FB03F3D6
:102B80007B617B693B6102E0054B3B6100BF3B69B8
:102B900018461C37BD4680BC704700BF001002407D
:102BA00000127A00883D0008983D000800093D00A9
:102BB00080B400AF024B1B681846BD4680BC70470E
:102BC0001400002080B500AFFFF7F2FF0246054B6E
:102BD0005B68DB0A03F007030349CB5C22FA03F3CB
:102BE000184680BD00100240803D000880B485B0CA
:102BF00000AF78600A4B1B680A4AA2FB03235B0AFA
:102C00007A6802FB03F3FB6000BFFB685A1EFA60A0
:102C1000002BF9D100BF00BF1437BD4680BC704700
:102C200014000020D34D621080B586B000AF7860EC
:102C300000233B610023FB607B681B6803F00103FA
:102C4000002B7DD00023FB754F4BDB6903F08053D5
:102C5000002B0DD14C4BDB694B4A43F08053D361C1
:102C6000494BDB6903F08053BB60BB680123FB75F4
:102C7000464B1B6803F48073002B18D1434B1B6831
:102C8000424A43F480731360FEF7B4FC386108E0F5
:102C9000FEF7B0FC02463B69D31A642B01D903232B
:102CA0006DE03A4B1B6803F48073002BF0D0364B79
:102CB0001B6A03F44073FB60FB68002B2ED07B681B
:102CC0005B6803F44073FA689A4227D02E4B1B6A64
:102CD00023F44073FB602E4B01221A602C4B002220
:102CE0001A60294AFB681362FB6803F00103002B9A
:102CF00014D0FEF77FFC38610AE0FEF77BFC024649
:102D00003B69D31A41F28832934201D9032336E05A
:102D10001D4B1B6A03F00203002BEED01A4B1B6AFB
:102D200023F440727B685B68174913430B62FB7D99
:102D3000012B05D1144BDB69134A23F08053D36177
:102D40007B681B6803F00203002B08D00E4B5B6806
:102D500023F440427B689B680B4913434B607B68BC
:102D60001B6803F01003002B08D0074B5B6823F4AB
:102D700080027B68DB68044913434B6000231846DC
:102D80001837BD4680BD00BF0010024000700040F3
:102D90004004424280B588B000AF786000237B6178
:102DA0000023FB6100233B610023FB600023BB6128
:102DB0007B68102B0AD07B68102B00F28A807B681E
:102DC000012B45D07B68022B75D082E0464B5B68B7
:102DD000FB60454B1B6803F08073002B7BD0FB68C6
:102DE0009B0C03F00F03414AD35C3B61FB6803F487
:102DF0008033002B15D03C4B5B685B0C03F0010368
:102E00003B4AD35C7B61FB6803F48033002B0DD01D
:102E1000384A7B69B2FBF3F23B6902FB03F3FB61C7
:102E200004E03B69344A02FB03F3FB612E4B5B6811
:102E300003F48003B3F5800F02D1FB69BB614AE064
:102E4000FB695B002D4AA2FB03235B08BB6142E0E8
:102E5000254B1B6AFB60FB6803F44073B3F5807F6E
:102E600008D1FB6803F00203002B03D04FF40043AA
:102E7000BB611FE0FB6803F44073B3F5007F09D129
:102E8000194B5B6A03F00203002B03D049F6404361
:102E9000BB610FE0FB6803F44073B3F5407F1CD1C6
:102EA000114B1B6803F40033002B16D04FF2244360
:102EB000BB6112E011E0FFF785FE02460A4B5B683A
:102EC0009B0B03F0030301335B00B2FBF3F3BB6125
:102ED00004E000BF02E000BF00E000BFBB6918468D
:102EE0002037BD4680BD00BF001002409C3D000859
:102EF000AC3D000800127A0000093D00ABAAAAAA66
:102F000080B582B000AF78607B68002B01D10123CF
:102F100076E07B685B6A002B08D17B685B68B3F561
:102F2000827F09D07B680022DA6105E07B6800229D
:102F30001A617B6800225A617B6800229A627B6872
:102F400093F85130DBB2002B06D17B68002283F866
:102F500050207868FEF73AFA7B68022283F8512005
:102F60007B681B681A687B681B6822F040021A6045
:102F70007B685B6803F482727B689B6803F404439C
:102F80001A437B68DB6803F400631A437B681B69A0
:102F900003F002031A437B685B6903F001031A43E1
:102FA0007B689B6903F400731A437B68DB6903F059
:102FB00038031A437B681B6A03F0800342EA03016B
:102FC0007B689B6A03F400527B681B680A431A60A3
:102FD0007B689B691A0C7B681B6802F004025A60CC
:102FE0007B681B68DA697B681B6822F40062DA611F
:102FF0007B6800225A657B68012283F851200023F8
:1030000018460837BD4680BD80B588B000AFF8606F
:10301000B9603B601346FB800023FB77FB6893F8A5
:103020005030012B01D102232DE1FB68012283F8EE
:103030005020FEF7DFFAB861FB88FB82FB6893F84B
:103040005130DBB2012B02D00223FB7716E1BB68C3
:10305000002B02D0FB88002B02D10123FB770DE16E
:10306000FB68032283F85120FB6800225A65FB6845
:10307000BA681A63FB68FA889A86FB68FA88DA8667
:10308000FB6800229A63FB6800229A87FB68002293
:10309000DA87FB6800225A64FB6800221A64FB6826
:1030A0009B68B3F5004F0FD1FB681B681A68FB687B
:1030B0001B6822F040021A60FB681B681A68FB68F4
:1030C0001B6842F480421A60FB681B681B6803F0AF
:1030D0004003402B07D0FB681B681A68FB681B681D
:1030E00042F040021A60FB68DB68B3F5006F4FD115
:1030F000FB685B68002B02D0FB8A012B42D1FB6886
:103100001B6B1A88FB681B68DA60FB681B6B9A1CD8
:10311000FB681A63FB68DB8E9BB2013B9AB2FB68CB
:10312000DA862FE0FB681B689B6803F00203022B22
:1031300012D1FB681B6B1A88FB681B68DA60FB689E
:103140001B6B9A1CFB681A63FB68DB8E9BB2013B0E
:103150009AB2FB68DA8615E0FEF74CFA0246BB69C4
:10316000D31A3A689A4203D83B68B3F1FF3F02D1C1
:103170003B68002B06D10323FB77FB68012283F811
:1031800051207BE0FB68DB8E9BB2002BCAD150E064
:10319000FB685B68002B02D0FB8A012B44D1FB68E3
:1031A0001A6BFB681B680C3312781A70FB681B6B78
:1031B0005A1CFB681A63FB68DB8E9BB2013B9AB218
:1031C000FB68DA8630E0FB681B689B6803F002034B
:1031D000022B13D1FB681A6BFB681B680C33127847
:1031E0001A70FB681B6B5A1CFB681A63FB68DB8E4A
:1031F0009BB2013B9AB2FB68DA8615E0FEF7FAF95A
:103200000246BB69D31A3A689A4203D83B68B3F1C5
:10321000FF3F02D13B68002B06D10323FB77FB68FD
:10322000012283F8512029E0FB68DB8E9BB2002B42
:10323000C9D1BA693968F86800F06EFA0346002B04
:1032400002D0FB6820225A65FB689B68002B0AD1DC
:1032500000233B61FB681B68DB683B61FB681B6804
:103260009B683B613B69FB685B6D002B02D00123CF
:10327000FB7703E0FB68012283F85120FB68002202
:1032800083F85020FB7F18462037BD4680BD80B5AF
:103290008CB000AFF860B9607A607B800123FB627C
:1032A000002387F82B30FB6893F85030012B01D1B5
:1032B000022398E1FB68012283F85020FEF79AF977
:1032C0007862FB6893F8513087F82330FB685B68BD
:1032D000FB617B887B8397F82330012B0FD0FB6940
:1032E000B3F5827F07D1FB689B68002B03D197F869
:1032F0002330042B03D0022387F82B306DE1BB6809
:10330000002B05D07B68002B02D07B88002B03D1DB
:10331000012387F82B3060E1FB6893F85130DBB272
:10332000042B03D0FB68052283F85120FB680022A0
:103330005A65FB687A689A63FB687A88DA87FB6863
:103340007A889A87FB68BA681A63FB687A88DA8693
:10335000FB687A889A86FB6800221A64FB68002260
:103360005A64FB681B681B6803F04003402B07D0BE
:10337000FB681B681A68FB681B6842F040021A6011
:10338000FB68DB68B3F5006F7CD1FB685B68002BE2
:1033900002D07B8B012B6AD1FB681B6B1A88FB6800
:1033A0001B68DA60FB681B6B9A1CFB681A63FB687E
:1033B000DB8E9BB2013B9AB2FB68DA8657E0FB6872
:1033C0001B689B6803F00203022B1BD1FB68DB8E9A
:1033D0009BB2002B16D0FB6A012B13D1FB681B6B31
:1033E0001A88FB681B68DA60FB681B6B9A1CFB6819
:1033F0001A63FB68DB8E9BB2013B9AB2FB68DA86EC
:103400000023FB62FB681B689B6803F00103012B30
:1034100019D1FB68DB8F9BB2002B14D0FB681B68B3
:10342000DA68FB689B6B92B21A80FB689B6B9A1CF4
:10343000FB689A63FB68DB8F9BB2013B9AB2FB6827
:10344000DA870123FB62FEF7D5F802467B6AD31ABE
:10345000BA6B9A420BD8BB6BB3F1FF3F07D0032383
:1034600087F82B30FB68012283F85120B5E0FB6818
:10347000DB8E9BB2002BA2D1FB68DB8F9BB2002BB3
:103480009DD180E0FB685B68002B02D07B8B012B19
:103490006FD1FB681A6BFB681B680C3312781A70CB
:1034A000FB681B6B5A1CFB681A63FB68DB8E9BB2C4
:1034B000013B9AB2FB68DA865BE0FB681B689B689D
:1034C00003F00203022B1CD1FB68DB8E9BB2002BA6
:1034D00017D0FB6A012B14D1FB681A6BFB681B68C1
:1034E0000C3312781A70FB681B6B5A1CFB681A634A
:1034F000FB68DB8E9BB2013B9AB2FB68DA86002345
:10350000FB62FB681B689B6803F00103012B19D168
:10351000FB68DB8F9BB2002B14D0FB681B68DA685A
:10352000FB689B6BD2B21A70FB689B6B5A1CFB68E2
:103530009A63FB68DB8F9BB2013B9AB2FB68DA8728
:103540000123FB62FEF756F802467B6AD31ABA6B78
:103550009A4203D8BB6BB3F1FF3F02D1BB6B002B88
:1035600007D1032387F82B30FB68012283F8512011
:1035700033E0FB68DB8E9BB2002B9ED1FB68DB8FB8
:103580009BB2002B99D17A6AB96BF86800F0C4F845
:103590000346002B06D0012387F82B30FB6820223E
:1035A0005A651AE0FB689B68002B0AD100237B61F7
:1035B000FB681B68DB687B61FB681B689B687B6141
:1035C0007B69FB685B6D002B03D0012387F82B30F0
:1035D00003E0FB68012283F85120FB68002283F896
:1035E000502097F82B3018463037BD4680BD80B448
:1035F00083B000AF78607B6893F85130DBB2184637
:103600000C37BD4680BC704780B588B000AFF8600D
:10361000B9603B601346FB71FDF7ECFF0246BB6AE5
:103620009B1A3A681344FB61FDF7E4FFB861394B1C
:103630001B685B011B0DFA6902FB03F37B6154E01D
:103640003B68B3F1FF3F50D0FDF7D4FF0246BB69A2
:10365000D31AFA699A4202D9FB69002B3DD1FB6863
:103660001B685A68FB681B6822F0E0025A60FB681E
:103670005B68B3F5827F11D1FB689B68B3F5004F9F
:1036800004D0FB689B68B3F5806F07D1FB681B68AB
:103690001A68FB681B6822F040021A60FB689B6A8C
:1036A000B3F5005F0FD1FB681B681A68FB681B68E5
:1036B00022F400521A60FB681B681A68FB681B68DA
:1036C00042F400521A60FB68012283F85120FB6823
:1036D000002283F85020032317E07B69002B01D1DF
:1036E0000023FB617B69013B7B61FB681B689A6877
:1036F000BB681340BA689A420CBF01230023DBB2B7
:103700001A46FB799A429BD1002318462037BD46C2
:1037100080BD00BF1400002080B586B002AFF86005
:10372000B9607A607B680093BB6800228021F868EA
:10373000FFF76AFF0346002B07D0FB685B6D43F081
:103740002002FB685A65032300E000231846103767
:10375000BD4680BD80B582B000AF78607B68002B2D
:1037600001D1012341E07B6893F83D30DBB2002BAF
:1037700006D17B68002283F83C207868FDF770FE54
:103780007B68022283F83D207B681A687B680433DB
:103790001946104600F040F97B68012283F8462064
:1037A0007B68012283F83E207B68012283F83F205A
:1037B0007B68012283F840207B68012283F8412046
:1037C0007B68012283F842207B68012283F8432032
:1037D0007B68012283F844207B68012283F845201E
:1037E0007B68012283F83D20002318460837BD4638
:1037F00080BD000080B485B000AF78607B6893F82E
:103800003D30DBB2012B01D0012332E07B68022284
:1038100083F83D207B681B68184A93420ED07B6872
:103820001B68B3F1804F09D07B681B68144A934230
:1038300004D07B681B68134A934211D17B681B68D4
:103840009B6803F00703FB60FB68062B10D07B68C6
:103850001B681A687B681B6842F001021A6007E067
:103860007B681B681A687B681B6842F001021A605B
:10387000002318461437BD4680BC7047002C014019
:10388000000400400008004080B584B000AF7860BC
:1038900039600023FB737B6893F83C30012B01D126
:1038A0000223B4E07B68012283F83C207B6802227B
:1038B00083F83D207B681B689B68BB60BB6823F076
:1038C0007703BB60BB6823F47F43BB607B681B68E6
:1038D000BA689A603B681B68B3F5005F3ED0B3F5E9
:1038E000005F00F28780B3F5805F00F08680B3F55B
:1038F000805F7FD8702B1AD0702B7BD8602B50D074
:10390000602B77D8502B3CD0502B73D8402B58D0FD
:10391000402B6FD8302B64D0302B6BD8202B60D04D
:10392000202B67D8002B5CD0102B5AD062E07B682C
:1039300018683B6899683B685A683B68DB6800F028
:1039400044F97B681B689B68BB60BB6843F07703E6
:10395000BB607B681B68BA689A604FE07B68186838
:103960003B6899683B685A683B68DB6800F02DF952
:103970007B681B689A687B681B6842F480429A6087
:103980003CE07B6818683B6859683B68DB681A460E
:1039900000F0A4F87B681B685021184600F0FBF883
:1039A0002CE07B6818683B6859683B68DB681A46FE
:1039B00000F0C2F87B681B686021184600F0EBF845
:1039C0001CE07B6818683B6859683B68DB681A46EE
:1039D00000F084F87B681B684021184600F0DBF893
:1039E0000CE07B681A683B681B681946104600F0BB
:1039F000D2F803E00123FB7300E000BF7B680122E3
:103A000083F83D207B68002283F83C20FB7B18462E
:103A10001037BD4680BD000080B485B000AF78602F
:103A200039607B681B68FB607B68294A93420BD036
:103A30007B68B3F1804F07D07B68264A934203D05E
:103A40007B68254A934208D1FB6823F07003FB6032
:103A50003B685B68FA681343FB607B681C4A9342CF
:103A60000BD07B68B3F1804F07D07B68194A934233
:103A700003D07B68184A934208D1FB6823F4407353
:103A8000FB603B68DB68FA681343FB60FB6823F06C
:103A900080023B685B691343FB607B68FA681A60CD
:103AA0003B689A687B68DA623B681A687B689A624E
:103AB0007B68074A934203D13B681A697B681A63A3
:103AC0007B6801225A6100BF1437BD4680BC704735
:103AD000002C0140000400400008004080B487B082
:103AE00000AFF860B9607A60FB681B6A7B61FB68B5
:103AF0001B6A23F00102FB681A62FB689B693B6149
:103B00003B6923F0F0033B617B681B013A69134377
:103B10003B617B6923F00A037B617A69BB681343CD
:103B20007B61FB683A699A61FB687A691A6200BF37
:103B30001C37BD4680BC704780B487B000AFF860CA
:103B4000B9607A60FB681B6A7B61FB681B6A23F0C3
:103B50001002FB681A62FB689B693B613B6923F4B6
:103B600070433B617B681B033A6913433B617B698C
:103B700023F0A0037B61BB681B017A6913437B615F
:103B8000FB683A699A61FB687A691A6200BF1C3760
:103B9000BD4680BC704780B485B000AF78603960A6
:103BA0007B689B68FB60FB6823F07003FB603A68EE
:103BB000FB68134343F00703FB607B68FA689A6075
:103BC00000BF1437BD4680BC704780B487B000AFDB
:103BD000F860B9607A603B60FB689B687B617B69D9
:103BE00023F47F437B613B681A027B681A43BB68FE
:103BF00013437A6913437B61FB687A699A6000BF5B
:103C00001C37BD4680BC704780B485B000AF78607B
:103C100039607B6893F83C30012B01D1022346E0E8
:103C20007B68012283F83C207B68022283F83D20D8
:103C30007B681B685B68FB607B681B689B68BB607C
:103C4000FB6823F07003FB603B681B68FA68134352
:103C5000FB607B681B68FA685A607B681B68164AC1
:103C600093420ED07B681B68B3F1804F09D07B680C
:103C70001B68124A934204D07B681B68104A934227
:103C80000CD1BB6823F08003BB603B685B68BA68FB
:103C90001343BB607B681B68BA689A607B6801222B
:103CA00083F83D207B68002283F83C2000231846DF
:103CB0001437BD4680BC7047002C01400004004012
:103CC0000008004003460244934200D1704703F8C5
:103CD000011BF9E770B500260C4D0D4C641BA410B8
:103CE000A64209D100F028F800260A4D0A4C641BB0
:103CF000A410A64205D170BD55F8043B9847013683
:103D0000EEE755F8043B98470136F2E7B83D000866
:103D1000B83D0008B83D0008BC3D00080A44914287
:103D200000F1FF3300D1704710B511F8014B9142FB
:103D300003F8014FF9D110BDF8B500BFF8BC08BCBD
:103D40009E467047F8B500BFF8BC08BC9E46704759
:103D5000FFFCF9F6060708090A0B0C000001020334
:103D60000405060708090000010203040100000021
:103D7000000000000000000001020304060708091B
:103D800000000000010203040203040506070809FD
:103D90000A0B0C0D0E0F10100102000002030405A7
:103DA000060708090A0B0C0D0E0F10100102000087
:083DB000D0C3FF7F01000000F9
:043DB80035010008C9
:043DBC0011010008E9
:103DC0000100000061626364656631323334353668
:103DD000373839300024F4001000000001000000E2
:04000005080014F9E2
:00000001FF
