:020000040800F2
:100000000050002085140008ED120008F3120008CB
:10001000F9120008FF120008051300080000000094
:100020000000000000000000000000000B130008AA
:100030001713000800000000231300082F13000806
:10004000CD140008CD140008CD140008CD1400080C
:10005000CD140008CD140008CD140008CD140008FC
:10006000CD140008CD140008CD140008CD140008EC
:10007000CD140008CD140008CD140008CD140008DC
:10008000CD140008CD140008CD140008CD140008CC
:10009000CD140008CD140008CD140008CD140008BC
:1000A000CD140008CD140008CD140008CD140008AC
:1000B000CD140008CD140008CD140008CD1400089C
:1000C000CD140008CD140008CD140008CD1400088C
:1000D000CD140008CD140008CD140008CD1400087C
:1000E000CD140008CD140008CD1400080000000055
:1000F0000000000000000000000000000000000000
:0C01000000000000000000005FF808F1A3
:1001100010B5054C237833B9044B13B10448AFF341
:1001200000800123237010BD680000200000000043
:10013000B43F000808B5034B1BB103490348AFF3B4
:10014000008008BD000000006C000020B43F0008E3
:1001500053B94AB9002908BF00281CBF4FF0FF312E
:100160004FF0FF3000F072B9ADF1080C6DE904CE2C
:1001700000F006F8DDF804E0DDE9022304B0704782
:100180002DE9F047089E0D4604468E46002B4CD1C3
:100190008A42944667D9B2FA82F353B102FA03FC59
:1001A000C3F1200201FA03FE20FA02F242EA0E0E27
:1001B0009C404FEA1C47BEFBF7F11FFA8CF507FB8A
:1001C00011EE01FB05F0220C42EA0E4290420AD9E0
:1001D0001CEB020201F1FF3E80F01981904240F2D7
:1001E000168102396244121AB2FBF7F007FB1022A3
:1001F00000FB05F5A4B244EA0244A5420AD91CEB6F
:10020000040400F1FF3280F00481A54240F2018134
:100210006444023840EA01400021641B1EB1DC4006
:100220000023C6E90043BDE8F0878B4208D9002EC1
:1002300000F0EA800021C6E900050846BDE8F08725
:10024000B3FA83F1002948D1AB4202D3824200F2D3
:10025000F880841A65EB030201209646002EE2D056
:10026000C6E9004EDFE702B9FFDEB2FA82F3002BE7
:1002700040F08E80881A0121170C1FFA82FEB0FB15
:10028000F7F507FB1500220C42EA00420EFB05F0D1
:10029000904208D91CEB020205F1FF3802D29042CD
:1002A00000F2CC804546121AB2FBF7F007FB102291
:1002B0000EFB00FEA4B244EA0244A64508D91CEB9A
:1002C000040400F1FF3202D2A64500F2B4801046C9
:1002D000A4EB0E0440EA0540A0E7C1F120078B40E3
:1002E00022FA07FC4CEA030C25FA07FA4FEA1C49EC
:1002F000BAFBF9F88D4020FA07F309FB18AA1FFA98
:100300008CFE2B4300FA01F508FB0EF01C0C44EAAE
:100310000A44A04202FA01F20BD91CEB040408F1D2
:10032000FF3A80F08680A04240F28380A8F1020864
:100330006444241A98B2B4FBF9F309FB134403FB99
:100340000EFE40EA0444A64508D91CEB040403F160
:10035000FF306AD2A64568D9023B644443EA0840AC
:10036000A0FB0293A4EB0E049C42C8469E4654D3C5
:1003700051D0002E67D0B5EB080364EB0E04CB40E0
:1003800004FA07F71F43CC40C6E9007400214AE78E
:1003900002FA03FCC3F12000C1409D4024FA00F0A2
:1003A0004FEA1C472843B1FBF7F507FB15111FFA6D
:1003B0008CFE020C42EA014205FB0EF1914204FA66
:1003C00003F408D91CEB020205F1FF382FD2914249
:1003D0002DD9023D6244521AB2FBF7F107FB1122FC
:1003E00080B240EA024001FB0EF2824208D91CEBC7
:1003F000000001F1FF3816D2824214D9023960445C
:10040000801A41EA05413AE7314630460BE771462A
:10041000E9E61046FEE64D45ABD2B9EB020863EBC8
:100420000C0E0138A5E74146EAE7034696E7454644
:10043000D1E7D0467DE76444023849E7023D624493
:1004400031E708460AE73146EDE600BF704700BFD6
:1004500080B584B000AF78600B46FB707B681B688A
:10046000FA781146184600F0D0FB7B681B681846E6
:1004700000F0EBFB0346FB737B681B680121184609
:1004800000F088FBFB7B18461037BD4680BD80B569
:1004900082B000AF78600B46FB701346BB707B6880
:1004A0001B680021184600F075FB7B681A68FB7812
:1004B00063F07F03DBB21946104600F0A6FB7B68B1
:1004C0001B68BA781146184600F09FFB7B681B68D2
:1004D0000121184600F05EFB00BF0837BD4680BD15
:1004E00090B587B000AFF8607A601A460B46FB7291
:1004F0001346BB72BB7A012B27D9FB681B6800210E
:10050000184600F047FBFB681B68FA7A114618464C
:1005100000F07BFB0023FB750CE0FB681968FB7D9A
:100520007A68D418084600F090FB03462370FB7DE0
:100530000133FB75FA7DBB7A9A42EED3FB681B68E8
:100540000121184600F026FB00E000BF1C37BD4625
:1005500090BD80B586B000AFF8607A601A460B4651
:10056000FB721346BB72BB7A012B29D9FB681B684F
:100570000021184600F00EFBFB681A68FB7A63F056
:100580007F03DBB21946104600F03FFB0023FB75EA
:100590000BE0FB681868FB7D7A6813441B781946EA
:1005A00000F033FBFB7D0133FB75FA7DBB7A9A4289
:1005B000EFD3FB681B680121184600F0EBFA00E05E
:1005C00000BF1837BD4680BD80B586B000AF7860EB
:1005D000786800F00DF90F2000F05DFB786800F0FE
:1005E00017F97B68D3E902234FF000004FF00001B8
:1005F000D90441EA5231D0046F4A4FF00003FFF7AB
:10060000A7FD02460B46C7E90423D7E904014FF0D2
:1006100000024FF00003020C42EA01420B0CD3B27D
:100620003B73D7E904014FF000024FF00003020AC8
:1006300042EA01620B0AD3B27B733B7CBB7307F1C6
:100640000C02032306217868FFF783FF3422392147
:100650007868FFF71CFF7B681B7C1A46574B9B5C36
:100660001A4609217868FFF712FF0B220B217868E0
:10067000FFF70DFF23220C217868FFF708FF7B6846
:100680005B7C1A464E4B9B5C062B47D17B689B7C60
:100690001A464C4B9B5C1B01DAB27B68DB7C19462B
:1006A000494B5B5C5B00DBB21344DBB20133DBB272
:1006B0001A461D217868FFF7EAFE7B685B7C1A46C4
:1006C0003F4B9B5C1B01DAB27B681B7D19463F4B9D
:1006D0005B5C9B00DBB21344DBB20333DBB21A4634
:1006E0001E217868FFF7D3FE31217868FFF7B0FE4E
:1006F0000346FB73FB7B23F00703FB73FB7B43F099
:100700000503FB73FB7B1A4631217868FFF7BFFEB8
:100710000C2237217868FFF7BAFE29E07B689B7CC2
:100720001A46284B9B5C1B01DAB27B68DB7C1946BE
:10073000254B5B5C5B00DBB21344DBB21A461D2128
:100740007868FFF7A4FE7B685B7C1A461C4B9B5CB9
:100750001B01DAB27B681B7D19461C4B5B5C9B005E
:10076000DBB21344DBB21A461E217868FFF78FFE16
:10077000042226217868FFF78AFE08221F21786864
:10078000FFF785FE002220217868FFF780FE08220F
:1007900021217868FFF77BFE012241217868FFF76D
:1007A00076FE7B68002283F81721786800F010F845
:1007B00000BF1837BD4680BD0048E801B8400008BA
:1007C000BC400008C4400008D0400008D4400008E5
:1007D00080B582B000AF7860092201217868FFF708
:1007E00056FE7B6801229A7500BF0837BD4680BD62
:1007F00080B582B000AF7860082201217868FFF7E9
:1008000046FE7B6800229A7500BF0837BD4680BD52
:1008100080B582B000AF7860882201217868FFF748
:1008200036FE00BF0837BD4680BD80B582B000AF40
:100830007860FF2212217868FFF729FE00BF083791
:10084000BD4680BD80B586B000AFF8600B467A60CB
:10085000FB72FB68FA7A5A75F868FFF7B5FE8422D6
:100860004D21F868FFF713FEFF222421F868FFF7F7
:100870000EFE01224021F868FFF709FE3F221121F8
:10088000F868FFF704FEF868FFF7CFFFFB7A1A4617
:100890002221F868FFF7FBFD0F21F868FFF7D8FD6C
:1008A0000346FB75FB7D1A460D21F868FFF7EFFD47
:1008B0008D220121F868FFF7EAFDFB68002283F82A
:1008C00017211821F868FFF7C3FD034603F004035E
:1008D000042B04D1FB6803229A75012313E07B6883
:1008E000013B7B607B68002B09D1FB681B681846C5
:1008F00000F067F9F868FFF767FE002303E00120C6
:1009000000F0C9F9DDE718461837BD4680BD80B54F
:1009100084B000AF78607B681B68184600F0C6F9A9
:100920000346002B30D07B6817334FF480720021D0
:10093000184602F0A1FD10217868FFF789FD0346F3
:10094000BB73BB7B1A460D217868FFF7A0FD7B685F
:100950005B7C002B03D17B685B7DFB7305E013217F
:100960007868FFF775FD0346FB737B6803F1170298
:10097000FB7B00217868FFF7B3FD7B68FA7B83F887
:1009800017217868FFF751FF7B6893F817311846F5
:100990001037BD4680BD80B586B000AFF8600B460D
:1009A0007A60FB72FB68FA7A5A75F868FFF70CFEFA
:1009B00087224D21F868FFF76AFD00222421F8689C
:1009C000FFF765FD41224021F868FFF760FDF868F8
:1009D000FFF72BFFF7221121F868FFF758FDFB7A8C
:1009E0001A462221F868FFF752FD0E21F868FFF73A
:1009F0002FFD0346FB75FB7D1A460D21F868FFF7B6
:100A000046FD2221F868FFF723FD0346BB75BA7D3A
:100A1000FB7A9A4204D1FB6802229A7501230EE008
:100A20007B68013B7B607B68002BEAD1FB681B681D
:100A3000184600F0C6F8F868FFF7C6FD0023184610
:100A40001837BD4680BD80B584B000AFF860B9608E
:100A50003B601346FB71FB79BA680021F868FFF729
:100A600078FD8B220121F868FFF711FDFB681B68F8
:100A7000184600F01BF90346002B0BD01221F86832
:100A8000FFF7E6FCF868FFF7D0FEF868FFF7A0FE76
:100A9000012313E03B68013B3B603B68002B09D11D
:100AA000FB681B68184600F08CF8F868FFF78CFDAF
:100AB000002303E0012000F0EEF8D7E718461037D6
:100AC000BD4680BD80B584B000AFF860C7E90023A3
:100AD000FB681B68184600F048F8F968D7E900235E
:100AE000C1E90223FB683A7E1A74FB683A7F5A74A4
:100AF000FB6897F820209A74FB6897F82420DA7432
:100B0000FB6897F828201A75FB6897F82C205A750F
:100B1000F868FFF759FD00BF1037BD4680BD80B5AE
:100B200084B000AFF860B9601346FB71FB6893F8BE
:100B30001731FA799A4203D0FB6893F81731FB71A9
:100B4000FB681733FA791946B86802F00FFDFB7994
:100B5000BA68134400221A70FB68002283F8172138
:100B6000FB7918461037BD4680BD80B582B000AF16
:100B700078600121786800F00DF87B6858687B6820
:100B80001B689BB20122194600F0A7FF00BF08377F
:100B9000BD4680BD80B582B000AF786039607B68AB
:100BA00058697B681B6999B23B68012B0CBF012314
:100BB0000023DBB21A4600F090FF00BF0837BD46A5
:100BC00080BD80B582B000AF786001217868FFF702
:100BD000E1FF7B6858687B681B689BB2002219465E
:100BE00000F07BFF012000F056F87B6858687B68B6
:100BF0001B689BB20122194600F06FFF642000F0D1
:100C00004AF800BF0837BD4680BD80B582B000AF4E
:100C100078600B46FB7000217868FFF7BBFF7B68AC
:100C20009869F91C4FF47A73012201F0D1FB00BFDF
:100C30007B689B69184601F0BEFE0346012BF7D185
:100C400000BF00BF0837BD4680BD80B586B002AF8B
:100C500078600023FB730023BB7300217868FFF7E3
:100C600099FF7B68986907F10E0207F10F014FF4B5
:100C70007A730093012301F0EEFC00BF7B689B694F
:100C8000184601F098FE0346012BF7D1BB7B1846AE
:100C90001037BD4680BD80B582B000AF78607868FF
:100CA00000F078FC00BF0837BD4680BD80B582B03B
:100CB00000AF78607B68DA687B689B689BB21946F6
:100CC000104600F0F3FE0346012B0CBF0123002366
:100CD000DBB218460837BD4680BD000000000000AA
:100CE00080B586B006AF00F0F3FB00F001F900F02C
:100CF000CBF900F079F900F041F9674801F05EFFA7
:100D0000664B674ADA60654B02229A60634B654A1C
:100D10005A61624B10221A61604B614A5A605F4B04
:100D200001221A605D4B604A9A61604B5B4A1A600F
:100D30005F4802F0C1FA0A230593002304930023BD
:100D4000039307230293012301930123009350A3EC
:100D5000D3E900235548FFF7B5FE564802F0ACFA38
:100D6000554B1B68012B0FD14FF4FA6210214F48ED
:100D7000FFF711FE0346514A136000224FF4005161
:100D80004F4800F0AAFE0EE04FF4FA6210214748E7
:100D9000FFF758FD0346494A136001224FF4005102
:100DA000474800F09AFE444B1B68012B30D1454860
:100DB00002F082FA4FF47A7000F0ECFB424802F045
:100DC0007BFA4FF4FA6210213848FFF7E4FD03463E
:100DD0003A4A1360394B1B6819463C4802F006FA40
:100DE0003B493C4802F002FA4FF4FA6310223849BA
:100DF0002E48FFF728FE0346304A13602F4B1B682E
:100E00001946354802F0F2F9344802F055FACAE7BB
:100E1000334802F051FA4FF4487000F0BBFB314800
:100E200002F04AFA2148FFF772FD03461A46234BA7
:100E30001A60224B1B6819462B4802F0D7F91F4B4A
:100E40001B68002B1EDD1D4B1B68DBB21A462049B8
:100E50001648FFF764FE0346002B13D001224FF41F
:100E60000051174800F039FE4FF47A7000F092FB01
:100E700001224FF40051124800F02FFE4FF47A7017
:100E800000F088FB194802F017FA8CE7AFF30080F6
:100E90008050DE1900000000DC000020240100204A
:100EA000000C0140000801408400002040010020A7
:100EB000CC3F0008E83F0008580200205C020020F8
:100EC00000100140084000081440000828400008B5
:100ED00060020020344000084440000858400008E8
:100EE0006C4000087840000890400008A0400008CE
:100EF00080B590B000AF07F11803282200211846F2
:100F000002F0BAFA3B1D00221A605A609A60DA6059
:100F10001A610123BB614FF48033FB6100233B6204
:100F20000123BB6202237B634FF48033BB634FF426
:100F3000E013FB6307F11803184600F0E7FD0346D2
:100F4000002B01D000F032F90F237B600223BB603D
:100F50000023FB604FF480633B6100237B613B1DFA
:100F60000221184601F054F80346002B01D000F08E
:100F70001DF900BF4037BD4680BD000080B500AF01
:100F8000174B184A1A60164B4FF482725A60144B72
:100F900000229A60124B0022DA60114B00221A6183
:100FA0000F4B00225A610E4B4FF400729A610C4BAA
:100FB0001022DA610A4B00221A62094B00225A629F
:100FC000074B00229A62064B0A22DA62044801F0BB
:100FD0007BF90346002B01D000F0E8F800BF80BD8C
:100FE000840000200030014080B586B000AF07F1DA
:100FF000080300221A605A609A60DA603B460022B9
:101000001A605A601E4B1F4A1A601D4B47225A60D5
:101010001B4B00229A601A4B4FF6FE72DA60184B97
:1010200000221A61164B00225A61154B00229A6168
:10103000134801F073FD0346002B01D000F0B6F811
:101040004FF48053BB6007F1080319460C4801F0C8
:10105000FFFD0346002B01D000F0A8F800233B6001
:1010600000237B603B461946054801F0B1FF03466B
:10107000002B01D000F09AF800BF1837BD4680BDA4
:10108000DC000020002C014080B588B000AF07F1E3
:10109000100300221A605A609A60DA603F4B9B6925
:1010A0003E4A43F0100393613C4B9B6903F01003ED
:1010B000FB60FB68394B9B69384A43F0200393611E
:1010C000364B9B6903F02003BB60BB68334B9B69C5
:1010D000324A43F004039361304B9B6903F00403ED
:1010E0007B607B682D4B9B692C4A43F0080393611E
:1010F0002A4B9B6903F008033B603B6800224FF4D6
:101100000051274800F0E9FC00220221254800F0A8
:10111000E4FC01221021234800F0DFFC0122012120
:10112000214800F0DAFC4FF400533B6101237B615E
:101130000023BB610223FB6107F110031946184825
:1011400000F030FB12233B6101237B610023BB6174
:101150000223FB6107F110031946124800F022FB3D
:1011600001233B6101237B610023BB610223FB61FF
:1011700007F1100319460C4800F014FB02233B61F1
:1011800000237B610023BB6107F110031946064869
:1011900000F008FB00BF2037BD4680BD00100240B4
:1011A0000010014000080140000C014080B400AF75
:1011B00072B600BFFEE7000080B485B000AF154BEB
:1011C0009B69144A43F001039361124B9B6903F03E
:1011D0000103BB60BB680F4BDB690E4A43F08053D1
:1011E000D3610C4BDB6903F080537B607B680A4B57
:1011F0005B68FB60FB6823F0E063FB60FB6843F027
:101200000073FB60044AFB68536000BF1437BD469F
:1012100080BC7047001002400000014080B588B0DB
:1012200000AF786007F1100300221A605A609A60DC
:10123000DA607B681B681B4A93422FD11A4B9B696B
:10124000194A43F480539361174B9B6903F480530D
:10125000FB60FB68144B9B69134A43F004039361E2
:10126000114B9B6903F00403BB60BB68A0233B6187
:1012700002237B610323FB6107F1100319460B482E
:1012800000F090FA40233B6100237B610023BB61A7
:1012900007F110031946054800F084FA00BF203713
:1012A000BD4680BD003001400010024000080140F2
:1012B00080B485B000AF78607B681B68094A9342B0
:1012C0000BD1094B9B69084A43F400639361064BB9
:1012D0009B6903F40063FB60FB6800BF1437BD46E5
:1012E00080BC7047002C01400010024080B400AF69
:1012F000FEE780B400AFFEE780B400AFFEE780B445
:1013000000AFFEE780B400AFFEE780B400AF00BFDF
:10131000BD4680BC704780B400AF00BFBD4680BCF6
:10132000704780B400AF00BFBD4680BC704780B539
:1013300000AF00F013F900BF80BD80B586B000AFEC
:10134000F860B9607A6000237B610AE0AFF3008047
:101350000146BB685A1CBA60CAB21A707B69013375
:101360007B617A697B689A42F0DB7B6818461837A4
:10137000BD4680BD80B586B000AFF860B9607A60C8
:1013800000237B6109E0BB685A1CBA601B781846D1
:10139000AFF300807B6901337B617A697B689A4295
:1013A000F1DB7B6818461837BD4680BD80B483B03A
:1013B00000AF78604FF0FF3318460C37BD4680BC55
:1013C000704780B483B000AF786039603B684FF4F9
:1013D00000525A60002318460C37BD4680BC704747
:1013E00080B483B000AF7860012318460C37BD4647
:1013F00080BC704780B485B000AFF860B9607A6097
:10140000002318461437BD4680BC704780B586B0AF
:1014100000AF7860144A154BD31A7B617B693B613E
:10142000134B1B68002B02D1114B124A1A60104B50
:101430001A687B6813443A699A4207D202F06AF844
:1014400003460C221A604FF0FF3309E0084B1B687B
:10145000FB60074B1A687B681344054A1360FB68FE
:1014600018461837BD4680BD00500020000400001B
:1014700070020020C803002080B400AF00BFBD464A
:1014800080BC7047FFF7F8FF0B480C490C4A00235B
:1014900002E0D458C4500433C4188C42F9D3094A2A
:1014A000094C002301E013600432A242FBD302F096
:1014B00037F8FFF715FC7047000000206800002097
:1014C0004041000868000020C4030020FEE700003F
:1014D00080B500AF084B1B68074A43F01003136048
:1014E000032000F02BF90F2000F008F8FFF764FE4E
:1014F0000023184680BD00BF0020024080B582B0A6
:1015000000AF7860124B1A68124B1B7819464FF4E3
:101510007A73B3FBF1F3B2FBF3F3184600F035F93D
:101520000346002B01D001230EE07B680F2B0AD865
:10153000002279684FF0FF3000F00BF9064A7B6813
:101540001360002300E0012318460837BD4680BD24
:1015500000000020080000200400002080B400AF3C
:10156000054B1B781A46054B1B681344034A13604E
:1015700000BFBD4680BC70470800002074020020F8
:1015800080B400AF024B1B681846BD4680BC704754
:101590007402002080B584B000AF7860FFF7F0FFE0
:1015A000B8607B68FB60FB68B3F1FF3F05D00A4B76
:1015B0001B781A46FB681344FB6000BFFFF7E0FF8F
:1015C0000246BB68D31AFA689A42F7D800BF00BF38
:1015D0001037BD4680BD00BF0800002080B485B034
:1015E00000AF78607B6803F00703FB600C4BDB689F
:1015F000BB60BA684FF6FF031340BB60FB681A027A
:10160000BB68134343F0BF6343F40033BB60044A39
:10161000BB68D36000BF1437BD4680BC704700BFB5
:1016200000ED00E080B400AF044BDB681B0A03F060
:1016300007031846BD4680BC704700BF00ED00E0C0
:1016400080B483B000AF03463960FB7197F907306F
:10165000002B0ADB3B68DAB20C4997F9073012011C
:10166000D2B20B4483F800230AE03B68DAB208499F
:10167000FB7903F00F03043B1201D2B20B441A763C
:1016800000BF0C37BD4680BC704700BF00E100E0E2
:1016900000ED00E080B489B000AFF860B9607A6016
:1016A000FB6803F00703FB61FB69C3F10703042B2D
:1016B00028BF0423BB61FB690433062B02D9FB69F5
:1016C000033B00E000237B614FF0FF32BB6902FA6D
:1016D00003F3DA43BB681A407B699A404FF0FF314D
:1016E0007B6901FA03F3D9437B680B401343184627
:1016F0002437BD4680BC704780B582B000AF7860AB
:101700007B68013BB3F1807F01D301230FE00A4ADC
:101710007B68013B53600F214FF0FF30FFF790FFD4
:10172000054B00229A60044B07221A6000231846DA
:101730000837BD4680BD00BF10E000E080B582B034
:1017400000AF78607868FFF749FF00BF0837BD46F3
:1017500080BD80B586B000AF0346B9607A60FB7388
:1017600000237B61FFF75EFF78617A68B96878696A
:10177000FFF790FF024697F90F3011461846FFF722
:101780005FFF00BF1837BD4680BD80B582B000AF97
:1017900078607868FFF7B0FF034618460837BD4603
:1017A00080BD000080B48BB000AF7860396000234A
:1017B0007B6200233B6269E101227B6A02FA03F348
:1017C000FB613B681B68FA691340BB61BA69FB693E
:1017D0009A4240F058813B685B689A4A93425ED0D7
:1017E000984A934275D8984A934258D0964A934261
:1017F0006FD8964A934252D0944A934269D8944AF9
:1018000093424CD0924A934263D8924A934246D034
:10181000904A93425DD8122B2AD8122B59D801A294
:1018200052F823F09F180008791800088B18000858
:10183000CD180008D3180008D3180008D3180008E2
:10184000D3180008D3180008D3180008D3180008CC
:10185000D3180008D3180008D3180008D3180008BC
:10186000D3180008D318000881180008951800083C
:10187000794A934213D02CE03B68DB683B6229E055
:101880003B68DB6804333B6224E03B68DB68083379
:101890003B621FE03B68DB680C333B621AE03B684D
:1018A0009B68002B02D104233B6213E03B689B68DA
:1018B000012B05D108233B627B68FA691A6109E0B4
:1018C00008233B627B68FA695A6103E000233B62AC
:1018D00000E000BFBB69FF2B01D87B6801E07B689B
:1018E00004337B61BB69FF2B02D87B6A9B0002E05B
:1018F0007B6A083B9B003B617B691A680F213B694F
:1019000001FA03F3DB431A40396A3B6901FA03F336
:101910001A437B691A603B685B6803F08053002BB5
:1019200000F0B1804D4B9B694C4A43F00103936139
:101930004A4B9B6903F00103BB60BB68484A7B6A62
:101940009B08023352F82330FB607B6A03F00303E9
:101950009B000F2202FA03F3DB43FA681340FB609B
:101960007B68404A934213D07B683F4A93420DD034
:101970007B683E4A934207D07B683D4A934201D13F
:10198000032306E0042304E0022302E0012300E035
:1019900000237A6A02F0030292009340FA6813432C
:1019A000FB602F497B6A9B080233FA6841F82320C9
:1019B0003B685B6803F48013002B06D02D4B9A68BC
:1019C0002C49BB6913438B6006E02A4B9A68BB69BC
:1019D000DB43284913408B603B685B6803F40013CA
:1019E000002B06D0234BDA682249BB691343CB6036
:1019F00006E0204BDA68BB69DB431E491340CB602D
:101A00003B685B6803F40033002B06D0194B5A681F
:101A10001849BB6913434B6006E0164B5A68BB6913
:101A2000DB43144913404B603B685B6803F480332D
:101A3000002B21D00F4B1A680E49BB6913430B6072
:101A400021E000BF00003210000031100000221021
:101A500000002110000012100000111000100240C0
:101A60000000014000080140000C0140001001404E
:101A700000140140000401400B4B1A68BB69DB43B2
:101A8000094913400B607B6A01337B623B681A682B
:101A90007B6A22FA03F3002B7FF48EAE00BF00BFF7
:101AA0002C37BD4680BC70470004014080B485B02F
:101AB00000AF78600B467B807B689A687B88134018
:101AC000002B02D00123FB7301E00023FB73FB7B9F
:101AD00018461437BD4680BC704780B483B000AF51
:101AE00078600B467B8013467B707B78002B03D09D
:101AF0007A887B681A6103E07B881A047B681A6124
:101B000000BF0C37BD4680BC7047000080B586B072
:101B100000AF78607B68002B01D1012372E27B6803
:101B20001B6803F00103002B00F08780924B5B6879
:101B300003F00C03042B0CD08F4B5B6803F00C03F9
:101B4000082B12D18C4B5B6803F48033B3F5803FD4
:101B50000BD1894B1B6803F40033002B6CD07B68DE
:101B60005B68002B68D101234CE27B685B68B3F5AE
:101B7000803F06D1804B1B687F4A43F4803313605B
:101B80002EE07B685B68002B0CD17B4B1B687A4A8C
:101B900023F480331360784B1B68774A23F4802347
:101BA00013601DE07B685B68B3F5A02F0CD1724B0E
:101BB0001B68714A43F4802313606F4B1B686E4AA5
:101BC00043F4803313600BE06B4B1B686A4A23F4C9
:101BD00080331360684B1B68674A23F480231360CB
:101BE0007B685B68002B13D0FFF7CAFC386108E004
:101BF000FFF7C6FC02463B69D31A642B01D90323C5
:101C000000E25D4B1B6803F40033002BF0D014E0BE
:101C1000FFF7B6FC386108E0FFF7B2FC02463B690B
:101C2000D31A642B01D90323ECE1534B1B6803F453
:101C30000033002BF0D100E000BF7B681B6803F08D
:101C40000203002B63D04C4B5B6803F00C03002BAA
:101C50000BD0494B5B6803F00C03082B1CD1464B9F
:101C60005B6803F48033002B16D1434B1B6803F0F1
:101C70000203002B05D07B681B69012B01D00123D7
:101C8000C0E13D4B1B6823F0F8027B685B69DB0019
:101C9000394913430B603AE07B681B69002B20D065
:101CA000364B01221A60FFF76BFC386108E0FFF742
:101CB00067FC02463B69D31A022B01D90323A1E139
:101CC0002D4B1B6803F00203002BF0D02A4B1B683E
:101CD00023F0F8027B685B69DB00274913430B6044
:101CE00015E0264B00221A60FFF74AFC386108E035
:101CF000FFF746FC02463B69D31A022B01D90323A6
:101D000080E11D4B1B6803F00203002BF0D17B68C0
:101D10001B6803F00803002B3AD07B689B69002BFB
:101D200019D0174B01221A60FFF72AFC386108E02E
:101D3000FFF726FC02463B69D31A022B01D9032385
:101D400060E10D4B5B6A03F00203002BF0D0012031
:101D500000F09CFA1CE00A4B00221A60FFF710FC0E
:101D600038610FE0FFF70CFC02463B69D31A022BE7
:101D700008D9032346E100BF0010024000004242A0
:101D800080044242924B5B6A03F00203002BE9D1CC
:101D90007B681B6803F00403002B00F0A68000237F
:101DA000FB758B4BDB6903F08053002B0DD1884B07
:101DB000DB69874A43F08053D361854BDB6903F0CD
:101DC0008053BB60BB680123FB75824B1B6803F427
:101DD0008073002B18D17F4B1B687E4A43F48073BD
:101DE0001360FFF7CDFB386108E0FFF7C9FB02463F
:101DF0003B69D31A642B01D9032303E1754B1B689C
:101E000003F48073002BF0D07B68DB68012B06D1D4
:101E10006F4B1B6A6E4A43F0010313622DE07B682F
:101E2000DB68002B0CD16A4B1B6A694A23F0010363
:101E30001362674B1B6A664A23F0040313621CE0BB
:101E40007B68DB68052B0CD1614B1B6A604A43F051
:101E5000040313625E4B1B6A5D4A43F00103136285
:101E60000BE05B4B1B6A5A4A23F001031362584B89
:101E70001B6A574A23F0040313627B68DB68002B5C
:101E800015D0FFF77DFB38610AE0FFF779FB0246CA
:101E90003B69D31A41F28832934201D90323B1E05E
:101EA0004B4B1B6A03F00203002BEED014E0FFF74C
:101EB00067FB38610AE0FFF763FB02463B69D31A10
:101EC00041F28832934201D903239BE0404B1B6AC5
:101ED00003F00203002BEED1FB7D012B05D13C4B1F
:101EE000DB693B4A23F08053D3617B68DB69002BBD
:101EF00000F08780364B5B6803F00C03082B61D041
:101F00007B68DB69022B46D1334B00221A60FFF756
:101F100037FB386108E0FFF733FB02463B69D31A11
:101F2000022B01D903236DE0294B1B6803F00073DA
:101F3000002BF0D17B681B6AB3F5803F08D1244B9E
:101F40005B6823F400327B689B68214913434B6034
:101F50001F4B5B6823F474127B68196A7B685B6AA9
:101F60000B431B4913434B601B4B01221A60FFF7C5
:101F700007FB386108E0FFF703FB02463B69D31A11
:101F8000022B01D903233DE0114B1B6803F00073C2
:101F9000002BF0D035E0104B00221A60FFF7F0FA6A
:101FA000386108E0FFF7ECFA02463B69D31A022BCE
:101FB00001D9032326E0064B1B6803F00073002BB6
:101FC000F0D11EE07B68DB69012B07D1012319E00A
:101FD0000010024000700040600042420B4B5B6802
:101FE000FB60FB6803F480327B681B6A9A4206D16F
:101FF000FB6803F470127B685B6A9A4201D001238C
:1020000000E0002318461837BD4680BD001002408E
:1020100080B584B000AF786039607B68002B01D157
:102020000123D0E06A4B1B6803F007033A689A4229
:1020300010D9674B1B6823F0070265493B681343BF
:102040000B60634B1B6803F007033A689A4201D0A8
:102050000123B8E07B681B6803F00203002B20D04B
:102060007B681B6803F00403002B05D0594B5B68A9
:10207000584A43F4E06353607B681B6803F008032D
:10208000002B05D0534B5B68524A43F460535360B6
:10209000504B5B6823F0F0027B689B684D4913430B
:1020A0004B607B681B6803F00103002B40D07B680A
:1020B0005B68012B07D1474B1B6803F40033002BEF
:1020C00015D101237FE07B685B68022B07D1414B70
:1020D0001B6803F00073002B09D1012373E03D4B13
:1020E0001B6803F00203002B01D101236BE0394B85
:1020F0005B6823F003027B685B68364913434B60DF
:10210000FFF73EFAF8600AE0FFF73AFA0246FB688A
:10211000D31A41F28832934201D9032353E02D4B65
:102120005B6803F00C027B685B689B009A42EBD112
:10213000274B1B6803F007033A689A4210D2244BDE
:102140001B6823F0070222493B6813430B60204BB6
:102150001B6803F007033A689A4201D0012332E07A
:102160007B681B6803F00403002B08D0194B5B68E5
:1021700023F4E0627B68DB68164913434B607B689D
:102180001B6803F00803002B09D0124B5B6823F493
:1021900060527B681B69DB000E4913434B6000F003
:1021A00021F802460B4B5B681B0903F00F030A4939
:1021B000CB5C22FA03F3094A1360094B1B681846EB
:1021C000FFF79CF9002318461037BD4680BD00BFBD
:1021D0000020024000100240D8400008000000200B
:1021E0000400002080B487B000AF0023FB60002310
:1021F000BB6000237B6100237B6000233B611E4B9F
:102200005B68FB60FB6803F00C03042B02D0082B17
:1022100003D027E0194B3B6127E0FB689B0C03F0E0
:102220000F03174AD35C7B60FB6803F48033002BF9
:1022300010D0114B5B685B0C03F00103114AD35CB7
:10224000BB607B680D4A03FB02F2BB68B2FBF3F391
:102250007B6104E07B680C4A02FB03F37B617B69D2
:102260003B6102E0054B3B6100BF3B6918461C37F0
:10227000BD4680BC704700BF0010024000127A00CB
:10228000E8400008F840000800093D0080B485B02F
:1022900000AF78600A4B1B680A4AA2FB03235B0A63
:1022A0007A6802FB03F3FB6000BFFB685A1EFA600A
:1022B000002BF9D100BF00BF1437BD4680BC70476A
:1022C00000000020D34D621080B582B000AF78606E
:1022D0007B68002B01D1012376E07B685B6A002BD1
:1022E00008D17B685B68B3F5827F09D07B680022E8
:1022F000DA6105E07B6800221A617B6800225A617E
:102300007B6800229A627B6893F85130DBB2002B25
:1023100006D17B68002283F850207868FEF77EFFA4
:102320007B68022283F851207B681B681A687B68EF
:102330001B6822F040021A607B685B6803F48272BB
:102340007B689B6803F404431A437B68DB6803F4EF
:1023500000631A437B681B6903F002031A437B681E
:102360005B6903F001031A437B689B6903F4007304
:102370001A437B68DB6903F038031A437B681B6AE6
:1023800003F0800342EA03017B689B6A03F4005276
:102390007B681B680A431A607B689B691A0C7B6820
:1023A0001B6802F004025A607B681B68DA697B686C
:1023B0001B6822F40062DA617B6800225A657B6840
:1023C000012283F85120002318460837BD4680BDFE
:1023D00080B588B000AFF860B9603B601346FB8001
:1023E0000023FB77FB6893F85030012B01D10223C7
:1023F0002DE1FB68012283F85020FFF7C1F8B86196
:10240000FB88FB82FB6893F85130DBB2012B02D0D2
:102410000223FB7716E1BB68002B02D0FB88002B60
:1024200002D10123FB770DE1FB68032283F85120E1
:10243000FB6800225A65FB68BA681A63FB68FA8871
:102440009A86FB68FA88DA86FB6800229A63FB6842
:1024500000229A87FB680022DA87FB6800225A6410
:10246000FB6800221A64FB689B68B3F5004F0FD12C
:10247000FB681B681A68FB681B6822F040021A6040
:10248000FB681B681A68FB681B6842F480421A608C
:10249000FB681B681B6803F04003402B07D0FB68F8
:1024A0001B681A68FB681B6842F040021A60FB68F0
:1024B000DB68B3F5006F4FD1FB685B68002B02D07F
:1024C000FB8A012B42D1FB681B6B1A88FB681B68D7
:1024D000DA60FB681B6B9A1CFB681A63FB68DB8E77
:1024E0009BB2013B9AB2FB68DA862FE0FB681B685F
:1024F0009B6803F00203022B12D1FB681B6B1A8846
:10250000FB681B68DA60FB681B6B9A1CFB681A632C
:10251000FB68DB8E9BB2013B9AB2FB68DA8615E062
:10252000FFF72EF80246BB69D31A3A689A4203D8DD
:102530003B68B3F1FF3F02D13B68002B06D1032378
:10254000FB77FB68012283F851207BE0FB68DB8E80
:102550009BB2002BCAD150E0FB685B68002B02D015
:10256000FB8A012B44D1FB681A6BFB681B680C3398
:1025700012781A70FB681B6B5A1CFB681A63FB68A5
:10258000DB8E9BB2013B9AB2FB68DA8630E0FB68D7
:102590001B689B6803F00203022B13D1FB681A6BC4
:1025A000FB681B680C3312781A70FB681B6B5A1C93
:1025B000FB681A63FB68DB8E9BB2013B9AB2FB6837
:1025C000DA8615E0FEF7DCFF0246BB69D31A3A68EB
:1025D0009A4203D83B68B3F1FF3F02D13B68002B1E
:1025E00006D10323FB77FB68012283F8512029E001
:1025F000FB68DB8E9BB2002BC9D1BA693968F868D9
:1026000000F06EFA0346002B02D0FB6820225A65C8
:10261000FB689B68002B0AD100233B61FB681B68A9
:10262000DB683B61FB681B689B683B613B69FB683F
:102630005B6D002B02D00123FB7703E0FB680122D6
:1026400083F85120FB68002283F85020FB7F184656
:102650002037BD4680BD80B58CB000AFF860B96052
:102660007A607B800123FB62002387F82B30FB68B4
:1026700093F85030012B01D1022398E1FB6801222D
:1026800083F85020FEF77CFF7862FB6893F85130A6
:1026900087F82330FB685B68FB617B887B8397F856
:1026A0002330012B0FD0FB69B3F5827F07D1FB6884
:1026B0009B68002B03D197F82330042B03D002230F
:1026C00087F82B306DE1BB68002B05D07B68002BB1
:1026D00002D07B88002B03D1012387F82B3060E1E7
:1026E000FB6893F85130DBB2042B03D0FB68052262
:1026F00083F85120FB6800225A65FB687A689A6368
:10270000FB687A88DA87FB687A889A87FB68BA68F8
:102710001A63FB687A88DA86FB687A889A86FB688F
:1027200000221A64FB6800225A64FB681B681B685D
:1027300003F04003402B07D0FB681B681A68FB6856
:102740001B6842F040021A60FB68DB68B3F5006F5B
:102750007CD1FB685B68002B02D07B8B012B6AD19C
:10276000FB681B6B1A88FB681B68DA60FB681B6BD5
:102770009A1CFB681A63FB68DB8E9BB2013B9AB222
:10278000FB68DA8657E0FB681B689B6803F002036E
:10279000022B1BD1FB68DB8E9BB2002B16D0FB6A91
:1027A000012B13D1FB681B6B1A88FB681B68DA606E
:1027B000FB681B6B9A1CFB681A63FB68DB8E9BB281
:1027C000013B9AB2FB68DA860023FB62FB681B6858
:1027D0009B6803F00103012B19D1FB68DB8F9BB2CF
:1027E000002B14D0FB681B68DA68FB689B6B92B205
:1027F0001A80FB689B6B9A1CFB689A63FB68DB8FF3
:102800009BB2013B9AB2FB68DA870123FB62FEF7B9
:10281000B7FE02467B6AD31ABA6B9A420BD8BB6BDF
:10282000B3F1FF3F07D0032387F82B30FB68012269
:1028300083F85120B5E0FB68DB8E9BB2002BA2D160
:10284000FB68DB8F9BB2002B9DD180E0FB685B684F
:10285000002B02D07B8B012B6FD1FB681A6BFB68BE
:102860001B680C3312781A70FB681B6B5A1CFB68D0
:102870001A63FB68DB8E9BB2013B9AB2FB68DA8677
:102880005BE0FB681B689B6803F00203022B1CD112
:10289000FB68DB8E9BB2002B17D0FB6A012B14D197
:1028A000FB681A6BFB681B680C3312781A70FB68A4
:1028B0001B6B5A1CFB681A63FB68DB8E9BB2013BE7
:1028C0009AB2FB68DA860023FB62FB681B689B6890
:1028D00003F00103012B19D1FB68DB8F9BB2002BA6
:1028E00014D0FB681B68DA68FB689B6BD2B21A7065
:1028F000FB689B6B5A1CFB689A63FB68DB8F9BB27F
:10290000013B9AB2FB68DA870123FB62FEF738FECF
:1029100002467B6AD31ABA6B9A4203D8BB6BB3F1F7
:10292000FF3F02D1BB6B002B07D1032387F82B306D
:10293000FB68012283F8512033E0FB68DB8E9BB2F9
:10294000002B9ED1FB68DB8F9BB2002B99D17A6A5A
:10295000B96BF86800F0C4F80346002B06D00123D9
:1029600087F82B30FB6820225A651AE0FB689B68C9
:10297000002B0AD100237B61FB681B68DB687B614D
:10298000FB681B689B687B617B69FB685B6D002B48
:1029900003D0012387F82B3003E0FB68012283F882
:1029A0005120FB68002283F8502097F82B301846FE
:1029B0003037BD4680BD80B483B000AF78607B689F
:1029C00093F85130DBB218460C37BD4680BC7047D7
:1029D00080B588B000AFF860B9603B601346FB710A
:1029E000FEF7CEFD0246BB6A9B1A3A681344FB61B0
:1029F000FEF7C6FDB861394B1B685B011B0DFA6918
:102A000002FB03F37B6154E03B68B3F1FF3F50D01E
:102A1000FEF7B6FD0246BB69D31AFA699A4202D99B
:102A2000FB69002B3DD1FB681B685A68FB681B687B
:102A300022F0E0025A60FB685B68B3F5827F11D137
:102A4000FB689B68B3F5004F04D0FB689B68B3F547
:102A5000806F07D1FB681B681A68FB681B6822F04F
:102A600040021A60FB689B6AB3F5005F0FD1FB68F8
:102A70001B681A68FB681B6822F400521A60FB6826
:102A80001B681A68FB681B6842F400521A60FB68F6
:102A9000012283F85120FB68002283F85020032391
:102AA00017E07B69002B01D10023FB617B69013BAF
:102AB0007B61FB681B689A68BB681340BA689A42DE
:102AC0000CBF01230023DBB21A46FB799A429BD14B
:102AD000002318462037BD4680BD00BF00000020FF
:102AE00080B586B002AFF860B9607A607B68009309
:102AF000BB6800228021F868FFF76AFF0346002BBD
:102B000007D0FB685B6D43F02002FB685A65032326
:102B100000E0002318461037BD4680BD80B582B066
:102B200000AF78607B68002B01D1012341E07B6816
:102B300093F83D30DBB2002B06D17B68002283F88E
:102B40003C207868FEF7B4FB7B68022283F83D20C6
:102B50007B681A687B6804331946104600F040F918
:102B60007B68012283F846207B68012283F83E209F
:102B70007B68012283F83F207B68012283F8402094
:102B80007B68012283F841207B68012283F8422080
:102B90007B68012283F843207B68012283F844206C
:102BA0007B68012283F845207B68012283F83D2061
:102BB000002318460837BD4680BD000080B485B0AC
:102BC00000AF78607B6893F83D30DBB2012B01D019
:102BD000012332E07B68022283F83D207B681B687A
:102BE000184A93420ED07B681B68B3F1804F09D01E
:102BF0007B681B68144A934204D07B681B68134AA5
:102C0000934211D17B681B689B6803F00703FB604C
:102C1000FB68062B10D07B681B681A687B681B68F2
:102C200042F001021A6007E07B681B681A687B6843
:102C30001B6842F001021A60002318461437BD4693
:102C400080BC7047002C0140000400400008004098
:102C500080B584B000AF786039600023FB737B6877
:102C600093F83C30012B01D10223B4E07B680122B0
:102C700083F83C207B68022283F83D207B681B6838
:102C80009B68BB60BB6823F07703BB60BB6823F421
:102C90007F43BB607B681B68BA689A603B681B68AF
:102CA000B3F5005F3ED0B3F5005F00F28780B3F567
:102CB000805F00F08680B3F5805F7FD8702B1AD0DC
:102CC000702B7BD8602B50D0602B77D8502B3CD00A
:102CD000502B73D8402B58D0402B6FD8302B64D05A
:102CE000302B6BD8202B60D0202B67D8002B5CD0EA
:102CF000102B5AD062E07B6818683B6899683B6883
:102D00005A683B68DB6800F044F97B681B689B6885
:102D1000BB60BB6843F07703BB607B681B68BA6825
:102D20009A604FE07B6818683B6899683B685A680E
:102D30003B68DB6800F02DF97B681B689A687B684C
:102D40001B6842F480429A603CE07B6818683B68EC
:102D500059683B68DB681A4600F0A4F87B681B687A
:102D60005021184600F0FBF82CE07B6818683B689F
:102D700059683B68DB681A4600F0C2F87B681B683C
:102D80006021184600F0EBF81CE07B6818683B688F
:102D900059683B68DB681A4600F084F87B681B685A
:102DA0004021184600F0DBF80CE07B681A683B68AD
:102DB0001B681946104600F0D2F803E00123FB73AC
:102DC00000E000BF7B68012283F83D207B68002281
:102DD00083F83C20FB7B18461037BD4680BD0000C1
:102DE00080B485B000AF786039607B681B68FB6099
:102DF0007B68294A93420BD07B68B3F1804F07D0A0
:102E00007B68264A934203D07B68254A934208D1C7
:102E1000FB6823F07003FB603B685B68FA68134350
:102E2000FB607B681C4A93420BD07B68B3F1804FF8
:102E300007D07B68194A934203D07B68184A9342B3
:102E400008D1FB6823F44073FB603B68DB68FA68D9
:102E50001343FB60FB6823F080023B685B6913430C
:102E6000FB607B68FA681A603B689A687B68DA6284
:102E70003B681A687B689A627B68074A934203D171
:102E80003B681A697B681A637B6801225A6100BF3C
:102E90001437BD4680BC7047002C01400004004040
:102EA0000008004080B487B000AFF860B9607A6075
:102EB000FB681B6A7B61FB681B6A23F00102FB68ED
:102EC0001A62FB689B693B613B6923F0F0033B613D
:102ED0007B681B013A6913433B617B6923F00A035A
:102EE0007B617A69BB6813437B61FB683A699A61CD
:102EF000FB687A691A6200BF1C37BD4680BC704708
:102F000080B487B000AFF860B9607A60FB681B6A74
:102F10007B61FB681B6A23F01002FB681A62FB6886
:102F20009B693B613B6923F470433B617B681B03F6
:102F30003A6913433B617B6923F0A0037B61BB6863
:102F40001B017A6913437B61FB683A699A61FB68EC
:102F50007A691A6200BF1C37BD4680BC704780B4D6
:102F600085B000AF786039607B689B68FB60FB6868
:102F700023F07003FB603A68FB68134343F00703D8
:102F8000FB607B68FA689A6000BF1437BD4680BC5E
:102F9000704780B487B000AFF860B9607A603B607A
:102FA000FB689B687B617B6923F47F437B613B68A3
:102FB0001A027B681A43BB6813437A6913437B6127
:102FC000FB687A699A6000BF1C37BD4680BC7047B9
:102FD00080B485B000AF786039607B6893F83C308E
:102FE000012B01D1022346E07B68012283F83C20BB
:102FF0007B68022283F83D207B681B685B68FB606E
:103000007B681B689B68BB60FB6823F07003FB60F8
:103010003B681B68FA681343FB607B681B68FA68AF
:103020005A607B681B68164A93420ED07B681B6807
:10303000B3F1804F09D07B681B68124A934204D0D9
:103040007B681B68104A93420CD1BB6823F0800355
:10305000BB603B685B68BA681343BB607B681B68F6
:10306000BA689A607B68012283F83D207B68002261
:1030700083F83C20002318461437BD4680BC7047B7
:10308000002C01400004004000080040002310B55F
:103090000446C0E90033C0E904338360818143669C
:1030A000C2818361194608225C3000F0E5F9054BC6
:1030B00024626362044BA362044BE362044B236308
:1030C00010BD00BFC9320008EB32000823330008EE
:1030D00047330008024A0349034800F069B800BFBB
:1030E0000C000020213E00081800002041680C4B15
:1030F00010B59942044601D000F092FEA168094B38
:10310000994202D0204600F08BFEE168064B9942BE
:1031100004D02046BDE8104000F082BE10BD00BFC4
:1031200078020020E00200204803002010B50B4B7D
:103130000B4C0C4A20461A6004210022FFF7A6FF20
:1031400004F1680001220921FFF7A0FF04F1D0007B
:103150000222BDE810401221FFF798BFB003002003
:1031600078020020D5300008014800F0FDB900BF0A
:10317000B9030020014800F0F8B900BFB9030020EE
:1031800010B50446FFF7F0FF236A1BB1BDE81040FD
:10319000FFF7F0BF044B2362044B1B68002BF5D1F3
:1031A000FFF7C4FFF2E700BFED300008B0030020D6
:1031B0002DE9F8430746884614460026D4E90195D0
:1031C000B9F1010905D52468002CF7D13046BDE8D6
:1031D000F883AB89012B07D9B5F90E30013303D041
:1031E00029463846C04706436835E9E70FB407B5B6
:1031F000064904AB086853F8042B8168019300F07A
:10320000DFFA03B05DF804EB04B0704764000020FF
:10321000036A70B505460E4684680BB9FFF7B0FF28
:10322000636EDB0705D4A389980502D4A06D00F076
:103230009BF9A389190713D523698BB1013EA368B4
:1032400016F8011F013BA360E9B9002B2EDA2246D4
:103250000A21284600F07BF8013007D00A2507E054
:103260002146284600F0B0F80028E7D04FF0FF359F
:10327000636EDA0705D4A3899B0502D4A06D00F024
:1032800074F9284670BD002B04DAA2699A4206DC64
:103290000A2904D023685A1C22601970CFE72246FD
:1032A000284600F054F80130C9D1DFE70A25236829
:1032B0005A1C22601D70DBE7024B01461868FFF7BD
:1032C000A7BF00BF6400002010B50C46B1F90E1076
:1032D00000F0FCF80028ABBF636DA3891B1823F432
:1032E0008053ACBF6365A38110BD2DE9F0411F463B
:1032F0008B890546DB050C46164605D502230022C0
:10330000B1F90E1000F0D0F8A389324623F48053AF
:10331000A38128463B46B4F90E10BDE8F04100F009
:10332000E7B810B50C46B1F90E1000F0BDF8431C1B
:10333000A38915BF606523F4805343F48053A381B0
:1033400018BFA38110BDB1F90E1000F09DB8F8B5FB
:103350000E461446054618B1036A0BB9FFF710FF75
:10336000A369A360A3891A0725D523691BB3236822
:103370002269F6B2981A63693746834204DC214613
:10338000284600F04DFDE0B9A368013BA360236827
:103390005A1C22601E706269431C9A4204D0A389A1
:1033A000DB0706D50A2E04D12146284600F038FD59
:1033B00038B93846F8BD2146284600F005F80028FF
:1033C000D5D04FF0FF37F4E738B52A4B05461868DB
:1033D0000C4618B1036A0BB9FFF7D2FEA389B4F902
:1033E0000C20180722D4D90607D409232B6042F0F9
:1033F00040034FF0FF30A38134E0580712D5616BD2
:1034000041B104F14403994202D0284600F0BCF8CF
:1034100000236363A38923F02403A3810023636053
:1034200023692360A38943F00803A38123694BB96F
:10343000A38903F42073B3F5007F03D02146284607
:1034400000F03BFDA089B4F90C2010F001030AD074
:103450000023A36063695B42A361236943B910F051
:103460008000C4D138BD810758BF6369A360F4E709
:103470000020F7E76400002003460244934200D195
:10348000704703F8011BF9E738B50023054D0446E2
:1034900008462B60FDF78AFF431C02D12B6803B15D
:1034A000236038BDB403002038B5044608461146F1
:1034B0000022054D2A601A46FDF79CFF431C02D1ED
:1034C0002B6803B1236038BDB403002038B504462F
:1034D000084611460022054D2A601A46FDF72DFFC9
:1034E000431C02D12B6803B1236038BDB403002014
:1034F00038B50446084611460022054D2A601A4692
:10350000FDF738FF431C02D12B6803B1236038BD9F
:10351000B4030020014B1868704700BF640000200E
:1035200070B500260C4D0D4C641BA410A64209D1A9
:1035300000F040FD00260A4D0A4C641BA410A64270
:1035400005D170BD55F8043B98470136EEE755F8B4
:10355000043B98470136F2E738410008384100083B
:10356000384100083C410008704770470A449142C6
:1035700000F1FF3300D1704710B511F8014B9142B3
:1035800003F8014FF9D110BD38B50546002940D0E8
:1035900051F8043C0C1F002BB8BFE41800F0DCF815
:1035A0001C4A136833B9636014602846BDE838408C
:1035B00000F0D8B8A34208D9206821188B4201BF77
:1035C00019685B6809182160EDE71A465B680BB162
:1035D000A342FAD911685018A0420BD120680144C7
:1035E000501883421160E0D118685B68084410608D
:1035F0005360DAE702D90C232B60D6E72068211844
:103600008B4201BF19685B680918216063605460D0
:10361000CBE738BDBC03002070B50E4E0C463168B8
:10362000054611B900F0A8FC30602146284600F09C
:10363000A3FC431C0AD0C41C24F00304A04207D0FE
:10364000211A284600F098FC013001D14FF0FF34D8
:10365000204670BDC00300202DE9F843CD1C25F0A5
:10366000030508350C2D38BF0C25002D074601DB5E
:10367000A94205D90C2300263B603046BDE8F883FB
:10368000DFF8D08000F068F8D8F800301C465CBB4A
:1036900029463846FFF7C0FF431C044655D1D8F8E9
:1036A00000402646002E45D1002C48D023683146E4
:1036B000384604EB030900F05FFC81453FD12168E7
:1036C00038466D1A2946FFF7A7FF013037D0236827
:1036D0002B442360D8F80030002B38D05A68A2421F
:1036E0002BD100225A600FE02268521B1FD40B2AF4
:1036F00017D96119A342256018BF5960636808BFD4
:10370000C8F8001062514B60384604F10B0600F017
:1037100029F826F00706231DF21AAED09B1BA350F2
:10372000ABE7A3426268DDD1C8F80020ECE723468E
:103730006468ACE734467668B4E71346CCE70C23FC
:1037400038463B6000F00EF897E72560DCE75B60E9
:10375000FFDE00BFBC0300200148FFF705BF00BF2C
:10376000B80300200148FFF700BF00BFB8030020E6
:10377000936810B4013B002B936007DA9469A3426D
:1037800001DB0A2902D110BCFFF7E1BD1368581C08
:1037900010601970084610BC7047F8B506460F4611
:1037A0001446D518AC4201D1002007E03A46304615
:1037B00014F8011BFFF7DCFF431CF3D1F8BD000038
:1037C0002DE9F04F0D461446984606469DB018B1B7
:1037D000036A0BB9FFF7D4FC6B6ED90705D4AB892C
:1037E0009A0502D4A86DFFF7BFFEAB891B0701D570
:1037F0002B699BB929463046FFF7E6FD70B16B6E29
:10380000DC0704D54FF0FF301DB0BDE8F08FAB8969
:103810009805F7D4A86DFFF7A8FEF3E700230993F6
:1038200020238DF8293030234FF00109CDF80C808A
:10383000DFF8AC818DF82A3023469A4613F8012B25
:103840000AB1252AF9D1BAEB040B0BD05B4622460C
:1038500029463046FFF7A1FF013000F0A980099A00
:103860005A4409929AF80030002B00F0A1800023FE
:103870004FF0FF32CDE905230AF1010A04930793C3
:103880008DF853301A935446052214F8011B5448FE
:1038900000F082FB049AD8B9D10644BF20238DF8EA
:1038A0005330130744BF2B238DF853309AF8003060
:1038B0002A2B15D0544600204FF00A0C079A2146B7
:1038C00011F8013B303B092B4DD9B0B1079214E000
:1038D000A0EB080309FA03F31343A2460493D2E7CB
:1038E000039B191D1B680391002BBBBF5B4242F079
:1038F000020207930793B8BF049223782E2B0CD1B2
:1039000063782A2B34D1039B02341A1D1B6803925F
:10391000002BB8BF4FF0FF330593DFF8C8A0032298
:103920005046217800F038FB38B14022049BA0EBD0
:103930000A00824013430134049314F8011B062249
:1039400029488DF8281000F027FB00283FD0274B8E
:103950001BBB039B073323F0070308330393099B27
:103960003B44099368E70C4601200CFB0232A6E7B2
:1039700000234FF00A0C194601340593204610F835
:10398000012B303A092A03D9002BC6D00591C4E790
:10399000044601230CFB0121F0E703AB00932A4608
:1039A0003046134B04A9AFF300800746781CD6D1EC
:1039B0006B6ED90705D4AB899A0502D4A86DFFF7C1
:1039C000D4FDAB895B063FF51DAF09981CE703AB3F
:1039D00000932A463046064B04A900F07DF8E4E740
:1039E000FA400008004100080441000800000000FF
:1039F0009B3700082DE9F047164699468A680B69FF
:103A000007469342B8BF1346336091F843200C46F3
:103A1000DDF820800AB1013333602368990642BF84
:103A2000336802333360256815F0060506D104F1CA
:103A3000190AE36832689B1AAB422BDC94F84320E6
:103A4000131E226818BF0123920630D44946384617
:103A500004F14302C047013023D02368226903F0F8
:103A60000603042B14BF002533684FF0000608BF7F
:103A7000E56804F11A0408BFED1A54F8123C08BFB7
:103A800025EAE5759342C4BF9B1AED18B5421AD1D9
:103A9000002008E00123524649463846C04701301D
:103AA00003D14FF0FF30BDE8F0870135C1E730208A
:103AB000E11881F843005A1C94F84510224402335F
:103AC00082F84310C2E70123224649463846C047E0
:103AD0000130E6D00136D9E72DE9FF470F7E914648
:103AE000782F80460C469A460C9D01F1430207D878
:103AF000622F0AD8002F00F0D580582F00F0C18027
:103B000004F1420584F842703AE0A7F16303152BF3
:103B1000F6D801A151F823F0713B0008853B00085D
:103B2000013B0008013B0008013B0008013B000885
:103B3000853B0008013B0008013B0008013B0008F1
:103B4000013B00088B3C0008B13B0008453C0008E5
:103B5000013B0008013B0008AD3C0008013B0008A8
:103B6000B13B0008013B0008013B00084D3C000848
:103B70002B681A1D1B682A6004F1420584F8423044
:103B80000123A0E020682B68070603F104012960E7
:103B900001D51E6803E04606FBD5B3F90060002E90
:103BA00003DA2D23764284F843300A23594812E081
:103BB0002B682068191D2960050601D51E6802E0E2
:103BC0004106FBD51E886F2F0CBF08230A235148DE
:103BD000002184F843106568002DA8BF2168A56006
:103BE000A4BF21F0040121600EB9002D4BD0154671
:103BF000B6FBF3F103FB1167C75D05F8017D37469E
:103C0000BB420E46F4D9082B0BD12368DE0708D53A
:103C1000236961689942DEBF302305F8013C05F154
:103C2000FF35521B22614B4621464046CDF800A08D
:103C300003AAFFF7DFFE01304AD14FF0FF3004B096
:103C4000BDE8F087236843F02003236078273248DB
:103C500084F84570236829681F0651F8046B02D464
:103C60005F0648BFB6B2DF0748BF43F020032960B4
:103C700048BF23601EB9236823F02003236010236C
:103C8000A6E72448E4E71546BDE72B682668181D1B
:103C90006169286035061B6801D5196002E070066D
:103CA000FBD51980002315462361BCE72B68002152
:103CB0001A1D2A601D686268284600F06DF908B177
:103CC000401B606063682361002384F84330AAE7E7
:103CD0002A46494640462369D0470130ADD0236883
:103CE0009B0713D4E068039B9842B8BF1846A6E729
:103CF0000123324649464046D04701309DD0013528
:103D0000E36803995B1AAB42F2DCEBE7002504F1B0
:103D10001906F5E70B4100081C4100088A89F8B52F
:103D2000054610070C4657D44B68002B04DC0B6C7F
:103D3000002B01DC0020F8BDE66A002EFAD000233B
:103D400012F480522F68216A2B6032D0606DA389F3
:103D50005A0705D56368C01A636B0BB1236CC01A90
:103D600000230246E66A2846216AB047431CA3891D
:103D700006D129681D292BD8284A0A41D60727D4FD
:103D8000002262602269D904226004D5421C01D15C
:103D90002B6803B96065616B2F600029CAD004F1FC
:103DA0004403994202D02846FFF7EEFB00206063EF
:103DB000C1E701232846B047411CC8D12B68002B1E
:103DC000C5D01D2B01D0162B01D12F60B2E7A389DE
:103DD00043F04003A381AEE70F69002FAAD09307F9
:103DE00018BF00230E6808BF4B69F61B0F608B607D
:103DF000002E9FDD33463A462846216AD4F828C073
:103E0000E047002806DCA3894FF0FF3043F0400371
:103E1000A38190E70744361AEAE700BFFEFFBFDF41
:103E200038B50B6905460C4613B90025284638BD40
:103E300018B1036A0BB9FFF7A3F9B4F90C30002BE2
:103E4000F3D0626ED00704D4990502D4A06DFFF7B9
:103E50008BFB28462146FFF761FF636E0546DA07B4
:103E6000E4D4A3899B05E1D4A06DFFF77EFBDDE7D9
:103E700070B50C46B1F90E10154600291E4696B0D5
:103E80000CDAA389002113F0800F0CBF4FF480637C
:103E90004023002031602B6016B070BD6A4600F0F0
:103EA00049F80028EDDB019901F47041A1F50053B8
:103EB000594259414FF48063EBE78B8973B59D07F5
:103EC00006460C4607D504F147032360236101230E
:103ED000636102B070BD6A4601ABFFF7C9FF00998C
:103EE00005463046FFF7B8FB48B9B4F90C309A05DF
:103EF000EFD423F0030343F00203A381E3E7A38994
:103F0000206043F08003A381009B20616361019BDB
:103F10005BB13046B4F90E1000F01EF828B1A38949
:103F200023F0030343F00103A381A3891D43A5816B
:103F3000CFE7000038B50023064D04460846114679
:103F40002B60FDF73EFA431C02D12B6803B12360BE
:103F500038BD00BFB403002038B50023054D04462A
:103F600008462B60FDF73CFA431C02D12B6803B1D5
:103F7000236038BDB403002038B50023054D044646
:103F800008462B60FDF742FA431C02D12B6803B1AF
:103F9000236038BDB4030020034610B5C9B2024403
:103FA0009342184601D1002003E0047801338C428B
:103FB000F6D110BDF8B500BFF8BC08BC9E467047EE
:0C3FC000F8B500BFF8BC08BC9E46704776
:103FCC00436F6E6669677572696E67204C6F5261DC
:103FDC00206D6F64756C650D00000000446F6E659C
:103FEC0020636F6E6669677572696E67204C6F52DD
:103FFC00614D6F64756C650D000000004D6173744C
:10400C006572202E2E2E0D0053656E64696E67202E
:10401C007061636B6167652E2E2E0D00456E747298
:10402C00793A2025640D0A0053656E64696E672029
:10403C0025730D0A000000005472616E736D697374
:10404C0073696F6E3A2025640D0A00005061636B32
:10405C006167652073656E742E2E2E0D00000000B6
:10406C00536C617665202E2E2E0D00005265636513
:10407C006976696E67207061636B6167652E2E2EA1
:10408C000D00000052656365697665643A2025640D
:10409C000D0A00005061636B616765207265636592
:1040AC0069766564202E2E2E0D000000FFFCF9F6BB
:1040BC00060708090A0B0C00000102030405060799
:1040CC0008090000010203040100000000000000C8
:1040DC00000000000102030406070809020304059E
:1040EC00060708090A0B0C0D0E0F10100102232DE8
:1040FC00302B2000686C4C006566674546470030E5
:10410C003132333435363738394142434445460031
:10411C003031323334353637383961626364656631
:04412C00000000008F
:0841300050C0FF7F01000000F8
:044138003501000845
:04413C001101000865
:104140000024F40010000000010000000000000046
:104150000300000078020020000000007802002028
:10416000E0020020480300200000000000000000E2
:10417000000000000000000000000000000000003F
:10418000000000000000000000000000000000002F
:10419000000000000000000000000000000000001F
:0841A0000000000018000020DF
:040000050800148556
:00000001FF
