:020000040800F2
:1000000000500020291C0008611B0008671B000825
:100010006D1B0008731B0008791B0008000000001E
:100020000000000000000000000000007F1B00082E
:100030008B1B000800000000971B0008A31B000892
:10004000711C0008711C0008711C0008711C00085C
:10005000711C0008711C0008711C0008711C00084C
:10006000711C0008711C0008711C0008711C00083C
:10007000711C0008711C0008711C0008711C00082C
:10008000711C0008711C0008711C0008711C00081C
:10009000711C0008711C0008711C0008711C00080C
:1000A000711C0008711C0008711C0008711C0008FC
:1000B000711C0008711C0008711C0008711C0008EC
:1000C000711C0008711C0008711C0008711C0008DC
:1000D000711C0008711C0008711C0008711C0008CC
:1000E000711C0008711C0008711C00080000000051
:1000F0000000000000000000000000000000000000
:0C01000000000000000000005FF808F1A3
:1001100010B5054C237833B9044B13B10448AFF341
:1001200000800123237010BD680000200000000043
:10013000F452000808B5034B1BB103490348AFF361
:10014000008008BD000000006C000020F452000890
:1001500053B94AB9002908BF00281CBF4FF0FF312E
:100160004FF0FF3000F072B9ADF1080C6DE904CE2C
:1001700000F006F8DDF804E0DDE9022304B0704782
:100180002DE9F047089E0D4604468E46002B4CD1C3
:100190008A42944667D9B2FA82F353B102FA03FC59
:1001A000C3F1200201FA03FE20FA02F242EA0E0E27
:1001B0009C404FEA1C47BEFBF7F11FFA8CF507FB8A
:1001C00011EE01FB05F0220C42EA0E4290420AD9E0
:1001D0001CEB020201F1FF3E80F01981904240F2D7
:1001E000168102396244121AB2FBF7F007FB1022A3
:1001F00000FB05F5A4B244EA0244A5420AD91CEB6F
:10020000040400F1FF3280F00481A54240F2018134
:100210006444023840EA01400021641B1EB1DC4006
:100220000023C6E90043BDE8F0878B4208D9002EC1
:1002300000F0EA800021C6E900050846BDE8F08725
:10024000B3FA83F1002948D1AB4202D3824200F2D3
:10025000F880841A65EB030201209646002EE2D056
:10026000C6E9004EDFE702B9FFDEB2FA82F3002BE7
:1002700040F08E80881A0121170C1FFA82FEB0FB15
:10028000F7F507FB1500220C42EA00420EFB05F0D1
:10029000904208D91CEB020205F1FF3802D29042CD
:1002A00000F2CC804546121AB2FBF7F007FB102291
:1002B0000EFB00FEA4B244EA0244A64508D91CEB9A
:1002C000040400F1FF3202D2A64500F2B4801046C9
:1002D000A4EB0E0440EA0540A0E7C1F120078B40E3
:1002E00022FA07FC4CEA030C25FA07FA4FEA1C49EC
:1002F000BAFBF9F88D4020FA07F309FB18AA1FFA98
:100300008CFE2B4300FA01F508FB0EF01C0C44EAAE
:100310000A44A04202FA01F20BD91CEB040408F1D2
:10032000FF3A80F08680A04240F28380A8F1020864
:100330006444241A98B2B4FBF9F309FB134403FB99
:100340000EFE40EA0444A64508D91CEB040403F160
:10035000FF306AD2A64568D9023B644443EA0840AC
:10036000A0FB0293A4EB0E049C42C8469E4654D3C5
:1003700051D0002E67D0B5EB080364EB0E04CB40E0
:1003800004FA07F71F43CC40C6E9007400214AE78E
:1003900002FA03FCC3F12000C1409D4024FA00F0A2
:1003A0004FEA1C472843B1FBF7F507FB15111FFA6D
:1003B0008CFE020C42EA014205FB0EF1914204FA66
:1003C00003F408D91CEB020205F1FF382FD2914249
:1003D0002DD9023D6244521AB2FBF7F107FB1122FC
:1003E00080B240EA024001FB0EF2824208D91CEBC7
:1003F000000001F1FF3816D2824214D9023960445C
:10040000801A41EA05413AE7314630460BE771462A
:10041000E9E61046FEE64D45ABD2B9EB020863EBC8
:100420000C0E0138A5E74146EAE7034696E7454644
:10043000D1E7D0467DE76444023849E7023D624493
:1004400031E708460AE73146EDE600BF704700BFD6
:1004500080B584B000AF78600B46FB707B681B688A
:10046000FA781146184600F0D0FB7B681B681846E6
:1004700000F0EBFB0346FB737B681B680121184609
:1004800000F088FBFB7B18461037BD4680BD80B569
:1004900082B000AF78600B46FB701346BB707B6880
:1004A0001B680021184600F075FB7B681A68FB7812
:1004B00063F07F03DBB21946104600F0A6FB7B68B1
:1004C0001B68BA781146184600F09FFB7B681B68D2
:1004D0000121184600F05EFB00BF0837BD4680BD15
:1004E00090B587B000AFF8607A601A460B46FB7291
:1004F0001346BB72BB7A012B27D9FB681B6800210E
:10050000184600F047FBFB681B68FA7A114618464C
:1005100000F07BFB0023FB750CE0FB681968FB7D9A
:100520007A68D418084600F090FB03462370FB7DE0
:100530000133FB75FA7DBB7A9A42EED3FB681B68E8
:100540000121184600F026FB00E000BF1C37BD4625
:1005500090BD80B586B000AFF8607A601A460B4651
:10056000FB721346BB72BB7A012B29D9FB681B684F
:100570000021184600F00EFBFB681A68FB7A63F056
:100580007F03DBB21946104600F03FFB0023FB75EA
:100590000BE0FB681868FB7D7A6813441B781946EA
:1005A00000F033FBFB7D0133FB75FA7DBB7A9A4289
:1005B000EFD3FB681B680121184600F0EBFA00E05E
:1005C00000BF1837BD4680BD80B586B000AF7860EB
:1005D000786800F00DF90F2000F05DFB786800F0FE
:1005E00017F97B68D3E902234FF000004FF00001B8
:1005F000D90441EA5231D0046F4A4FF00003FFF7AB
:10060000A7FD02460B46C7E90423D7E904014FF0D2
:1006100000024FF00003020C42EA01420B0CD3B27D
:100620003B73D7E904014FF000024FF00003020AC8
:1006300042EA01620B0AD3B27B733B7CBB7307F1C6
:100640000C02032306217868FFF783FF3422392147
:100650007868FFF71CFF7B681B7C1A46574B9B5C36
:100660001A4609217868FFF712FF0B220B217868E0
:10067000FFF70DFF23220C217868FFF708FF7B6846
:100680005B7C1A464E4B9B5C062B47D17B689B7C60
:100690001A464C4B9B5C1B01DAB27B68DB7C19462B
:1006A000494B5B5C5B00DBB21344DBB20133DBB272
:1006B0001A461D217868FFF7EAFE7B685B7C1A46C4
:1006C0003F4B9B5C1B01DAB27B681B7D19463F4B9D
:1006D0005B5C9B00DBB21344DBB20333DBB21A4634
:1006E0001E217868FFF7D3FE31217868FFF7B0FE4E
:1006F0000346FB73FB7B23F00703FB73FB7B43F099
:100700000503FB73FB7B1A4631217868FFF7BFFEB8
:100710000C2237217868FFF7BAFE29E07B689B7CC2
:100720001A46284B9B5C1B01DAB27B68DB7C1946BE
:10073000254B5B5C5B00DBB21344DBB21A461D2128
:100740007868FFF7A4FE7B685B7C1A461C4B9B5CB9
:100750001B01DAB27B681B7D19461C4B5B5C9B005E
:10076000DBB21344DBB21A461E217868FFF78FFE16
:10077000042226217868FFF78AFE08221F21786864
:10078000FFF785FE002220217868FFF780FE08220F
:1007900021217868FFF77BFE012241217868FFF76D
:1007A00076FE7B68002283F81721786800F010F845
:1007B00000BF1837BD4680BD0048E801245300083B
:1007C00028530008305300083C53000840530008E9
:1007D00080B582B000AF7860092201217868FFF708
:1007E00056FE7B6801229A7500BF0837BD4680BD62
:1007F00080B582B000AF7860082201217868FFF7E9
:1008000046FE7B6800229A7500BF0837BD4680BD52
:1008100080B582B000AF7860882201217868FFF748
:1008200036FE00BF0837BD4680BD80B582B000AF40
:100830007860FF2212217868FFF729FE00BF083791
:10084000BD4680BD80B586B000AFF8600B467A60CB
:10085000FB72FB68FA7A5A75F868FFF7B5FE8422D6
:100860004D21F868FFF713FEFF222421F868FFF7F7
:100870000EFE01224021F868FFF709FE3F221121F8
:10088000F868FFF704FEF868FFF7CFFFFB7A1A4617
:100890002221F868FFF7FBFD0F21F868FFF7D8FD6C
:1008A0000346FB75FB7D1A460D21F868FFF7EFFD47
:1008B0008D220121F868FFF7EAFDFB68002283F82A
:1008C00017211821F868FFF7C3FD034603F004035E
:1008D000042B04D1FB6803229A75012313E07B6883
:1008E000013B7B607B68002B09D1FB681B681846C5
:1008F00000F067F9F868FFF767FE002303E00120C6
:1009000000F0C9F9DDE718461837BD4680BD80B54F
:1009100084B000AF78607B681B68184600F0C6F9A9
:100920000346002B30D07B6817334FF480720021D0
:10093000184604F04DF810217868FFF789FD03464A
:10094000BB73BB7B1A460D217868FFF7A0FD7B685F
:100950005B7C002B03D17B685B7DFB7305E013217F
:100960007868FFF775FD0346FB737B6803F1170298
:10097000FB7B00217868FFF7B3FD7B68FA7B83F887
:1009800017217868FFF751FF7B6893F817311846F5
:100990001037BD4680BD80B586B000AFF8600B460D
:1009A0007A60FB72FB68FA7A5A75F868FFF70CFEFA
:1009B00087224D21F868FFF76AFD00222421F8689C
:1009C000FFF765FD41224021F868FFF760FDF868F8
:1009D000FFF72BFFF7221121F868FFF758FDFB7A8C
:1009E0001A462221F868FFF752FD0E21F868FFF73A
:1009F0002FFD0346FB75FB7D1A460D21F868FFF7B6
:100A000046FD2221F868FFF723FD0346BB75BA7D3A
:100A1000FB7A9A4204D1FB6802229A7501230EE008
:100A20007B68013B7B607B68002BEAD1FB681B681D
:100A3000184600F0C6F8F868FFF7C6FD0023184610
:100A40001837BD4680BD80B584B000AFF860B9608E
:100A50003B601346FB71FB79BA680021F868FFF729
:100A600078FD8B220121F868FFF711FDFB681B68F8
:100A7000184600F01BF90346002B0BD01221F86832
:100A8000FFF7E6FCF868FFF7D0FEF868FFF7A0FE76
:100A9000012313E03B68013B3B603B68002B09D11D
:100AA000FB681B68184600F08CF8F868FFF78CFDAF
:100AB000002303E0012000F0EEF8D7E718461037D6
:100AC000BD4680BD80B584B000AFF860C7E90023A3
:100AD000FB681B68184600F048F8F968D7E900235E
:100AE000C1E90223FB683A7E1A74FB683A7F5A74A4
:100AF000FB6897F820209A74FB6897F82420DA7432
:100B0000FB6897F828201A75FB6897F82C205A750F
:100B1000F868FFF759FD00BF1037BD4680BD80B5AE
:100B200084B000AFF860B9601346FB71FB6893F8BE
:100B30001731FA799A4203D0FB6893F81731FB71A9
:100B4000FB681733FA791946B86803F075FFFB792B
:100B5000BA68134400221A70FB68002283F8172138
:100B6000FB7918461037BD4680BD80B582B000AF16
:100B700078600121786800F00DF87B6858687B6820
:100B80001B689BB20122194601F08BFD00BF08379C
:100B9000BD4680BD80B582B000AF786039607B68AB
:100BA00058697B681B6999B23B68012B0CBF012314
:100BB0000023DBB21A4601F074FD00BF0837BD46C2
:100BC00080BD80B582B000AF786001217868FFF702
:100BD000E1FF7B6858687B681B689BB2002219465E
:100BE00001F05FFD012000F056F87B6858687B68D3
:100BF0001B689BB20122194601F053FD642000F0EE
:100C00004AF800BF0837BD4680BD80B582B000AF4E
:100C100078600B46FB7000217868FFF7BBFF7B68AC
:100C20009869F91C4FF47A73012203F053F800BF5E
:100C30007B689B69184603F040FB0346012BF7D104
:100C400000BF00BF0837BD4680BD80B586B002AF8B
:100C500078600023FB730023BB7300217868FFF7E3
:100C600099FF7B68986907F10E0207F10F014FF4B5
:100C70007A730093012303F070F900BF7B689B69CE
:100C8000184603F01AFB0346012BF7D1BB7B18462D
:100C90001037BD4680BD80B582B000AF78607868FF
:100CA00001F04AF800BF0837BD4680BD80B582B06C
:100CB00000AF78607B68DA687B689B689BB21946F6
:100CC000104601F0D7FC0346012B0CBF0123002383
:100CD000DBB218460837BD4680BD000000000000AA
:100CE00080B586B006AF00F0C5FF00F05DF900F0FA
:100CF000B9FA00F067FA00F02FFA00F0B1F900F04D
:100D0000FDF9974803F0DCFB00F05AFB954B964A3F
:100D1000DA60944B02229A60924B944A5A61914B4A
:100D200010221A618F4B904A5A608E4B01221A6032
:100D30008C4B8F4A9A618F4B8A4A1A600A2305931B
:100D400000230493002303930723029301230193B9
:100D50000123009380A3D3E900238648FFF7B2FE66
:100D6000854B1B68012B0FD14FF4FA62102181488B
:100D7000FFF711FE0346814A136000224FF4005131
:100D80007F4801F08EFC0EE04FF4FA6210217948A2
:100D9000FFF758FD0346794A136001224FF40051D2
:100DA000774801F07EFC774B1B88DAB2764B1A70DD
:100DB000744B1B881B0A9BB2DAB2734B5A70734B8D
:100DC0001A78714B9A70724B1B88DAB26E4BDA70DC
:100DD0006F4B1B881B0A9BB2DAB26B4B1A71664BC6
:100DE0001B68012B2FD14FF47A7000F0A5FF4FF450
:100DF000FA6210215F48FFF7CEFD03465F4A136099
:100E00004FF4FA63102260495A48FFF71CFE03466C
:100E10005A4A1360594B1B68002BC4D000224FF470
:100E20000051574801F03DFC4FF4FA7000F084FF88
:100E300001224FF40051524801F033FC4FF4FA7094
:100E400000F07AFFAFE74FF47A7000F075FF494881
:100E5000FFF75DFD03461A46484B1A60474B1B6877
:100E6000002BA0DD454B1B68DBB21A4646494148C2
:100E7000FFF755FE0346002B95D0434B5B781B02D2
:100E80001AB2414B1B781BB213431BB29AB23D4BB3
:100E90001A800021002000F0FBFB3A4B1B881A4609
:100EA0003C493D4803F074FD01223C493A4800F0BA
:100EB00085FC00F049FB344B9B78002B1ED10122AE
:100EC0004FF48071294801F0ECFB4FF47A7000F088
:100ED00033FF00224FF48071244801F0E2FB0A2026
:100EE00000F02AFF1E21002000F0D2FB01222B4936
:100EF0002B4800F063FC00F027FB0AE01E210020D5
:100F000000F0C6FB01222549264800F057FC00F0FE
:100F10001BFB1D4BDB781B021AB21B4B9B781BB2D1
:100F200013431BB29AB21A4B1A8000224FF400519D
:100F3000134801F0B6FB4FF4FA7000F0FDFE0122F9
:100F40004FF400510E4801F0ACFB4FF4FA7000F082
:100F5000F3FE28E7AFF300808050DE1900000000A8
:100F600060010020A8010020000C014000080140A1
:100F700008010020C8010020E0020020E402002057
:100F80000010014008030020E80200200C030020AC
:100F90000A0300200C530008F80200200000002083
:100FA000105300081853000880B594B000AF07F143
:100FB000280328220021184603F00AFD07F1140334
:100FC00000221A605A609A60DA601A613B1D0022A2
:100FD0001A605A609A60DA600123BB624FF4803372
:100FE000FB6200233B630123BB6302237B644FF45A
:100FF0008033BB644FF4E013FB6407F12803184609
:1010000002F032F90346002B01D000F0D3F90F2390
:101010007B610223BB610023FB614FF480633B6271
:1010200000237B6207F114030221184602F09EFBA5
:101030000346002B01D000F0BDF902237B604FF482
:101040000043FB603B1D184602F00AFD0346002BDF
:1010500001D000F0AFF900BF5037BD4680BD0000A1
:1010600080B584B000AF3B1D00221A605A609A60C0
:10107000204B214A1A601F4B4FF480729A601D4B1F
:1010800001221A731B4B00221A751A4B4FF460226F
:10109000DA61184B00225A60164B02221A61154879
:1010A00000F06EFE0346002B01D000F083F9002310
:1010B0007B600123BB600023FB603B1D19460D488C
:1010C00000F036FF0346002B01D000F073F9012336
:1010D0007B600223BB603B1D1946064800F028FFD9
:1010E0000346002B01D000F065F900BF1037BD4664
:1010F00080BD00BF840000200024014080B500AF07
:10110000124B134A1A60114B124A5A600F4B0022BD
:101110009A600E4B0022DA600C4B4FF480421A6149
:101120000A4B00225A61094B00229A61074B0022A8
:10113000DA61064B00221A62044801F0CBFA03463A
:10114000002B01D000F036F900BF80BDB4000020B4
:1011500000540040801A060080B500AF174B184AB3
:101160001A60164B4FF482725A60144B00229A6038
:10117000124B0022DA60114B00221A610F4B002241
:101180005A610E4B4FF400729A610C4B1022DA61D7
:101190000A4B00221A62094B00225A62074B0022B6
:1011A0009A62064B0A22DA62044802F00FFD0346F7
:1011B000002B01D000F0FEF800BF80BD0801002028
:1011C0000030014080B586B000AF07F1080300226F
:1011D0001A605A609A60DA603B4600221A605A60D0
:1011E0001E4B1F4A1A601D4B47225A601B4B0022A0
:1011F0009A601A4B4FF6FE72DA60184B00221A61A1
:10120000164B00225A61154B00229A61134803F0D5
:1012100007F90346002B01D000F0CCF84FF48053BF
:10122000BB6007F1080319460C4803F093F9034625
:10123000002B01D000F0BEF800233B6000237B6050
:101240003B461946054803F045FB0346002B01D0F9
:1012500000F0B0F800BF1837BD4680BD6001002027
:10126000002C014080B588B000AF07F110030022C8
:101270001A605A609A60DA604A4B9B69494A43F0A7
:1012800010039361474B9B6903F01003FB60FB68FD
:10129000444B9B69434A43F020039361414B9B6954
:1012A00003F02003BB60BB683E4B9B693D4A43F0A3
:1012B000040393613B4B9B6903F004037B607B68F1
:1012C000384B9B69374A43F008039361354B9B6960
:1012D00003F008033B603B6800224FF400513248A2
:1012E00001F0DFF901221021304801F0DAF9012282
:1012F00001212F4801F0D5F9012201212C4801F0EC
:10130000D0F900224FF48071284801F0CAF94FF457
:1013100000533B6101237B610023BB610223FB611E
:1013200007F110031946204801F020F810233B6113
:1013300001237B610023BB610223FB6107F11003E2
:1013400019461A4801F012F801233B6101237B6121
:101350000023BB610223FB6107F110031946144807
:1013600001F004F80A233B6100237B610023BB6189
:1013700007F1100319460E4800F0F8FF4FF4807390
:101380003B6101237B610023BB610223FB6107F109
:1013900010031946054800F0E9FF00BF2037BD469D
:1013A00080BD00BF00100240001001400008014055
:1013B000000C014080B400AF72B600BFFEE7000031
:1013C00080B582B000AF00F01FFA44F6206301221E
:1013D00078215B4801F0C0FB0346002B01D00023BD
:1013E000A9E040F6C4137B6002E07B68013B7B60B0
:1013F0007B68002BF9D1AE220021782000F07EFA24
:1014000020220021782000F079FA10220021782093
:1014100000F074FAB0220021782000F06FFAC822A0
:101420000021782000F06AFA00220021782000F0E4
:1014300065FA10220021782000F060FA4022002195
:10144000782000F05BFA81220021782000F056FA23
:10145000FF220021782000F051FAA12200217820FB
:1014600000F04CFAA6220021782000F047FAA822CA
:101470000021782000F042FA3F220021782000F07D
:101480003DFAA4220021782000F038FAD32200216E
:10149000782000F033FA00220021782000F02EFAA4
:1014A000D5220021782000F029FAF02200217820AE
:1014B00000F024FAD9220021782000F01FFA22221D
:1014C0000021782000F01AFADA220021782000F0BA
:1014D00015FA12220021782000F010FADB220021F8
:1014E000782000F00BFA20220021782000F006FA84
:1014F0008D220021782000F001FA142200217820AA
:1015000000F0FCF9AF220021782000F0F7F92E223C
:101510000021782000F0F2F9002000F043F800F0FC
:1015200013F8084B00221A80064B00225A80054B04
:1015300001225A71012318460837BD4680BD00BFFD
:10154000B40000201007002080B582B000AF002357
:10155000FB711DE0FB79503BDBB21A46002178207D
:1015600000F0CCF900220021782000F0C7F9102209
:101570000021782000F0C2F9FB79DB01084A1A4407
:1015800080234021782000F053F9FB790133FB716F
:10159000FB79072BDED900BF00BF0837BD4680BDF1
:1015A0001003002080B582B000AF0346FB71FB79C9
:1015B000002B01D1002300E0FF234FF48062194685
:1015C000034803F005FA00BF0837BD4680BD00BFE1
:1015D0001003002080B483B000AF0346FB800B46AD
:1015E000BB801346FB70FB887F2B48D8BB883F2B02
:1015F00045D8254B1B79002B06D0FB78002B0CBF60
:1016000001230023DBB2FB70FB78012B1AD1FA888F
:10161000BB88DB0898B20346DB0113441B4AD35C4A
:101620005AB2BB8803F00703012101FA03F35BB24E
:10163000134359B2FA880346DB011344C9B2134A73
:10164000D1541DE0FA88BB88DB0898B20346DB0161
:1016500013440E4AD35C5AB2BB8803F0070301213E
:1016600001FA03F35BB2DB435BB2134059B2FA8871
:101670000346DB011344C9B2044AD15400E000BF61
:101680000C37BD4680BC70471007002010030020B7
:1016900080B483B000AF03460A46FB801346BB808C
:1016A000054AFB881380044ABB88538000BF0C376F
:1016B000BD4680BC704700BF1007002080B586B0D3
:1016C00000AF03463960FB711346BB713A4B1B8870
:1016D0001A463B681B7813447F2B07DC364B5B882C
:1016E0001A463B685B7813443F2B01DD00235EE024
:1016F00000237B614BE03B685A68FB79203B3968EB
:10170000497801FB03F319467B690B445B001344E2
:101710001B88FB6000233B6130E0FA683B6902FAFA
:1017200003F303F40043002B10D0234B1A883B69CA
:101730009BB2134498B2204B5A887B699BB21344E6
:101740009BB2BA791946FFF745FF14E01A4B1A8885
:101750003B699BB2134498B2174B5A887B699BB282
:10176000134499B2BB79002B0CBF01230023DBB2D9
:101770001A46FFF72FFF3B6901333B613B681B783B
:101780001A463B699342C8D37B6901337B613B684E
:101790005B781A467B699342ADD3074B1A883B6846
:1017A0001B789BB213449AB2034B1A80FB791846FC
:1017B0001837BD4680BD00BF1007002080B584B03B
:1017C00000AFF860B9601346FB7112E0FB681B784C
:1017D000FA79B9681846FFF771FF03461A46FB68A5
:1017E0001B789A4202D0FB681B7808E0FB68013343
:1017F000FB60FB681B78002BE8D1FB681B78184660
:101800001037BD4680BD000080B483B000AF074BE9
:101810007B6002E07B68013B7B607B68002BF9D139
:1018200000BF00BF0C37BD4680BC704790D003009E
:1018300090B5C7B002AF0446084607F58871A1F518
:1018400088710A60194607F58873A3F209132246C6
:101850001A7007F58873A3F5857302461A7007F5A9
:101860008873A3F586730A461A8007F58873A3F573
:10187000827307F58872A2F5857212781A700023B8
:1018800087F80F3115E097F80F3107F58872A2F548
:10189000887212681A4497F80F310133117807F5EE
:1018A0008872A2F58272D15497F80F31013387F80C
:1018B0000F3197F80F319BB207F58872A2F5867247
:1018C00012889A42DFD807F58873A3F209131B78B0
:1018D00099B207F58873A3F586731B8801339BB211
:1018E00007F10C020A200090034801F037F800BF0E
:1018F00007F58A77BD4690BDB400002080B586B05C
:1019000002AF0346FB710B46BB7113467B71BB797B
:101910003B737B797B73FB7999B207F10C020A2345
:1019200000930223034801F019F800BF1037BD46A9
:1019300080BD00BFB400002080B485B000AF154B5F
:101940009B69144A43F001039361124B9B6903F0B6
:101950000103BB60BB680F4BDB690E4A43F0805349
:10196000D3610C4BDB6903F080537B607B680A4BCF
:101970005B68FB60FB6823F0E063FB60FB6843F09F
:101980000073FB60044AFB68536000BF1437BD4618
:1019900080BC7047001002400000014080B588B054
:1019A00000AF786007F1100300221A605A609A6055
:1019B000DA607B681B68144A934221D1134B9B6900
:1019C000124A43F400739361104B9B6903F4007354
:1019D000FB60FB680D4B9B690C4A43F00403936169
:1019E0000A4B9B6903F00403BB60BB6803233B61A4
:1019F00003237B6107F110031946054800F0B6FC8C
:101A000000BF2037BD4680BD0024014000100240C9
:101A10000008014080B588B000AF786007F110037E
:101A200000221A605A609A60DA607B681B68154A67
:101A3000934223D1144B9B69134A43F008039361EB
:101A4000114B9B6903F00803FB60FB68C0233B61FB
:101A500012237B610323FB6107F1100319460B4836
:101A600000F084FC084BDB69074A43F40013D361A0
:101A7000054BDB6903F40013BB60BB6800BF203774
:101A8000BD4680BD0054004000100240000C0140E3
:101A900080B588B000AF786007F1100300221A60AB
:101AA0005A609A60DA607B681B681B4A93422FD1A8
:101AB0001A4B9B69194A43F480539361174B9B69F6
:101AC00003F48053FB60FB68144B9B69134A43F09B
:101AD00004039361114B9B6903F00403BB60BB6873
:101AE000A0233B6102237B610323FB6107F1100309
:101AF00019460B4800F03AFC40233B6100237B6110
:101B00000023BB6107F110031946054800F02EFCC5
:101B100000BF2037BD4680BD0030014000100240AC
:101B20000008014080B485B000AF78607B681B6816
:101B3000094A93420BD1094B9B69084A43F400635D
:101B40009361064B9B6903F40063FB60FB6800BF75
:101B50001437BD4680BC7047002C01400010024085
:101B600080B400AFFEE780B400AFFEE780B400AF02
:101B7000FEE780B400AFFEE780B400AFFEE780B4BC
:101B800000AF00BFBD4680BC704780B400AF00BF4F
:101B9000BD4680BC704780B400AF00BFBD4680BC6E
:101BA000704780B500AF00F0ABF800BF80BD00000B
:101BB00080B586B000AF7860144A154BD31A7B61AC
:101BC0007B693B61134B1B68002B02D1114B124AFE
:101BD0001A60104B1A687B6813443A699A4207D21C
:101BE00002F0FEFE03460C221A604FF0FF3309E0BC
:101BF000084B1B68FB60074B1A687B681344054A57
:101C00001360FB6818461837BD4680BD00500020A1
:101C100000040000180700206808002080B400AF0E
:101C200000BFBD4680BC7047FFF7F8FF0B480C496A
:101C30000C4A002302E0D458C4500433C4188C4228
:101C4000F9D3094A094C002301E013600432A2428F
:101C5000FBD302F0CBFEFFF743F8704700000020F3
:101C6000640000201061000868000020680800205F
:101C7000FEE7000080B500AF084B1B68074A43F041
:101C800010031360032000F03DFB0F2000F008F864
:101C9000FFF752FE0023184680BD00BF002002401F
:101CA00080B582B000AF7860124B1A68124B1B7877
:101CB00019464FF47A73B3FBF1F3B2FBF3F3184612
:101CC00000F047FB0346002B01D001230EE07B68A8
:101CD0000F2B0AD8002279684FF0FF3000F01DFB6F
:101CE000064A7B681360002300E00123184608378A
:101CF000BD4680BD08000020100000200C00002020
:101D000080B400AF054B1B781A46054B1B68134483
:101D1000034A136000BFBD4680BC7047100000201E
:101D20001C07002080B400AF024B1B681846BD465C
:101D300080BC70471C07002080B584B000AF78607D
:101D4000FFF7F0FFB8607B68FB60FB68B3F1FF3F13
:101D500005D00A4B1B781A46FB681344FB6000BF92
:101D6000FFF7E0FF0246BB68D31AFA689A42F7D839
:101D700000BF00BF1037BD4680BD00BF100000206F
:101D800080B586B000AF78600023FB7500233B610F
:101D90000023BB600023FB607B68002B01D1012383
:101DA000BEE07B689B68002B7B689B6A002B09D197
:101DB0007B680022DA627B68002283F8242078683E
:101DC000FFF7ECFD786800F0ABF90346FB757B6824
:101DD0009B6A03F01003002B40F09980FB7D002BE1
:101DE00040F095807B689B6A23F4885323F00203BC
:101DF00043F002027B689A627B685A687B68DB6901
:101E00001A437B681B7B5B001343BA681343BB60B8
:101E10007B689B68B3F5807F03D07B689B68012B50
:101E200002D14FF4807300E000233A6913433B6111
:101E30007B681B7D012B19D17B681B7B002B09D193
:101E40007B689B69013B5A033B69134343F400637E
:101E50003B610BE07B689B6A43F020027B689A62DF
:101E60007B68DB6A43F001027B68DA627B681B688F
:101E70005B6823F469417B681B683A690A435A60CE
:101E80007B681B689A68284B13407A681268B968A7
:101E90000B4393607B689B68B3F5807F03D07B68BE
:101EA0009B68012B04D17B681B69013B1B05FB6010
:101EB0007B681B68DB6A23F470017B681B68FA6827
:101EC0000A43DA627B681B689A68184B1340BA6849
:101ED0009A420BD17B680022DA627B689B6A23F00E
:101EE000030343F001027B689A6218E07B689B6AF7
:101EF00023F0120343F010027B689A627B68DB6A6E
:101F000043F001027B68DA620123FB7507E07B681E
:101F10009B6A43F010027B689A620123FB75FB7D8C
:101F200018461837BD4680BDFDF7E1FFFE0E1FFFC6
:101F300080B485B000AF786039600023FB73002364
:101F4000BB607B6893F82430012B01D10223DCE0D5
:101F50007B68012283F824203B685B68062B1CD831
:101F60007B681B68596B3B685A6813469B00134497
:101F7000053B1F2202FA03F3DB4319403B68186854
:101F80003B685A6813469B001344053B00FA03F272
:101F90007B681B680A435A633CE03B685B680C2B18
:101FA0001CD87B681B68196B3B685A6813469B00FA
:101FB0001344233B1F2202FA03F3DB4319403B681F
:101FC00018683B685A6813469B001344233B00FA89
:101FD00003F27B681B680A431A631BE07B681B687B
:101FE000D96A3B685A6813469B001344413B1F2241
:101FF00002FA03F3DB4319403B6818683B685A68F0
:1020000013469B001344413B00FA03F27B681B68B4
:102010000A43DA623B681B68092B1CD97B681B6882
:10202000D9683B681A6813465B0013441E3B0722BD
:1020300002FA03F3DB4319403B6898683B681A686F
:1020400013465B0013441E3B00FA03F27B681B68D7
:102050000A43DA6019E07B681B6819693B681A68F3
:1020600013465B001344072202FA03F3DB431940D3
:102070003B6898683B681A6813465B00134400FA93
:1020800003F27B681B680A431A613B681B68102BCC
:1020900003D03B681B68112B32D17B681B681D4A3B
:1020A000934225D17B681B689B6803F40003002BD7
:1020B00026D17B681B689A687B681B6842F4000223
:1020C0009A603B681B68102B1AD1134B1B68134A8C
:1020D000A2FB03239A0C13469B0013445B00BB60D6
:1020E00002E0BB68013BBB60BB68002BF9D107E095
:1020F0007B689B6A43F020027B689A620123FB7332
:102100007B68002283F82420FB7B18461437BD46E9
:1021100080BC7047002401400800002083DE1B4380
:1021200080B584B000AF78600023FB607B681B68DB
:102130009B6803F00103012B2ED17B681B689A6812
:102140007B681B6822F001029A60FFF7EBFDF860E4
:102150001BE0FFF7E7FD0246FB68D31A022B14D9F8
:102160007B681B689B6803F00103012B0DD17B6822
:102170009B6A43F010027B689A627B68DB6A43F0DB
:1021800001027B68DA62012307E07B681B689B68B9
:1021900003F00103012BDCD0002318461037BD46A5
:1021A00080BD000080B485B000AF78607B6803F02C
:1021B0000703FB600C4BDB68BB60BA684FF6FF039C
:1021C0001340BB60FB681A02BB68134343F0BF6354
:1021D00043F40033BB60044ABB68D36000BF1437CC
:1021E000BD4680BC704700BF00ED00E080B400AF8A
:1021F000044BDB681B0A03F007031846BD4680BC8E
:10220000704700BF00ED00E080B483B000AF03462C
:102210003960FB7197F90730002B0ADB3B68DAB2B3
:102220000C4997F907301201D2B20B4483F800230E
:102230000AE03B68DAB20849FB7903F00F03043B7C
:102240001201D2B20B441A7600BF0C37BD4680BCD7
:10225000704700BF00E100E000ED00E080B489B00D
:1022600000AFF860B9607A60FB6803F00703FB61B8
:10227000FB69C3F10703042B28BF0423BB61FB697F
:102280000433062B02D9FB69033B00E000237B618A
:102290004FF0FF32BB6902FA03F3DA43BB681A401E
:1022A0007B699A404FF0FF317B6901FA03F3D94310
:1022B0007B680B40134318462437BD4680BC7047EB
:1022C00080B582B000AF78607B68013BB3F1807F5E
:1022D00001D301230FE00A4A7B68013B53600F21C1
:1022E0004FF0FF30FFF790FF054B00229A60044B40
:1022F00007221A60002318460837BD4680BD00BF7C
:1023000010E000E080B582B000AF78607868FFF739
:1023100049FF00BF0837BD4680BD80B586B000AF1D
:102320000346B9607A60FB7300237B61FFF75EFFB1
:1023300078617A68B9687869FFF790FF024697F983
:102340000F3011461846FFF75FFF00BF1837BD4634
:1023500080BD80B582B000AF78607868FFF7B0FFCD
:10236000034618460837BD4680BD000080B48BB0D8
:1023700000AF7860396000237B6200233B6269E133
:1023800001227B6A02FA03F3FB613B681B68FA696E
:102390001340BB61BA69FB699A4240F058813B68BF
:1023A0005B689A4A93425ED0984A934275D8984A9D
:1023B000934258D0964A93426FD8964A934252D04D
:1023C000944A934269D8944A93424CD0924A934299
:1023D00063D8924A934246D0904A93425DD8122BDA
:1023E0002AD8122B59D801A252F823F067240008EA
:1023F0004124000853240008952400089B24000869
:102400009B2400089B2400089B2400089B240008B0
:102410009B2400089B2400089B2400089B240008A0
:102420009B2400089B2400089B2400089B24000890
:10243000492400085D240008794A934213D02CE017
:102440003B68DB683B6229E03B68DB6804333B6246
:1024500024E03B68DB6808333B621FE03B68DB68D5
:102460000C333B621AE03B689B68002B02D10423CB
:102470003B6213E03B689B68012B05D108233B625C
:102480007B68FA691A6109E008233B627B68FA6994
:102490005A6103E000233B6200E000BFBB69FF2BF1
:1024A00001D87B6801E07B6804337B61BB69FF2B4B
:1024B00002D87B6A9B0002E07B6A083B9B003B6181
:1024C0007B691A680F213B6901FA03F3DB431A4069
:1024D000396A3B6901FA03F31A437B691A603B6866
:1024E0005B6803F08053002B00F0B1804D4B9B697B
:1024F0004C4A43F0010393614A4B9B6903F001038B
:10250000BB60BB68484A7B6A9B08023352F82330A1
:10251000FB607B6A03F003039B000F2202FA03F3C4
:10252000DB43FA681340FB607B68404A934213D058
:102530007B683F4A93420DD07B683E4A934207D066
:102540007B683D4A934201D1032306E0042304E063
:10255000022302E0012300E000237A6A02F0030272
:1025600092009340FA681343FB602F497B6A9B08F3
:102570000233FA6841F823203B685B6803F4801358
:10258000002B06D02D4B9A682C49BB6913438B60F6
:1025900006E02A4B9A68BB69DB43284913408B60ED
:1025A0003B685B6803F40013002B06D0234BDA680A
:1025B0002249BB691343CB6006E0204BDA68BB6954
:1025C000DB431E491340CB603B685B6803F4003378
:1025D000002B06D0194B5A681849BB6913434B604E
:1025E00006E0164B5A68BB69DB43144913404B6045
:1025F0003B685B6803F48033002B21D00F4B1A68D3
:102600000E49BB6913430B6021E000BF000032108C
:1026100000003110000022100000211000001210F4
:1026200000001110001002400000014000080140AD
:10263000000C014000100140001401400004014062
:102640000B4B1A68BB69DB43094913400B607B6A7B
:1026500001337B623B681A687B6A22FA03F3002B22
:102660007FF48EAE00BF00BF2C37BD4680BC7047E4
:102670000004014080B485B000AF78600B467B80D9
:102680007B689A687B881340002B02D00123FB7380
:1026900001E00023FB73FB7B18461437BD4680BC6A
:1026A000704780B483B000AF78600B467B801346E0
:1026B0007B707B78002B03D07A887B681A6103E0FB
:1026C0007B881A047B681A6100BF0C37BD4680BC4A
:1026D0007047000080B584B000AF78607B68002B45
:1026E00001D101232BE17B6893F83D30DBB2002B55
:1026F00006D17B68002283F83C207868FFF78AF9CE
:102700007B68242283F83D207B681B681A687B68FD
:102710001B6822F001021A607B681B681A687B68DC
:102720001B6842F400421A607B681B681A687B6869
:102730001B6822F400421A6001F060F9F8607B68BF
:102740005B68814A934207D8FB68804A934294BFF2
:1027500001230023DBB206E0FB687D4A934294BF6D
:1027600001230023DBB2002B01D00123E7E0FB684B
:10277000784AA2FB03239B0CBB607B681B685B68E9
:1027800023F03F017B681B68BA680A435A607B6884
:102790001B681B6A23F03F017B685B686A4A9342AF
:1027A00002D8BB68013309E0BB684FF4967202FBA4
:1027B00003F3694AA2FB03239B0901337A68126879
:1027C0000B4313627B681B68DB6923F44F4222F0E2
:1027D000FF027B685B685C498B4219D8FB68591E15
:1027E0007B685B685B00B1FBF3F3591C40F6FC733C
:1027F0000B40002B0AD0FB68591E7B685B685B00AE
:10280000B1FBF3F30133C3F30B0351E004234FE0B7
:102810007B689B68002B11D1FB68581E7B68596848
:102820000B465B000B44B0FBF3F30133C3F30B0324
:10283000002B0CBF01230023DBB212E0FB68581E03
:102840007B6859680B469B000B4499000B44B0FB16
:10285000F3F30133C3F30B03002B0CBF012300235D
:10286000DBB2002B01D0012322E07B689B68002BA8
:102870000ED1FB68581E7B6859680B465B000B4401
:10288000B0FBF3F30133C3F30B0343F400430FE056
:10289000FB68581E7B6859680B469B000B449900E7
:1028A0000B44B0FBF3F30133C3F30B0343F4404396
:1028B000796809681343CB617B681B681B6823F048
:1028C000C0017B68DA697B681B6A1A437B681B68F6
:1028D0000A431A607B681B689B6823F4034323F058
:1028E000FF037A6811697A68D26811437A681268BE
:1028F0000B4393607B681B68DB6823F0FF017B68F8
:102900005A697B689B691A437B681B680A43DA60D3
:102910007B681B681A687B681B6842F001021A60BA
:102920007B6800221A647B68202283F83D207B6844
:1029300000221A637B68002283F83E200023184699
:102940001037BD4680BD00BFA08601007F841E00F9
:10295000FF083D0083DE1B43D34D621080B588B075
:1029600002AFF8607A601A460B467B8113463B81C2
:10297000FFF7D8F97861FB6893F83D30DBB2202B84
:1029800040F0E0807B690093192301227049F868C8
:1029900000F092FA0346002B01D00223D3E0FB683B
:1029A00093F83C30012B01D10223CCE0FB680122DB
:1029B00083F83C20FB681B681B6803F00103012BB4
:1029C00007D0FB681B681A68FB681B6842F00102AD
:1029D0001A60FB681B681A68FB681B6822F40062B7
:1029E0001A60FB68212283F83D20FB68102283F8DF
:1029F0003E20FB6800221A64FB687A685A62FB6812
:102A00003A895A85FB685B8D9AB2FB681A85FB6828
:102A1000504ADA6279897B693A6AF86800F0CAF943
:102A20000346002B01D001238DE000233B61FB68AE
:102A30001B685B693B61FB681B689B693B613B6989
:102A400066E07A69396AF86800F050FB0346002BAB
:102A50000DD0FB681B6C042B07D1FB681B681A6840
:102A6000FB681B6842F400721A6001236BE0FB688C
:102A70005B6A1A78FB681B681A61FB685B6A5A1C00
:102A8000FB685A62FB685B8D9BB2013B9AB2FB68A4
:102A90005A85FB681B8D013B9AB2FB681A85FB685F
:102AA0001B685B6903F00403042B1BD1FB681B8DBF
:102AB000002B17D0FB685B6A1A78FB681B681A61E9
:102AC000FB685B6A5A1CFB685A62FB685B8D9BB2B1
:102AD000013B9AB2FB685A85FB681B8D013B9AB299
:102AE000FB681A857A69396AF86800F047FB034683
:102AF000002B0DD0FB681B6C042B07D1FB681B68F7
:102B00001A68FB681B6842F400721A6001231AE01D
:102B1000FB681B8D002B94D1FB681B681A68FB684F
:102B20001B6842F400721A60FB68202283F83D2083
:102B3000FB68002283F83E20FB68002283F83C20DB
:102B4000002300E0022318461837BD4680BD00BFB1
:102B5000020010000000FFFF80B58AB002AFF860ED
:102B60007A603B600B467B81FFF7DCF8F86100235D
:102B7000BB61FB6893F83D30DBB2202B40F0118144
:102B8000FB690093192301228849F86800F094F941
:102B90000346002B01D0022304E1FB6893F83C308C
:102BA000012B01D10223FDE0FB68012283F83C20C8
:102BB000FB681B681B6803F00103012B07D0FB684F
:102BC0001B681A68FB681B6842F001021A60FB6808
:102BD0001B681A68FB681B6822F400621A60FB68B5
:102BE000242283F83D20FB6800221A64FB68704AA7
:102BF000DA62FB681B681A68FB681B6842F4807223
:102C00001A60FB6900933B6800224FF00111F868DD
:102C100000F052F90346002B0DD0FB681B681B68BF
:102C200003F48073B3F5807F03D1FB684FF4007227
:102C30001A640323B6E07B89DBB21A46FB681B6883
:102C400002F0FE021A61FFF76DF8F861FB681B687D
:102C50005B6903F00203022B0CBF01230023DBB2EC
:102C6000FB75FB681B685B6903F48063B3F5806FD9
:102C70000CBF01230023DBB2BB7525E0FFF752F840
:102C80000246FB69D31A3A689A4202D33B68002B8A
:102C900003D1FB68A02283F83D20FB681B685B69B9
:102CA00003F00203022B0CBF01230023DBB2FB75F0
:102CB000FB681B685B6903F48063B3F5806F0CBF2E
:102CC00001230023DBB2BB75FB6893F83D30DBB218
:102CD000A02B05D0FB7D002B02D1BB7D002BCDD0DE
:102CE000FB68202283F83D20FB681B685B6903F0CA
:102CF0000203022B29D1FB681B681A68FB681B685A
:102D000042F400721A6000233B61FB681B685B6938
:102D10003B61FB681B689B693B613B69FB690093F6
:102D2000192301222149F86800F0C6F80346002B58
:102D300001D0012336E0FB68202283F83D20FB68A8
:102D4000002283F83C2000232CE0FB681B681A68F3
:102D5000FB681B6842F400721A60FB681B686FF422
:102D600080625A61FB690093192301220F49F868B8
:102D700000F0A2F80346002B01D0012312E0BB694A
:102D80000133BB61BA697B689A42FFF432AFFB68DA
:102D9000202283F83D20FB68002283F83C20012399
:102DA00000E0022318462037BD4680BD0200100017
:102DB0000000FFFF80B588B002AFF8607A603B602A
:102DC0000B467B81FB68DB6A7B617B69082B06D045
:102DD0007B69012B03D07B6913F5803F08D1FB6829
:102DE0001B681A68FB681B6842F480721A600BE06B
:102DF000FB681B6B122B07D1FB681B681A68FB680A
:102E00001B6842F480721A603B6800937B68002262
:102E10004FF00111F86800F04FF80346002B0DD079
:102E2000FB681B681B6803F48073B3F5807F03D1D4
:102E3000FB684FF400721A64032335E0FB681B69DA
:102E4000B3F5804F08D17B89DBB21A46FB681B685B
:102E500002F0FE021A611BE07B89DB11DBB203F09A
:102E60000603DBB263F00F03DAB2FB681B681A617A
:102E70003B687A680E49F86800F098F80346002B22
:102E800001D0012310E07B89DAB2FB681B681A616C
:102E90003B687A680749F86800F088F80346002B19
:102EA00001D0012300E0002318461837BD4680BD3D
:102EB000080001000200010080B584B000AFF86096
:102EC000B9603B601346FB7148E03B68B3F1FF3FDC
:102ED00044D0FEF727FF0246BB69D31A3A689A42EC
:102EE00002D33B68002B39D1BB681B0CDBB2012B32
:102EF0000DD1FB681B685B69DA43BB6813409BB26A
:102F0000002B0CBF01230023DBB21A460CE0FB6848
:102F10001B689B69DA43BB6813409BB2002B0CBF54
:102F200001230023DBB21A46FB799A4216D1FB68D3
:102F300000221A63FB68202283F83D20FB680022F0
:102F400083F83E20FB681B6C43F02002FB681A6488
:102F5000FB68002283F83C20012323E0BB681B0CA4
:102F6000DBB2012B0DD1FB681B685B69DA43BB68E0
:102F700013409BB2002B0CBF01230023DBB21A4687
:102F80000CE0FB681B689B69DA43BB6813409BB28B
:102F9000002B0CBF01230023DBB21A46FB799A42B7
:102FA00093D0002318461037BD4680BD80B584B04D
:102FB00000AFF860B9607A603B6071E0FB681B6845
:102FC0005B6903F48063B3F5806F23D1FB681B68F2
:102FD0001A68FB681B6842F400721A60FB681B6881
:102FE0006FF480625A61FB6800221A63FB6820223A
:102FF00083F83D20FB68002283F83E20FB681B6CB1
:1030000043F00402FB681A64FB68002283F83C204A
:10301000012367E07B68B3F1FF3F41D0FEF782FEFA
:1030200002463B68D31A7A689A4202D37B68002B27
:1030300036D1BB681B0CDBB2012B0CD1FB681B68C3
:103040005B69DA43BB6813409BB2002B14BF0123BA
:103050000023DBB20BE0FB681B689B69DA43BB68AB
:1030600013409BB2002B14BF01230023DBB2002BC3
:1030700016D0FB6800221A63FB68202283F83D20EB
:10308000FB68002283F83E20FB681B6C43F02002A3
:10309000FB681A64FB68002283F83C20012321E0CE
:1030A000BB681B0CDBB2012B0CD1FB681B685B6996
:1030B000DA43BB6813409BB2002B14BF01230023EB
:1030C000DBB20BE0FB681B689B69DA43BB6813400B
:1030D0009BB2002B14BF01230023DBB2002B7FF433
:1030E0006DAF002318461037BD4680BD80B584B053
:1030F00000AFF860B9607A6034E0F86800F086F8F4
:103100000346002B01D0012334E0BB68B3F1FF3F3D
:1031100028D0FEF707FE02467B68D31ABA689A42A7
:1031200002D3BB68002B1DD1FB681B685B6903F0F1
:103130008003802B16D0FB6800221A63FB682022D4
:1031400083F83D20FB68002283F83E20FB681B6C5F
:1031500043F02002FB681A64FB68002283F83C20DD
:10316000012307E0FB681B685B6903F08003802B89
:10317000C3D1002318461037BD4680BD80B584B04A
:1031800000AFF860B9607A6034E0F86800F03EF8AB
:103190000346002B01D0012334E0BB68B3F1FF3FAD
:1031A00028D0FEF7BFFD02467B68D31ABA689A4260
:1031B00002D3BB68002B1DD1FB681B685B6903F061
:1031C0000403042B16D0FB6800221A63FB6820223C
:1031D00083F83D20FB68002283F83E20FB681B6CCF
:1031E00043F02002FB681A64FB68002283F83C204D
:1031F000012307E0FB681B685B6903F00403042BF1
:10320000C3D1002318461037BD4680BD80B483B0BB
:1032100000AF78607B681B685B6903F48063B3F57B
:10322000806F1BD17B681B686FF480625A617B687A
:1032300000221A637B68202283F83D207B680022ED
:1032400083F83E207B681B6C43F004027B681A64A1
:103250007B68002283F83C20012300E0002318460D
:103260000C37BD4680BC704780B586B000AF786033
:103270007B68002B01D1012372E27B681B6803F09D
:103280000103002B00F08780924B5B6803F00C0376
:10329000042B0CD08F4B5B6803F00C03082B12D16E
:1032A0008C4B5B6803F48033B3F5803F0BD1894BC3
:1032B0001B6803F40033002B6CD07B685B68002B29
:1032C00068D101234CE27B685B68B3F5803F06D18F
:1032D000804B1B687F4A43F4803313602EE07B6889
:1032E0005B68002B0CD17B4B1B687A4A23F480333C
:1032F0001360784B1B68774A23F4802313601DE02A
:103300007B685B68B3F5A02F0CD1724B1B68714AC8
:1033100043F4802313606F4B1B686E4A43F4803381
:1033200013600BE06B4B1B686A4A23F48033136015
:10333000684B1B68674A23F4802313607B685B68D3
:10334000002B13D0FEF7EEFC386108E0FEF7EAFC34
:1033500002463B69D31A642B01D9032300E25D4B7B
:103360001B6803F40033002BF0D014E0FEF7DAFC06
:10337000386108E0FEF7D6FC02463B69D31A642B9D
:1033800001D90323ECE1534B1B6803F40033002BFA
:10339000F0D100E000BF7B681B6803F00203002B44
:1033A00063D04C4B5B6803F00C03002B0BD0494BF4
:1033B0005B6803F00C03082B1CD1464B5B6803F4DD
:1033C0008033002B16D1434B1B6803F00203002B04
:1033D00005D07B681B69012B01D00123C0E13D4B67
:1033E0001B6823F0F8027B685B69DB0039491343F3
:1033F0000B603AE07B681B69002B20D0364B012222
:103400001A60FEF78FFC386108E0FEF78BFC02467D
:103410003B69D31A022B01D90323A1E12D4B1B6871
:1034200003F00203002BF0D02A4B1B6823F0F802B4
:103430007B685B69DB00274913430B6015E0264B73
:1034400000221A60FEF76EFC386108E0FEF76AFCA5
:1034500002463B69D31A022B01D9032380E11D4B9D
:103460001B6803F00203002BF0D17B681B6803F09C
:103470000803002B3AD07B689B69002B19D0174BAF
:1034800001221A60FEF74EFC386108E0FEF74AFCA4
:1034900002463B69D31A022B01D9032360E10D4B8D
:1034A0005B6A03F00203002BF0D0012000F0BAFAAF
:1034B0001CE00A4B00221A60FEF734FC38610FE072
:1034C000FEF730FC02463B69D31A022B08D90323CE
:1034D00046E100BF00100240000042428004424228
:1034E000924B5B6A03F00203002BE9D17B681B68F7
:1034F00003F00403002B00F0A6800023FB758B4B28
:10350000DB6903F08053002B0DD1884BDB69874AC0
:1035100043F08053D361854BDB6903F08053BB607C
:10352000BB680123FB75824B1B6803F48073002B7F
:1035300018D17F4B1B687E4A43F480731360FEF7FB
:10354000F1FB386108E0FEF7EDFB02463B69D31A58
:10355000642B01D9032303E1754B1B6803F48073CB
:10356000002BF0D07B68DB68012B06D16F4B1B6A08
:103570006E4A43F0010313622DE07B68DB68002B89
:103580000CD16A4B1B6A694A23F001031362674B33
:103590001B6A664A23F0040313621CE07B68DB6845
:1035A000052B0CD1614B1B6A604A43F00403136284
:1035B0005E4B1B6A5D4A43F0010313620BE05B4BF9
:1035C0001B6A5A4A23F001031362584B1B6A574A7D
:1035D00023F0040313627B68DB68002B15D0FEF731
:1035E000A1FB38610AE0FEF79DFB02463B69D31A56
:1035F00041F28832934201D90323B1E04B4B1B6A5D
:1036000003F00203002BEED014E0FEF78BFB3861D1
:103610000AE0FEF787FB02463B69D31A41F2883283
:10362000934201D903239BE0404B1B6A03F0020342
:10363000002BEED1FB7D012B05D13C4BDB693B4AD6
:1036400023F08053D3617B68DB69002B00F0878017
:10365000364B5B6803F00C03082B61D07B68DB6999
:10366000022B46D1334B00221A60FEF75BFB386118
:1036700008E0FEF757FB02463B69D31A022B01D93B
:1036800003236DE0294B1B6803F00073002BF0D17E
:103690007B681B6AB3F5803F08D1244B5B6823F439
:1036A00000327B689B68214913434B601F4B5B686A
:1036B00023F474127B68196A7B685B6A0B431B49AD
:1036C00013434B601B4B01221A60FEF72BFB386142
:1036D00008E0FEF727FB02463B69D31A022B01D90B
:1036E00003233DE0114B1B6803F00073002BF0D067
:1036F00035E0104B00221A60FEF714FB386108E039
:10370000FEF710FB02463B69D31A022B01D90323B3
:1037100026E0064B1B6803F00073002BF0D11EE07F
:103720007B68DB69012B07D1012319E000100240FF
:1037300000700040600042420B4B5B68FB60FB681E
:1037400003F480327B681B6A9A4206D1FB6803F45B
:1037500070127B685B6A9A4201D0012300E000236B
:1037600018461837BD4680BD0010024080B584B0B1
:1037700000AF786039607B68002B01D10123D0E075
:103780006A4B1B6803F007033A689A4210D9674BEB
:103790001B6823F0070265493B6813430B60634BCA
:1037A0001B6803F007033A689A4201D00123B8E08E
:1037B0007B681B6803F00203002B20D07B681B682A
:1037C00003F00403002B05D0594B5B68584A43F4BF
:1037D000E06353607B681B6803F00803002B05D08F
:1037E000534B5B68524A43F460535360504B5B68E1
:1037F00023F0F0027B689B684D4913434B607B6864
:103800001B6803F00103002B40D07B685B68012B31
:1038100007D1474B1B6803F40033002B15D101235C
:103820007FE07B685B68022B07D1414B1B6803F08C
:103830000073002B09D1012373E03D4B1B6803F09B
:103840000203002B01D101236BE0394B5B6823F0AD
:1038500003027B685B68364913434B60FEF762FAEC
:10386000F8600AE0FEF75EFA0246FB68D31A41F2FE
:103870008832934201D9032353E02D4B5B6803F058
:103880000C027B685B689B009A42EBD1274B1B685C
:1038900003F007033A689A4210D2244B1B6823F0C6
:1038A000070222493B6813430B60204B1B6803F05F
:1038B00007033A689A4201D0012332E07B681B6813
:1038C00003F00403002B08D0194B5B6823F4E0627B
:1038D0007B68DB68164913434B607B681B6803F009
:1038E0000803002B09D0124B5B6823F460527B68FD
:1038F0001B69DB000E4913434B6000F021F80246C0
:103900000B4B5B681B0903F00F030A49CB5C22FADF
:1039100003F3094A1360094B1B681846FEF7C0F908
:10392000002318461037BD4680BD00BF002002406E
:1039300000100240A0600008080000200C000020D9
:1039400080B487B000AF0023FB600023BB6000237E
:103950007B6100237B6000233B611E4B5B68FB6047
:10396000FB6803F00C03042B02D0082B03D027E0E4
:10397000194B3B6127E0FB689B0C03F00F03174AD0
:10398000D35C7B60FB6803F48033002B10D0114BB9
:103990005B685B0C03F00103114AD35CBB607B687E
:1039A0000D4A03FB02F2BB68B2FBF3F37B6104E058
:1039B0007B680C4A02FB03F37B617B693B6102E09D
:1039C000054B3B6100BF3B6918461C37BD4680BCB8
:1039D000704700BF0010024000127A00B860000873
:1039E000C860000800093D0080B400AF024B1B68AE
:1039F0001846BD4680BC70470800002080B500AF67
:103A0000FFF7F2FF0246054B5B681B0A03F0070352
:103A10000349CB5C22FA03F3184680BD0010024034
:103A2000B060000880B485B000AF78600A4B1B68B6
:103A30000A4AA2FB03235B0A7A6802FB03F3FB60DA
:103A400000BFFB685A1EFA60002BF9D100BF00BF0F
:103A50001437BD4680BC704708000020D34D62106B
:103A600080B586B000AF786000233B610023FB6027
:103A70007B681B6803F00103002B7DD00023FB75DE
:103A80004F4BDB6903F08053002B0DD14C4BDB69AE
:103A90004B4A43F08053D361494BDB6903F08053B9
:103AA000BB60BB680123FB75464B1B6803F4807346
:103AB000002B18D1434B1B68424A43F480731360B8
:103AC000FEF730F9386108E0FEF72CF902463B6951
:103AD000D31A642B01D903236DE03A4B1B6803F41E
:103AE0008073002BF0D0364B1B6A03F44073FB60ED
:103AF000FB68002B2ED07B685B6803F44073FA6888
:103B00009A4227D02E4B1B6A23F44073FB602E4B46
:103B100001221A602C4B00221A60294AFB681362AA
:103B2000FB6803F00103002B14D0FEF7FBF83861AB
:103B30000AE0FEF7F7F802463B69D31A41F28832F1
:103B4000934201D9032336E01D4B1B6A03F00203A5
:103B5000002BEED01A4B1B6A23F440727B685B6823
:103B6000174913430B62FB7D012B05D1144BDB6915
:103B7000134A23F08053D3617B681B6803F0020370
:103B8000002B08D00E4B5B6823F440427B689B6897
:103B90000B4913434B607B681B6803F01003002B39
:103BA00008D0074B5B6823F480027B68DB6804491C
:103BB00013434B60002318461837BD4680BD00BF35
:103BC00000100240007000404004424280B582B0C4
:103BD00000AF78607B68002B01D1012376E07B6821
:103BE0005B6A002B08D17B685B68B3F5827F09D0E4
:103BF0007B680022DA6105E07B6800221A617B683D
:103C000000225A617B6800229A627B6893F85130E7
:103C1000DBB2002B06D17B68002283F85020786845
:103C2000FDF736FF7B68022283F851207B681B6812
:103C30001A687B681B6822F040021A607B685B6828
:103C400003F482727B689B6803F404431A437B6825
:103C5000DB6803F400631A437B681B6903F002030B
:103C60001A437B685B6903F001031A437B689B6915
:103C700003F400731A437B68DB6903F038031A43CB
:103C80007B681B6A03F0800342EA03017B689B6A3E
:103C900003F400527B681B680A431A607B689B69C7
:103CA0001A0C7B681B6802F004025A607B681B6870
:103CB000DA697B681B6822F40062DA617B680022A3
:103CC0005A657B68012283F8512000231846083783
:103CD000BD4680BD80B588B000AFF860B9603B607C
:103CE0001346FB800023FB77FB6893F85030012BD1
:103CF00001D102232DE1FB68012283F85020FEF759
:103D000011F8B861FB88FB82FB6893F85130DBB295
:103D1000012B02D00223FB7716E1BB68002B02D0F7
:103D2000FB88002B02D10123FB770DE1FB68032206
:103D300083F85120FB6800225A65FB68BA681A6351
:103D4000FB68FA889A86FB68FA88DA86FB680022A4
:103D50009A63FB6800229A87FB680022DA87FB6877
:103D600000225A64FB6800221A64FB689B68B3F562
:103D7000004F0FD1FB681B681A68FB681B6822F0B4
:103D800040021A60FB681B681A68FB681B6842F4F3
:103D900080421A60FB681B681B6803F04003402BDD
:103DA00007D0FB681B681A68FB681B6842F040027A
:103DB0001A60FB68DB68B3F5006F4FD1FB685B6886
:103DC000002B02D0FB8A012B42D1FB681B6B1A88A7
:103DD000FB681B68DA60FB681B6B9A1CFB681A6344
:103DE000FB68DB8E9BB2013B9AB2FB68DA862FE060
:103DF000FB681B689B6803F00203022B12D1FB686F
:103E00001B6B1A88FB681B68DA60FB681B6B9A1CCB
:103E1000FB681A63FB68DB8E9BB2013B9AB2FB68BE
:103E2000DA8615E0FDF77EFF0246BB69D31A3A68D1
:103E30009A4203D83B68B3F1FF3F02D13B68002BA5
:103E400006D10323FB77FB68012283F851207BE036
:103E5000FB68DB8E9BB2002BCAD150E0FB685B682D
:103E6000002B02D0FB8A012B44D1FB681A6BFB6844
:103E70001B680C3312781A70FB681B6B5A1CFB68AA
:103E80001A63FB68DB8E9BB2013B9AB2FB68DA8651
:103E900030E0FB681B689B6803F00203022B13D120
:103EA000FB681A6BFB681B680C3312781A70FB688E
:103EB0001B6B5A1CFB681A63FB68DB8E9BB2013BD1
:103EC0009AB2FB68DA8615E0FDF72CFF0246BB6963
:103ED000D31A3A689A4203D83B68B3F1FF3F02D144
:103EE0003B68002B06D10323FB77FB68012283F894
:103EF000512029E0FB68DB8E9BB2002BC9D1BA6947
:103F00003968F86800F06EFA0346002B02D0FB68AF
:103F100020225A65FB689B68002B0AD100233B6175
:103F2000FB681B68DB683B61FB681B689B683B6147
:103F30003B69FB685B6D002B02D00123FB7703E03C
:103F4000FB68012283F85120FB68002283F850208F
:103F5000FB7F18462037BD4680BD80B58CB000AFD2
:103F6000F860B9607A607B800123FB62002387F8E8
:103F70002B30FB6893F85030012B01D1022398E1DC
:103F8000FB68012283F85020FDF7CCFE7862FB68C5
:103F900093F8513087F82330FB685B68FB617B88BE
:103FA0007B8397F82330012B0FD0FB69B3F5827F19
:103FB00007D1FB689B68002B03D197F82330042BB3
:103FC00003D0022387F82B306DE1BB68002B05D0AE
:103FD0007B68002B02D07B88002B03D1012387F85C
:103FE0002B3060E1FB6893F85130DBB2042B03D037
:103FF000FB68052283F85120FB6800225A65FB68A4
:104000007A689A63FB687A88DA87FB687A889A8785
:10401000FB68BA681A63FB687A88DA86FB687A8874
:104020009A86FB6800221A64FB6800225A64FB68C7
:104030001B681B6803F04003402B07D0FB681B681C
:104040001A68FB681B6842F040021A60FB68DB6874
:10405000B3F5006F7CD1FB685B68002B02D07B8BD3
:10406000012B6AD1FB681B6B1A88FB681B68DA603E
:10407000FB681B6B9A1CFB681A63FB68DB8E9BB2A8
:10408000013B9AB2FB68DA8657E0FB681B689B68C5
:1040900003F00203022B1BD1FB68DB8E9BB2002BCB
:1040A00016D0FB6A012B13D1FB681B6B1A88FB68C7
:1040B0001B68DA60FB681B6B9A1CFB681A63FB6861
:1040C000DB8E9BB2013B9AB2FB68DA860023FB626F
:1040D000FB681B689B6803F00103012B19D1FB6887
:1040E000DB8F9BB2002B14D0FB681B68DA68FB687F
:1040F0009B6B92B21A80FB689B6B9A1CFB689A635D
:10410000FB68DB8F9BB2013B9AB2FB68DA87012325
:10411000FB62FDF707FE02467B6AD31ABA6B9A422E
:104120000BD8BB6BB3F1FF3F07D0032387F82B30CD
:10413000FB68012283F85120B5E0FB68DB8E9BB25F
:10414000002BA2D1FB68DB8F9BB2002B9DD180E0BE
:10415000FB685B68002B02D07B8B012B6FD1FB6867
:104160001A6BFB681B680C3312781A70FB681B6BA8
:104170005A1CFB681A63FB68DB8E9BB2013B9AB248
:10418000FB68DA865BE0FB681B689B6803F0020350
:10419000022B1CD1FB68DB8E9BB2002B17D0FB6A75
:1041A000012B14D1FB681A6BFB681B680C33127867
:1041B0001A70FB681B6B5A1CFB681A63FB68DB8E6A
:1041C0009BB2013B9AB2FB68DA860023FB62FB6874
:1041D0001B689B6803F00103012B19D1FB68DB8F7F
:1041E0009BB2002B14D0FB681B68DA68FB689B6BE2
:1041F000D2B21A70FB689B6B5A1CFB689A63FB680F
:10420000DB8F9BB2013B9AB2FB68DA870123FB622A
:10421000FDF788FD02467B6AD31ABA6B9A4203D82F
:10422000BB6BB3F1FF3F02D1BB6B002B07D1032364
:1042300087F82B30FB68012283F8512033E0FB68BC
:10424000DB8E9BB2002B9ED1FB68DB8F9BB2002BD9
:1042500099D17A6AB96BF86800F0C4F80346002B6C
:1042600006D0012387F82B30FB6820225A651AE01C
:10427000FB689B68002B0AD100237B61FB681B68ED
:10428000DB687B61FB681B689B687B617B69FB6803
:104290005B6D002B03D0012387F82B3003E0FB6814
:1042A000012283F85120FB68002283F8502097F800
:1042B0002B3018463037BD4680BD80B483B000AF88
:1042C00078607B6893F85130DBB218460C37BD46F6
:1042D00080BC704780B588B000AFF860B9603B60C3
:1042E0001346FB71FDF71EFD0246BB6A9B1A3A6836
:1042F0001344FB61FDF716FDB861394B1B685B0188
:104300001B0DFA6902FB03F37B6154E03B68B3F1D8
:10431000FF3F50D0FDF706FD0246BB69D31AFA698C
:104320009A4202D9FB69002B3DD1FB681B685A6891
:10433000FB681B6822F0E0025A60FB685B68B3F51B
:10434000827F11D1FB689B68B3F5004F04D0FB68F6
:104350009B68B3F5806F07D1FB681B681A68FB6820
:104360001B6822F040021A60FB689B6AB3F5005F8D
:104370000FD1FB681B681A68FB681B6822F40052A7
:104380001A60FB681B681A68FB681B6842F40052DD
:104390001A60FB68012283F85120FB68002283F831
:1043A0005020032317E07B69002B01D10023FB6120
:1043B0007B69013B7B61FB681B689A68BB681340A3
:1043C000BA689A420CBF01230023DBB21A46FB797C
:1043D0009A429BD1002318462037BD4680BD00BFBE
:1043E0000800002080B586B002AFF860B9607A603E
:1043F0007B680093BB6800228021F868FFF76AFFA2
:104400000346002B07D0FB685B6D43F02002FB687E
:104410005A65032300E0002318461037BD4680BDCF
:1044200080B582B000AF78607B68002B01D101239A
:1044300041E07B6893F83D30DBB2002B06D17B680E
:10444000002283F83C207868FDF76CFB7B68022231
:1044500083F83D207B681A687B6804331946104650
:1044600000F040F97B68012283F846207B68012236
:1044700083F83E207B68012283F83F207B6801227D
:1044800083F840207B68012283F841207B68012269
:1044900083F842207B68012283F843207B68012255
:1044A00083F844207B68012283F845207B68012241
:1044B00083F83D20002318460837BD4680BD000024
:1044C00080B485B000AF78607B6893F83D30DBB294
:1044D000012B01D0012332E07B68022283F83D20CA
:1044E0007B681B68184A93420ED07B681B68B3F147
:1044F000804F09D07B681B68144A934204D07B68C4
:104500001B68134A934211D17B681B689B6803F0B8
:104510000703FB60FB68062B10D07B681B681A68DA
:104520007B681B6842F001021A6007E07B681B6829
:104530001A687B681B6842F001021A600023184663
:104540001437BD4680BC7047002C01400004004079
:104550000008004080B584B000AF78603960002367
:10456000FB737B6893F83C30012B01D10223B4E04C
:104570007B68012283F83C207B68022283F83D207F
:104580007B681B689B68BB60BB6823F07703BB60DC
:10459000BB6823F47F43BB607B681B68BA689A6082
:1045A0003B681B68B3F5005F3ED0B3F5005F00F2D7
:1045B0008780B3F5805F00F08680B3F5805F7FD899
:1045C000702B1AD0702B7BD8602B50D0602B77D8F3
:1045D000502B3CD0502B73D8402B58D0402B6FD849
:1045E000302B64D0302B6BD8202B60D0202B67D899
:1045F000002B5CD0102B5AD062E07B6818683B68B7
:1046000099683B685A683B68DB6800F044F97B684E
:104610001B689B68BB60BB6843F07703BB607B682B
:104620001B68BA689A604FE07B6818683B689968B5
:104630003B685A683B68DB6800F02DF97B681B68B3
:104640009A687B681B6842F480429A603CE07B6811
:1046500018683B6859683B68DB681A4600F0A4F8A4
:104660007B681B685021184600F0FBF82CE07B6843
:1046700018683B6859683B68DB681A4600F0C2F866
:104680007B681B686021184600F0EBF81CE07B6833
:1046900018683B6859683B68DB681A4600F084F884
:1046A0007B681B684021184600F0DBF80CE07B6853
:1046B0001A683B681B681946104600F0D2F803E000
:1046C0000123FB7300E000BF7B68012283F83D20DB
:1046D0007B68002283F83C20FB7B18461037BD46E0
:1046E00080BD000080B485B000AF786039607B6821
:1046F0001B68FB607B68294A93420BD07B68B3F14F
:10470000804F07D07B68264A934203D07B68254AB6
:10471000934208D1FB6823F07003FB603B685B6841
:10472000FA681343FB607B681C4A93420BD07B689A
:10473000B3F1804F07D07B68194A934203D07B685E
:10474000184A934208D1FB6823F44073FB603B682E
:10475000DB68FA681343FB60FB6823F080023B6868
:104760005B691343FB607B68FA681A603B689A6870
:104770007B68DA623B681A687B689A627B68074AE2
:10478000934203D13B681A697B681A637B680122F4
:104790005A6100BF1437BD4680BC7047002C0140F1
:1047A000000400400008004080B487B000AFF8600B
:1047B000B9607A60FB681B6A7B61FB681B6A23F047
:1047C0000102FB681A62FB689B693B613B6923F04D
:1047D000F0033B617B681B013A6913433B617B69D2
:1047E00023F00A037B617A69BB6813437B61FB6832
:1047F0003A699A61FB687A691A6200BF1C37BD4644
:1048000080BC704780B487B000AFF860B9607A6050
:10481000FB681B6A7B61FB681B6A23F01002FB6864
:104820001A62FB689B693B613B6923F470433B61FF
:104830007B681B033A6913433B617B6923F0A00348
:104840007B61BB681B017A6913437B61FB683A6932
:104850009A61FB687A691A6200BF1C37BD4680BC4A
:10486000704780B485B000AF786039607B689B6822
:10487000FB60FB6823F07003FB603A68FB6813433E
:1048800043F00703FB607B68FA689A6000BF143747
:10489000BD4680BC704780B487B000AFF860B96097
:1048A0007A603B60FB689B687B617B6923F47F4394
:1048B0007B613B681A027B681A43BB6813437A69C1
:1048C00013437B61FB687A699A6000BF1C37BD4661
:1048D00080BC704780B485B000AF786039607B6879
:1048E00093F83C30012B01D1022346E07B68012282
:1048F00083F83C207B68022283F83D207B681B689C
:104900005B68FB607B681B689B68BB60FB6823F08F
:104910007003FB603B681B68FA681343FB607B68AD
:104920001B68FA685A607B681B68164A93420ED06F
:104930007B681B68B3F1804F09D07B681B68124A03
:10494000934204D07B681B68104A93420CD1BB6829
:1049500023F08003BB603B685B68BA681343BB60AD
:104960007B681B68BA689A607B68012283F83D20E7
:104970007B68002283F83C20002318461437BD468C
:1049800080BC7047002C014000040040000800403B
:104990000EB46FF0004100B59CB01DAB02900690C4
:1049A000079104910848094953F8042B05910068C0
:1049B00002A9019300F09CF90022029B1A701CB01E
:1049C0005DF804EB03B07047600000200802FFFFB1
:1049D00003460244934200D1704703F8011BF9E7F4
:1049E000014B1868704700BF6000002070B50026BA
:1049F0000C4D0D4C641BA410A64209D100F07AFCAA
:104A000000260A4D0A4C641BA410A64205D170BDB5
:104A100055F8043B98470136EEE755F8043B9847B4
:104A20000136F2E708610008086100080861000823
:104A30000C610008704770470A44914200F1FF334F
:104A400000D1704710B511F8014B914203F8014FA6
:104A5000F9D110BD38B50546002940D051F8043CC5
:104A60000C1F002BB8BFE41800F0DCF81C4A1368D8
:104A700033B9636014602846BDE8384000F0D8B808
:104A8000A34208D9206821188B4201BF19685B68CE
:104A900009182160EDE71A465B680BB1A342FAD909
:104AA00011685018A0420BD120680144501883426D
:104AB0001160E0D118685B68084410605360DAE761
:104AC00002D90C232B60D6E7206821188B4201BF46
:104AD00019685B680918216063605460CBE738BDD2
:104AE0006008002070B50E4E0C463168054611B9BD
:104AF00000F0AAFB30602146284600F0A5FB431CCD
:104B00000AD0C41C24F00304A04207D0211A28466E
:104B100000F09AFB013001D14FF0FF34204670BD08
:104B2000640800202DE9F843CD1C25F00305083565
:104B30000C2D38BF0C25002D074601DBA94205D9F5
:104B40000C2300263B603046BDE8F883DFF8D080B8
:104B500000F068F8D8F800301C465CBB294638469F
:104B6000FFF7C0FF431C044655D1D8F80040264645
:104B7000002E45D1002C48D023683146384604EB3E
:104B8000030900F061FB81453FD1216838466D1A69
:104B90002946FFF7A7FF013037D023682B44236055
:104BA000D8F80030002B38D05A68A2422BD100220E
:104BB0005A600FE02268521B1FD40B2A17D96119C3
:104BC000A342256018BF5960636808BFC8F8001089
:104BD00062514B60384604F10B0600F029F826F0CC
:104BE0000706231DF21AAED09B1BA350ABE7A342CE
:104BF0006268DDD1C8F80020ECE723466468ACE7C2
:104C000034467668B4E71346CCE70C2338463B605D
:104C100000F00EF897E72560DCE75B60FFDE00BF81
:104C2000600800200148FFF705BF00BF5C080020B6
:104C30000148FFF700BF00BF5C0800202DE9F047E6
:104C40001F468E688246BE420C4690460B682CD8A2
:104C50008A8912F4906F26D06569096905EB4505CC
:104C6000A3EB010905EBD5757B1C4B446D109D42F0
:104C700038BF1D46530527D52946FFF753FF064683
:104C800060B34A462169FFF7D7FEA38923F49063F6
:104C900043F08003A38126614E4426603E46656151
:104CA000A5EB0905A560BE4200D93E463246414605
:104CB000206800F0AFFA0020A3689B1BA360236864
:104CC00033442360BDE8F0872A4600F0DBFA06464D
:104CD0000028E0D150462169FFF7BCFE0C23CAF83A
:104CE0000030A3894FF0FF3043F04003A381E9E790
:104CF0002DE9F04F98468B8907461B060D46144652
:104D00009DB00ED50B6963B94021FFF70BFF2860FA
:104D1000286120B90C233B604FF0FF30D0E04023E6
:104D20006B610023099320238DF8293030234FF045
:104D30000109CDF80C80DFF8A0818DF82A302346D8
:104D40009A4613F8012B0AB1252AF9D1BAEB040BC4
:104D50000BD05B46224629463846FFF76FFF0130ED
:104D600000F0A980099A5A4409929AF80030002B61
:104D700000F0A18000234FF0FF32CDE905230AF1B6
:104D8000010A049307938DF853301A935446052271
:104D900014F8011B504800F067FA049AD8B9D006FD
:104DA00044BF20238DF85330110744BF2B238DF8C7
:104DB00053309AF800302A2B15D0544600204FF07B
:104DC0000A0C079A214611F8013B303B092B4DD9BB
:104DD000B0B1079214E0A0EB080309FA03F3134300
:104DE000A2460493D2E7039B191D1B680391002B75
:104DF000BBBF5B4242F0020207930793B8BF049225
:104E000023782E2B0CD163782A2B34D1039B0234C8
:104E10001A1D1B680392002BB8BF4FF0FF33059398
:104E2000DFF8B8A003225046217800F01DFA38B10F
:104E30004022049BA0EB0A008240134301340493F8
:104E400014F8011B062226488DF8281000F00CFAF1
:104E5000002838D0234B1BBB039B073323F00703E9
:104E600008330393099B3344099368E70C460120F8
:104E70000CFB0232A6E700234FF00A0C194601345E
:104E80000593204610F8012B303A092A03D9002B4C
:104E9000C6D00591C4E7044601230CFB0121F0E7CD
:104EA00003AB00932A4638460F4B04A9AFF30080AA
:104EB000421C0646D6D1AB895B063FF52DAF09985B
:104EC0001DB0BDE8F08F03AB00932A463846064B71
:104ED00004A900F07DF8EBE7CA600008D060000884
:104EE000D4600008000000003D4C00082DE9F047A8
:104EF000164699468A680B6907469342B8BF13461F
:104F0000336091F843200C46DDF820800AB101336C
:104F100033602368990642BF3368023333602568E3
:104F200015F0060506D104F1190AE36832689B1AE8
:104F3000AB422BDC94F84320131E226818BF0123D8
:104F4000920630D44946384604F14302C047013046
:104F500023D02368226903F00603042B14BF002525
:104F600033684FF0000608BFE56804F11A0408BF73
:104F7000ED1A54F8123C08BF25EAE5759342C4BF08
:104F80009B1AED18B5421AD1002008E001235246C1
:104F900049463846C047013003D14FF0FF30BDE8E5
:104FA000F0870135C1E73020E11881F843005A1C31
:104FB00094F845102244023382F84310C2E70123DB
:104FC000224649463846C0470130E6D00136D9E787
:104FD0002DE9FF470F7E9146782F80460C469A4672
:104FE0000C9D01F1430207D8622F0AD8002F00F070
:104FF000D580582F00F0C18004F1420584F842703A
:105000003AE0A7F16303152BF6D801A151F823F07C
:10501000695000087D500008F94F0008F94F00085A
:10502000F94F0008F94F00087D500008F94F0008BB
:10503000F94F0008F94F0008F94F000883510008A4
:10504000A95000083D510008F94F0008F94F000829
:10505000A5510008F94F0008A9500008F94F0008B1
:10506000F94F0008455100082B681A1D1B682A607B
:1050700004F1420584F842300123A0E020682B6847
:10508000070603F10401296001D51E6803E0460606
:10509000FBD5B3F90060002E03DA2D23764284F8A5
:1050A00043300A23594812E02B682068191D2960F3
:1050B000050601D51E6802E04106FBD51E886F2F4C
:1050C0000CBF08230A235148002184F84310656867
:1050D000002DA8BF2168A560A4BF21F004012160B4
:1050E0000EB9002D4BD01546B6FBF3F103FB11674B
:1050F000C75D05F8017D3746BB420E46F4D9082B43
:105100000BD12368DE0708D5236961689942DEBFA9
:10511000302305F8013C05F1FF35521B22614B4657
:1051200021464046CDF800A003AAFFF7DFFE01307C
:105130004AD14FF0FF3004B0BDE8F087236843F058
:10514000200323607827324884F845702368296853
:105150001F0651F8046B02D45F0648BFB6B2DF07E2
:1051600048BF43F02003296048BF23601EB923686D
:1051700023F0200323601023A6E72448E4E7154624
:10518000BDE72B682668181D6169286035061B6815
:1051900001D5196002E07006FBD519800023154681
:1051A0002361BCE72B6800211A1D2A601D68626814
:1051B000284600F059F808B1401B6060636823611D
:1051C000002384F84330AAE72A464946404623692B
:1051D000D0470130ADD023689B0713D4E068039B10
:1051E0009842B8BF1846A6E70123324649464046D2
:1051F000D04701309DD00135E36803995B1AAB427B
:10520000F2DCEBE7002504F11906F5E7DB600008A6
:10521000EC600008884210B501EB020402D9844218
:10522000234607D8431EA14208D011F8012B03F8EA
:10523000012FF8E7014602448A4200D110BD13F85D
:10524000014D02F8014DF7E738B50023054D04463E
:1052500008462B60FCF7ACFC431C02D12B6803B161
:10526000236038BD58080020034610B5C9B2024477
:105270009342184601D1002003E0047801338C42A8
:10528000F6D110BD2DE9F041804614460E4621B9F5
:105290001146BDE8F041FFF745BC2AB9FFF7DAFB3C
:1052A00025462846BDE8F08100F01BF884420746F9
:1052B00002D8B4EB500F12D821464046FFF732FC1B
:1052C00005460028EDD0BC422246314628BF3A466A
:1052D000FFF7B2FB31464046FFF7BCFBE1E735463E
:1052E000DFE751F8043C181F002BBCBF0B58C01857
:1052F00070470000F8B500BFF8BC08BC9E46704778
:0C530000F8B500BFF8BC08BC9E46704722
:10530C0025640000466972656565650046726565D1
:10531C004669726565656500FFFCF9F606070809C4
:10532C000A0B0C0000010203040506070809000023
:10533C000102030401000000000000000000000056
:10534C000000000000000000000000000000000051
:10535C000000000000000000000000000000000C35
:10536C00000C000C000C000C000C000C000C000CD1
:10537C00000C000C0000000C000C000000000000F1
:10538C000000001B001B001B001B001B000000008A
:10539C000000000000000000000000000000000001
:1053AC000000000000008019801980198019C07F4E
:1053BC00C07F80190033C07FC07F003300330033BF
:1053CC0000330000000000000000001E003F80754C
:1053DC0080650074003C001E0007800580658065B8
:1053EC008075003F001E00040004000000000070E7
:1053FC0000D840D8C0D880D900730006000C801BA0
:10540C00C036C066C046C006800300000000000025
:10541C000000001E003F003300330033001E000C60
:10542C00C03CC066806380618063C03E801C00000D
:10543C00000000000000000C000C000C000C000C24
:10544C000000000000000000000000000000000050
:10545C0000000000000000008000000100030006B6
:10546C0000060004000C000C000C000C000C000CDE
:10547C00000400060006000300018000002000105C
:10548C000018000C000C00040006000600060006C4
:10549C00000600060004000C000C00180010002090
:1054AC000000000C002D003F001E00330000000027
:1054BC0000000000000000000000000000000000E0
:1054CC0000000000000000000000000C000C000CAC
:1054DC00000CC0FFC0FF000C000C000C000C000006
:1054EC0000000000000000000000000000000000B0
:1054FC0000000000000000000000000000000000A0
:10550C000000000C000C0004000400080000000067
:10551C000000000000000000000000000000001E61
:10552C00001E000000000000000000000000000051
:10553C00000000000000000000000000000000005F
:10554C0000000000000000000000000C000C000037
:10555C00000000000000000300030003000600062A
:10556C0000060006000C000C000C000C00180018C3
:10557C0000180000000000000000001E003F003377
:10558C00806180618061806D806D806180618061EF
:10559C000033003F001E0000000000000000000669
:1055AC00000E001E0036002600060006000600064F
:1055BC0000060006000600060006000000000000C1
:1055CC000000001E003F8073806180618001000339
:1055DC000006000C001800300060807F807F000007
:1055EC00000000000000001C003E0063006300038C
:1055FC00000E000E00038001800180618073003F6B
:10560C00001E00000000000000000006000E000E4E
:10561C00001E001E0016003600360066807F807F5C
:10562C000006000600060000000000000000007FDD
:10563C00007F006000600060006E007F806380016E
:10564C00800180618073003F001E0000000000009C
:10565C000000001E003F803380610060006E007F00
:10566C0080738061806180618033003F001E000088
:10567C00000000000000807F807F80010003000399
:10568C0000060006000C000C000C000800180018A6
:10569C0000180000000000000000001E003F8063A6
:1056AC00806180610021001E003F8061806180610B
:1056BC008061003F001E0000000000000000001E82
:1056CC00003F00738061806180618073803F801D2A
:1056DC00800180610073003F001E0000000000008C
:1056EC0000000000000000000000000C000C000096
:1056FC0000000000000000000000000C000C000086
:10570C00000000000000000000000000000000008D
:10571C00000C000C00000000000000000000000C59
:10572C00000C000400040008000000000000000051
:10573C0080008003000E003800600038000E8003EB
:10574C0080000000000000000000000000000000CD
:10575C00000000000000807F807F00000000807F40
:10576C00807F00000000000000000000000000002E
:10577C00000000000000000000400070001C00074A
:10578C0080010007001C00700040000000000000B9
:10579C00000000000000001F803FC071C060C0000E
:1057AC00C00180030007000E000C000C0000000C70
:1057BC00000C0000000000000000001E003F8031C3
:1057CC0080718063806F806D806D806F80670060FA
:1057DC000032003E001C0000000000000000000E23
:1057EC00000E001B001B001B001B80318031803F12
:1057FC00803F8031C060C060C060000000000000CD
:10580C000000007C007E0063006300630063007E88
:10581C00007E0063806180618063007F007E0000F9
:10582C00000000000000001E003F8031806100601D
:10583C000060006000600060006080618031003FAB
:10584C00001E0000000000000000007C007F0063D0
:10585C0080638061806180618061806180610063B0
:10586C000063007E007C0000000000000000807FD0
:10587C00807F0060006000600060007F007F00603F
:10588C00006000600060807F807F000000000000EE
:10589C000000807F807F0060006000600060007FFF
:1058AC00007F00600060006000600060006000002D
:1058BC00000000000000001E003F8031806100608D
:1058CC000060006080638063806180618031803F14
:1058DC00001E0000000000000000806180618061FB
:1058EC00806180618061807F807F80618061806168
:1058FC008061806180610000000000000000003FBA
:10590C00003F000C000C000C000C000C000C000CF8
:10591C00000C000C000C003F003F000000000000D9
:10592C0000008001800180018001800180018001E4
:10593C0080018001806180618073003F001E000047
:10594C00000000000000C06080610063006600661B
:10595C00006C0078007C00660066006380618061EA
:10596C00C0600000000000000000006000600060EB
:10597C00006000600060006000600060006000601B
:10598C000060807F807F0000000000000000C0717C
:10599C00C071C07BC07AC06AC06AC06EC064C0608F
:1059AC00C060C060C060C060C0600000000000004B
:1059BC00000080718071807980798079806D806D34
:1059CC00806D80658067806780678063806300007E
:1059DC00000000000000001E003F00338061806169
:1059EC008061806180618061806180610033003FF3
:1059FC00001E0000000000000000007E007F80639D
:105A0C008061806180618063007F007E0060006047
:105A1C000060006000600000000000000000001E3C
:105A2C00003F0033806180618061806180618061B2
:105A3C00806580670033803F401E0000000000003E
:105A4C000000007E007F8063806180618063007F46
:105A5C00007E00660063006380618061C0600000AE
:105A6C00000000000000000E001F8031803100306B
:105A7C000038001E00078003806180618031003F88
:105A8C00001E0000000000000000C0FFC0FF000C62
:105A9C00000C000C000C000C000C000C000C000C9A
:105AAC00000C000C000C00000000000000008061E5
:105ABC0080618061806180618061806180618061D2
:105ACC00806180618073003F001E000000000000B8
